:10000000001000201D040000792D00007D2D00004F
:10001000A1E70100812D0000892D0000A1E701006A
:10002000A1E70100A1E70100A1E70100A1E70100AC
:100030008D2D0000C0580200A1E70100A1E70100DA
:10004000A1E701004B2C0200A1E70100A1E701009C
:1000500099D800005B2C0200572C0200A5E000009C
:100060004F2C0200A1E70100A1E70100A1E7010078
:10007000BD7C0000A1E70100A1E70100A1E70100AC
:10008000A1E70100A1E70100797C0000A1E70100E0
:10009000A1E70100A1E70100A1E70100A1E701003C
:1000A000A1E70100A1E70100A1E70100A1E701002C
:1000B000D9E00000532C020009020100DD3D0000E0
:1000C00015E10000A1E70100D5000100A1E7010052
:1000D000A1E70100A1E70100A1E70100A1E70100FC
:1000E000A1E70100A1E70100A1E70100A1E70100EC
:1000F000A1E70100A1E70100A1E701000000000065
:1001000070B58EB02C22002103A821F08DFE64234F
:100110004FF00232CDE9052308930B238DF83430DC
:10012000514B1B880121D8078DF8101000F19680E3
:10013000084610F07BF84D4B4D494E484E4C0A2274
:100140001A704FF42873ADF812300FF089FC20605C
:1001500020B94A484FF417711EF0F0FE20680521BF
:1001600022F062FB20B145484FF41B711EF0E6FE01
:10017000206808F0DDFA424B2068196822F0FDFB88
:1001800010F024FF0C256843099010F01FFF68430E
:1001900007900DEB050120680AF06CFC20B1374890
:1001A00040F281211EF0CAFE36492068002222F06A
:1001B0006AFC20B1314840F283211EF0BFFE324E6E
:1001C000324D96F9000040F203532B807F284FF008
:1001D0000503AB7001D110F087F93378EB7010F0A4
:1001E000F5FE00EB80008000A88010F0EFFE0023F9
:1001F000C000E880AB604FF0FF3019A3D3E90023C3
:100200004FF0FF3110F0CEF92149206822F0E7FFCE
:10021000206802A922F016FC20B118484FF42F7173
:100220001EF08CFE042220680DEB020122F093FBED
:10023000042804D0114840F2BF211EF07FFE01A91E
:10024000012023F00FF902F0DBFD012011F04EF93F
:100250001EF06BFC11F074F910F06CF80EB070BD6C
:100260000A0020FF42030000CA3D0020F5400020A4
:1002700055020100941100204C380020FA8502003C
:10028000D0100020034100201A1400204038002024
:10029000F50301000348044B834202D0034B03B132
:1002A0001847704764140020641400200000000008
:1002B0000548064B1B1AD90F01EBA301491002D0C8
:1002C000034B03B1184770476414002064140020E6
:1002D0000000000010B5064C237843B9FFF7DAFFA1
:1002E000044B13B10448AFF300800123237010BD09
:1002F0003C3E0020000000007C88020008B5054B51
:100300001BB105490548AFF30080BDE80840FFF781
:10031000CFBF00BF00000000A01600207C880200B4
:10032000A3F5803A704700BF174B002B08BF134B53
:100330009D46FFF7F5FF00218B460F461348144AF0
:10034000121A21F071FD0E4B002B00D098470D4B77
:10035000002B00D098470020002104000D000D481C
:10036000002802D00C48AFF3008008F089FB200081
:10037000290021F023FD08F05DFB00BF000008000C
:1003800000000000000000000010002064140020A5
:100390004C41002000000000000000000F4BD3F88B
:1003A0002838A3F17E62A2F58432B2F5605F10B501
:1003B00011D219680A4A91420DD10A4C227812F0E2
:1003C000FD0F01D0002010BDDB6998470028FAD14D
:1003D00001232370F6E74FF48170F4E70000E10F8A
:1003E00007B0CD5E3D3E00200B4BD3F82828A2F18C
:1003F0007E63A3F58433B3F5605F09D2126BA2F17B
:100400007E63A3F58433B3F5605F01D29368184728
:100410004FF48170704700BF0000E10F08B500F095
:1004200083F8124B12498B4212D3124B124900200F
:100430008B4218D3FFF778FF186850F822405868AD
:1004400040F82240013298688242F5D30C33EAE743
:100450000022F8E71C6844F8220001325C68A242DE
:10046000F8D30833E4E70022F8E700BF84880200ED
:10047000908802009088020090880200004870472F
:1004800000F04902104AD2F8943003F00703023B0F
:10049000032B13D8DFE803F00C14020E0B4B1B6880
:1004A000D2F80001C0F304200130B3FBF0F0704734
:1004B000074BF4E7074B1B685B08F1E7054BEEE7DA
:1004C0004FF40043ECE700BF00400E40A0100020B6
:1004D000A41000209810002008B5FFF7D3FF054BAB
:1004E000D3F80831C3F308230133B0FBF3F0024B18
:1004F000186008BD00400E409C100020014B186899
:10050000704700BFA4100020054B1860054BD3F8BE
:10051000943003F00703022B01D1FFF7DDBF7047D2
:10052000A410002000400E40044B054A9A60D3F806
:10053000882042F47002C3F88820704700ED00E084
:1005400000000000014B1868704700BFA010002099
:10055000024B1968024B186809F022BCA810002051
:10056000C810002070B59400224605460E461EF0C5
:100570008FFA431C0AD058B922463146284621F04A
:1005800029FC0028034808BF002070BD0248FCE792
:100590000248FAE710E000F021E000F024E000F06B
:1005A00010B5044601F044FA431C10D088B901F09C
:1005B0001DFB20F0030023462044984201D1002077
:1005C00010BD53F8042B0132F7D00348F8E7034875
:1005D000F6E70348F4E700BF0EE000F021E000F08A
:1005E00024E000F008B51EF018F9014B186008BDB2
:1005F000A81D0020014B18681EF013B9A81D00208B
:100600000C4B984205D90C4B984210D8012201237B
:1006100001E00022134609490B640949D1F8003171
:1006200023F0807343EA0263C1F80031704702226D
:10063000EDE700BF0048E8010090D0030000C84388
:1006400000400E400F4B5B680F4B30B500221C463C
:10065000C9B21D798D4202D11D6885420DD2013289
:10066000052A03F10803F4D10321064A536823F055
:10067000407343EA0163536030BD04EBC204617907
:10068000F3E700BF00000E403459020038B5074CB4
:1006900041F67133256C2364FFF7F0FEADB2002103
:1006A000FFF7D0FF0DB10023236438BD00000E40DA
:1006B000044BDB6B5B0604D4034AD2F8C830002B32
:1006C000FBD1704700300E400000C64308B5FFF76D
:1006D000EFFF024B5868C0F3014008BD00300E40E8
:1006E000044BD3F84421D20703D4D3F8402110425D
:1006F000FBD1704700400E4038B5064C256C41F6E2
:1007000071332364ADB2FFF79DFF0DB10023236465
:1007100038BD00BF00000E4038B5C0F30323013BD5
:10072000092B11D8DFE803F0052710102B221D102C
:100730001511154DC0F3043405F1424505F580153A
:1007400004EBC5008000016038BD104DC0F30434D7
:10075000F2E70F4DC0F304344FF48030FFF7C0FFD1
:10076000EAE7C0F304340B4D1020F7E7C0F304347C
:10077000094D0120F2E7094DC0F30434DCE7084DD0
:10078000C0F30434D8E700BF00400E4050410E4093
:10079000F0400E40E8400E40E0400E40C0400E40A9
:1007A000B0400E40C0F30313013B092B2AD8DFE809
:1007B00003F0050B0F1929291F23374B274BD3F8BB
:1007C0000001C0F304207047244BD3F81401F8E76C
:1007D000224BD3F80031C3F300630133012098406A
:1007E000013870471D4BD3F80C01C0F30820704747
:1007F0001A4BD3F80801F8E7194B984204D0194B6B
:10080000984207D000207047144BD3F8203103F0F2
:100810000F03E3E7114BD3F82031C3F30113DDE7F6
:10082000114B98420CD003F5B01303F58053984256
:10083000E8D10A4BD3F82831C3F301230433CDE7C1
:10084000064BD3F82831E8E7084B9842DAD1034B3E
:10085000D3F8300100F00300704700BF00400E40A5
:100860008006160080162E0090171A00A0091400AA
:1008700000F00F000138072852D8DFE800F0041517
:100880002251313951412C4BD3F8943003F00703F6
:10089000023B052B06D8DFE803F04B294103054551
:1008A0000B20704705207047234BD3F8803003F0AE
:1008B0000703013B042B17D8DFE803F01830163686
:1008C00038001D4BD3F8843003F00703013B042BA1
:1008D0000AD8DFE803F00B2303292B00062070471A
:1008E000154BD3F88830E2E70120704703207047AA
:1008F000114B1B6F13F0010F0CBF0720092070472D
:100900000D4BD3F85C3103F03003202B10D0302B8B
:1009100010D0102B0CBF0720012070470220704719
:10092000002070470C2070470A2070470D20704748
:10093000042070470820704700400E4008B501466B
:10094000FFF796FF1A4B994212D01A4B994213D0D7
:10095000194B994204D1194BD3F8800000F00700DD
:100960000138042822D8DFE800F00B0F17130B0022
:10097000124BD3F88400F1E7104BD3F88800EDE771
:10098000BDE808401DF00DBFBDE80840FFF7DABD27
:10099000BDE808401DF008BFFFF774FD074BD3F812
:1009A0000031C3F300630133D84008BD0020FCE7E9
:1009B000030020000500240002001E0000400E403D
:1009C00000F47813B3F5B01F10B5044674D025D8E1
:1009D000B3F5402F5ED010D8B3F5802F49D005D89D
:1009E0003BB1B3F5003F4FD0002010BDB3F5202F31
:1009F000FAD1BDE81040FFF745BDB3F5801F00F008
:100A00008480B3F5A01F4DD0B3F5602FECD14A48D8
:100A1000FFF72EFF072878D00928E9E7B3F5381F3C
:100A200053D013D8B3F5001F58D00AD8B3F5D01F50
:100A300056D0B3F5F01FD7D14048BDE81040FFF7BE
:100A40007DBFB3F5101FCFD13D48F6E7B3F5481F82
:100A50004DD0B3F5781F65D0B3F5401FC4D13948E8
:100A6000FFF76CFF384BD3F82831C3F3012304336D
:100A700020E0FFF707FD344BD3F80C31C3F3082314
:100A80000133B0FBF3F0B0E7FFF7FCFC2E4BD3F8DB
:100A90000831F3E7FFF7F6FC2B4BD3F81431C3F31F
:100AA0000423EDE72648FFF749FF274BD3F8303101
:100AB00003F00303D84098E72048FFF73FFF224B9D
:100AC000D3F8203103F00F03F4E71C48FFF736FF9B
:100AD0001D4BD3F82031C3F30113EBE71948ACE702
:100AE0001848FFF72BFF184BD3F82831F3E71748C6
:100AF000FFF7BEFE072808D0082809D004287FF495
:100B000073AFBDE81040FFF7F9BC114B18686CE7F4
:100B1000FFF7B8FC0C4BD3F80031C3F3042303FBFD
:100B2000000062E7FFF7AEFC014620461DF070FEB4
:100B3000B1FBF0F059E700BF06000E0002001E00F6
:100B4000050024000300200000400E40B8003200E1
:100B5000CC10002010B5FFF799FD094B07225A670A
:100B6000FFF790FCFFF74CFDFFF7B6FC0446FFF7DC
:100B7000ADFD01462046BDE81040FFF7BDBD00BFFA
:100B800000400E40014B1880704700BFB01300209A
:100B900010B5042813D8DFE800F047032F13210015
:100BA000294AC1F30801D2F86838002BFBD1274A43
:100BB000136A23F4FF7323F001030B43136210BD88
:100BC000214A01F07F01D2F86038002BFBD11F4A87
:100BD000136923F07F030B431361F0E71A4A01F016
:100BE0007F01D2F86438002BFBD1184A936923F0B7
:100BF0007F030B439361E2E7144AD2F89030536AC3
:100C000023F0300343F010035362146B104BC1F315
:100C1000C31003300F2803EA040328BF0F200B433F
:100C200043EA00731363CAE74F29074A28BF4F21DD
:100C3000D2F87438002BFBD1044A936B23F07F0366
:100C40000B439363BBE700BF0020C84300400E4046
:100C500000F8FF0F104A536A13F0300F18D0202904
:100C600013D0302914D000290C4B08BF4FF4400397
:100C7000D2F8901033EA0101FAD15B0246BFD2F8F4
:100C8000A000C0F38020012070474FF40003EFE77D
:100C90004FF44003ECE700BF00400E40FFF3E17F5C
:100CA00002280AD129B1064B4FF48060C3F8A8008E
:100CB000596612B10220FFF7CDBF0120704700BF77
:100CC00000400E40F7B507460C461546072800F2CF
:100CD0008680DFE800F029303C413684840401A896
:100CE00000F066FF9DF80530012B03D89DF8043015
:100CF000022B18D9002C74D14FF400410E240F237D
:100D0000474801220166A240D0F890101142FBD161
:100D1000002D64D00122424902FA03F3D1F8902059
:100D20001A42FBD15BE0FEE7002960D14FF400716D
:100D300008240923E4E700295ED180210624072343
:100D4000DEE700295CD1202104240523D8E741B93E
:100D5000082102240323D3E7002955D102210123CE
:100D6000CEE72F4A536A13F0300F51D12D4BDB6B76
:100D7000536ADB0741BF536A23F0300343F010038B
:100D80005362042602230321254A1666264A134489
:100D90009B0018680028FCD00DB311448D002B680F
:100DA000002BFCD0022F1AD1CCB11D4C616A11F07E
:100DB000010131D0012220213846FFF771FFD4F81C
:100DC0009C70012200210220FFF77CFFC7F30A017B
:100DD0000220FFF7DDFE26662B68002BFCD003B057
:100DE000F0BD4FF480460E230F210024CCE74FF4D2
:100DF000807608230921F8E7402606230721F4E737
:100E0000102604230521F0E7012600233146ECE7F4
:100E1000042602230321E8E73846FFF71BFFCEE74D
:100E200000400E4000300E408004F21010B5024623
:100E3000B8B901221146FFF745FFFFF727FC0F4B1A
:100E400004225A67FFF71EFBFFF7DAFBFFF744FBAC
:100E50000446FFF73BFC01462046BDE81040FFF783
:100E60004BBC012807D10146FFF72CFFFFF70EFC12
:100E7000024B0322E5E7FFF709FCE3E700400E40E1
:100E800038B5FFF73BFB0021044600F087FA124813
:100E9000FFF7B6FB012211460220FFF713FFFFF711
:100EA000F5FB0CB1FFF704FC0C4B02225A67FFF76D
:100EB000E9FAFFF7A5FBFFF70FFB0546FFF706FC76
:100EC00001462846FFF718FC2CB920460121BDE851
:100ED000384000F063BA38BD0148E80100400E40D8
:100EE000012210B511460320FFF7ECFEFFF7CEFB01
:100EF000084B05225A67FFF7C5FAFFF781FBFFF79A
:100F0000EBFA0446FFF7E2FB01462046BDE810403D
:100F1000FFF7F2BB00400E4010B504461120FFF76A
:100F2000A7FC002101220220FFF7CCFE184A217CF9
:100F3000536A23F00103022908BF43F001035362FF
:100F4000144B2178C3F8A014637AA18843EAC12323
:100F5000D362136BA07A217A03F07F630343E088A6
:100F600043EAC02343EAC11303310F2928BF0F21ED
:100F700043EA01731363A37B617B1B0143EA0133E3
:100F8000E17B0B43217B43EA0143536310BD00BF68
:100F900000400E400000C843034B5868C0F30800EF
:100FA000003818BF0120704700ED00E0034BD86BFC
:100FB00080F04000C0F38010704700BF00300E404A
:100FC00042EA0322B2F5007F10B5194C29D00AD8A5
:100FD000B2F5807F22D040F201139A4215D062B957
:100FE000D4F81C320BE0B2F5407F1DD040F2013343
:100FF0009A4210D0D4F8283201E0D4F82432C3F356
:101000000722DBB203600A6010BDD4F824321A0E46
:10101000C3F30743F6E7D4F82832F8E7D4F81C32D4
:10102000F5E7D4F82032EAE7D4F82032EFE700BF42
:101030000081E00F08B5FFF7B9FF20B1024AD2F8EE
:10104000C830002BFBD108BD0000C64308B5FFF730
:10105000ADFF80B1FFF7EEFF074B19685A68C1F387
:101060000121C2F3014291421A688CBF42F0100282
:1010700022F010021A6008BD00300E40064B1B68BB
:10108000DB0608D5054B1B69C3F30443082B02BFDD
:10109000034B044A1A60704700300E4000400E4077
:1010A00098100020C0EA210170B5FFF77FFF38B12A
:1010B0002D4B1A781023C2F1020293402B4A136180
:1010C0002B492C4DD1F8804145F60E03C1F88031F3
:1010D0002B6823F0AA03DB05DB0D0B66FFF7AAFFE5
:1010E000224B1B68D80604F0010415D5D1F8403115
:1010F000DA01FBD4204B1B680B61204B1B78052BBE
:101100000AD11F4B1E68FFF795FF184B59683046F0
:10111000C1F30141FFF7F0FA184B1B78023B0A2B91
:101120000AD8DFE803F00615170909090909091AA1
:101130001D000020FFF77AFE2B68DB075EBF0C4B1B
:1011400002221A661CB10A4B0022C3F8802170BD2E
:101150000120EFE7FFF794FEEEE7FFF7C1FEEBE7B4
:10116000FFF7F8FCE8E700BF3E3E002000300E40ED
:1011700000400E40B01D0020AC1D00203F3E00206E
:101180009810002010B50B4C0B4BD4F890201A602F
:101190001120FFF76DFB094B1870FFF74BFF084B51
:1011A000084A5B68C3F301431370074B22691A6056
:1011B00010BD00BF00400E40B01D00203F3E00208B
:1011C00000300E403E3E0020AC1D00200649427813
:1011D0000B6823F4407343EA0223022A0B6004BF26
:1011E000024B5B6A704700BF00300E4000400E406B
:1011F00010B5044608B1FFF7C5FFFFF727FF144AF3
:10120000136943F0040313611DF02CFC1DF02BFC4B
:10121000104B114AC3F8242403F559231B68DB063D
:101220000ED51DF0FAFA24F037FB1DF0FAFA1DF086
:101230001BFC02F033F92CB1BDE81040FFF734BFBE
:1012400030BFF4E7FFF71AFFBDE81040FFF744B9DD
:1012500000ED00E000A000400000FFFF10B50446D4
:1012600008B1FFF78FFFFFF7F1FE1A4BD3F880218B
:1012700045F60E01D207C3F8801148BF00224FF493
:101280002071196648BFC3F88021134A136943F0DF
:1012900004031361114B124AC3F824241DF0E2FB2E
:1012A000104B1B68DB060CD51DF0B7FA24F0F4FADE
:1012B0001DF0B7FA02F0F2F82CB1BDE81040FFF7CC
:1012C000F3BE30BFF6E7FFF7D9FEBDE81040FFF7E9
:1012D00003B900BF00400E4000ED00E000A0004058
:1012E0000000FFFF00300E400E4A0379916921F0A3
:1012F0003F010B43017843EA8103417843EA41030C
:10130000817843EAC103C178012908BF43F0010392
:1013100093611368417923F4403343EA0143136036
:10132000704700BF00300E402DE9F04104460D46E5
:10133000FFF73CFE60B3DFF86080FFF77BFED8F874
:101340000430C3F301439C4222D0124BD3F8003146
:10135000FFF798F8022C07464FF0100609D12146F6
:10136000FFF7CAF9C8F8106095B1BDE8F041FFF782
:1013700061BEC4F102039E40C8F810600DB1FFF7D2
:1013800059FE2CB921463846BDE8F041FFF7B4B903
:10139000BDE8F08100400E4000300E4038B50546F3
:1013A0000C46FFF703FEB8B145B90C4BD3F800511A
:1013B000FFF768F8C5F3042505FB0005084B1B780B
:1013C00021463BB1074B9D4204D80220BDE838407E
:1013D000FFF7AABF0020F9E738BD00BF00400E406C
:1013E000403E0020002D3101034B02781A7001218C
:1013F0000020FFF7D3BF00BF403E0020174B4AF646
:10140000E85210B5596B5A639A6FD407FCD41B6C21
:1014100013F0030306D0124A01249842C2F8B44ADA
:1014200005D110BD18B90E4BC3F8B40AF9E70B4B40
:101430009A6FD207FCD41A6C22F0030202431A649A
:101440009A6F12F00102FBD10038054C18BF012041
:101450000129C4F8B40A08BF5A63E2E700300E401D
:101460000000C6432DE9F04F00238BB0CDE90433D3
:10147000CDE90633CDE90833A0F5E163B3F5966F06
:1014800005460191934603D900200BB0BDE8F08FCB
:10149000624BDFF88C81D3F81842B0F5E16F15BFCD
:1014A0004FEA146AC4F3072AC4F30744E4B206946B
:1014B000CDF824A0D8F84C60C6F301768CBF012289
:1014C0000022334607A904A815BF4FF4E1674FF483
:1014D00096674FF496694FF416790392FFF770FD03
:1014E000D8F8E030039AC3F3012308A905A80293B2
:1014F000FFF766FDA5EB070CAAEB04020CFB02F25A
:10150000B2FBF9F214445445079F0498089A0599D0
:10151000BAD8A2EB010E0CFB0EFEBEFBF9FE11EBDE
:101520000E012CBF4FF0010E4FF0000E8A42ABD3DC
:10153000BEF1000FA8D13A1A0CFB02F2B2FBF9F28D
:1015400080182CBF0122002287429DD3002A9BD104
:10155000029BBBF1000F0FD0D8F85C20B5F5E16716
:1015600022F4FE4218BF012722F0020242EA47029B
:1015700042EA0422C8F85C20019A0AB9012084E7F3
:10158000264A022ED2F830223ED0032E3FD0012E22
:1015900014BFD2B2C2F30722120312F4702F7FF4E9
:1015A00073AF1F4EF46E24F470442243F2661B4A5C
:1015B000022BD2F830222CD0032B2DD0012B14BFBC
:1015C000D2B2C2F30722120312F4702F7FF45CAF81
:1015D000134CD4F8E03023F470431343C4F8E030E4
:1015E000636E884238BF084623F4FF73E72823F070
:1015F000010328BFE720B5F5E16F18BF43F00103F1
:1016000043EA40036366B9E7C2F30742C4E7120E38
:10161000C2E7C2F30742D6E7120ED4E70081E00F1B
:1016200000300E402F4B1A6FD96C11F0010F02F0F1
:10163000060242D0002A40D013284FD9143813286C
:101640008CBF102308232749013BCA6C180322F4DE
:101650007F4240EA03231343CB64234BCA6C1B88AD
:10166000C2F303222833013202EB820003EB53035F
:10167000B3FBF0F3C86C013B072B28BF072320F016
:10168000EE6040EA036343F48013CB64174BB3F975
:101690000030002B10DB2833500800EB420203EB34
:1016A0005303B3FBF2F30A6D072B28BF072322F085
:1016B000700242EA03130B657047D96C01F0010117
:1016C000114304D1092809D90A380928B8E7DB6C85
:1016D00013F00103B7D01AB92728B1E70423B2E702
:1016E0000023B0E700300E40F8390020F439002024
:1016F000064A074BD3F88039136F23F007030343DF
:101700001367044B1888FFF78DBF00BF00300E40F1
:101710000000C643F63900202DE9F041C288B0F838
:1017200008808588B0F90C6047784A2A04464FD96A
:10173000B2F5FA7F4ED340F6C3139A428CBF4FF0F6
:1017400040524FF000522849CB6C23F0405323F015
:101750000103002EA8BF43F001031343CB64D1F86B
:10176000E03043F44073C1F8E030204B1D80CB6E75
:1017700043F08073CB661E4BD3F8800900B1042080
:10178000FFF7B6FF1B4BA3F800801B4B28461E80BB
:10179000FFF748FFA37B03B3012B22D0012260880F
:1017A0001146FFF75FFE054678B10F4AD36B43F44D
:1017B0008063D3633846FFF721FEA37AA3F12002AA
:1017C000534253410A4AC2F894372846BDE8F08193
:1017D0000022B8E74FF08052B5E7034B074A9A65FD
:1017E000DCE7014B064AFAE700300E40F6390020EC
:1017F0000000C643F8390020F43900207740205714
:10180000372110B7072AF8B501F0030614461F4622
:101810004FF00F011FD8950000FA05F2A9401548B6
:101820001DF027F90321144806FA05F2A9401DF01E
:1018300020F912499DF81830114A214489000F609F
:10184000C1F880300123A340C2F824349DF81C3035
:10185000C1F80033F8BDA2F10805AD0000FA05F2A9
:10186000A94008481DF005F90321074806FA05F2CA
:10187000A940DCE700A4004008A4004080208510B7
:1018800000A0004004A400400CA4004000EB400075
:10189000F8B50D461F46040116463AB11548012316
:1018A0008B402044C7B100F1C0600360072D4FF0AA
:1018B0000F0114D8AB00104806FA03F299402044F7
:1018C0001DF0D7F83EB90B4A0123AB40224477B153
:1018D00002F1C0621360F8BD00F18060E5E7A5F198
:1018E00008039B00054806FA03F29940E7E702F176
:1018F0008062EFE70CA0004004A0004008A0004078
:10190000054B5A685B68054B41F671321A649A6858
:1019100022F001029A60704700300E4000000E4035
:10192000034B9A6822F001029A6000221A64704701
:1019300000000E40094A0A4BD969C90705D512B9FA
:101940006FF002007047013AF6E7002AF8D0012252
:101950001861DA60D86940F380007047809698007B
:1019600000000E4070B509B9002070BD0E4A00237A
:10197000082550F8234094610C4CD5600133D6699A
:10198000F60705D514B96FF00200EEE7013CF6E763
:10199000002CF8D0D469A40702D49942E9D1E3E736
:1019A0006FF00100E1E700BF00000E408096980054
:1019B0002DE9F8431C4B0D4641F671311E6C19643C
:1019C0001A49804648684968996841F00101B6B2F1
:1019D000996097084FF00009B94501D3002005E050
:1019E00008EB89042046FFF7A5FF48B10E4B9A6823
:1019F00022F001029A600EB100221A64BDE8F88359
:101A0000C4F30A01C1F500618908A7EB09039942F3
:101A100028BF19462846FFF7A5FF0028E6D18944CC
:101A200005EB8105D8E700BF00000E4000300E40F6
:101A3000234B41F671311A6C10B5196421494C6879
:101A40004968996841F00101996001211861D960E4
:101A5000D9694C0792B209D5996821F001019960C2
:101A60000AB100221A644FF0FF3010BD0221D96084
:101A70001549D869C00700D569B9D86910F00200C6
:101A80000BD0996821F0010199600AB100221A6413
:101A90006FF00100E9E70139EBE741B9986820F000
:101AA0000100986002B119646FF00200DDE79968E7
:101AB00021F0010199600AB90020D6E71864FBE71C
:101AC00000000E4000300E4080969800014B01222D
:101AD0009A60704700500E40134B1449F0B5002235
:101AE0005D68134E1046D6F8E8714C680B687F07A6
:101AF0000BD4B3F5006F06D012D8B3F5007F02D037
:101B0000B3F5806F01D144F480742B4202D02C4293
:101B100008BF18430132092A01F10801E3D1F0BDE1
:101B2000B3F5803FEEE700BF00500E405C59020065
:101B30000040E00F8B784A789B0143EA82030A78E1
:101B40001343CA7843EA02130A7943EAC2234A7963
:101B500043EA02338A79043043EA42430001014AEE
:101B60001350704700200440014B1860704700BFBD
:101B700000008442437882789B0043EA0213027893
:101B80001343C27843EA4213027943EA02234279BB
:101B900043EA0233827943EAC233C27943EA024319
:101BA000027A43EA4243014A13607047002004402E
:101BB0000D4AD2F8E430D2F8E0109B0003F03C0369
:101BC000C1F381110B438370D2F8E03003F03F037F
:101BD0004370D2F8E830D2F8EC2003F0F003C2F3FF
:101BE000031213430370704700FF0FE0044BD3F858
:101BF000E4301B0E0A3303F01F03012098407047A6
:101C00000081E00F70B5054616461C4619B9144808
:101C1000FEF7D6FE0146402C1BD003D8DCB1202CA9
:101C20001BD070BD602CFCD1042303FB06F25308CB
:101C300003EB4113B3FBF2F30A4A203B02EAC3036E
:101C40002A6822F060022A602A6814432C606B61C3
:101C5000E7E70623E9E71023E7E70823E5E700BF06
:101C600040410500F8FF7F0040F6AA63C36041F2DF
:101C700005020023036042600D4A83604361C36430
:101C800082640C4A0366904243678367C3670DD042
:101C900002F58062904205D002F58062904205D044
:101CA0008365704703658365C36570470365F7E720
:101CB000F9FF01000000014038B5044620F06EFE37
:101CC0000FCC044D0FC594E80F0085E80F000020ED
:101CD00038BD00BFB41D002047F6FF739A42F0B52F
:101CE00072D0062972D83A4B5B5C022B6ED8394D04
:101CF00005EBC304DF00A17815F83330012938BFA4
:101D00000121012B13D1E0780025401AA84202D806
:101D10000844C0B2F0BD431BA0EB5303666836F91C
:101D200013609642CCBF03F1FF301D46EEE76068BA
:101D30000028EFD0B0F90040944204DBB0F9024033
:101D40009442B8BF14468388FF2B04BFB0F9062025
:101D5000B0F908C03D440FBF01260026C8224FF04D
:101D6000280C131B93FBFCF333446E781BB29E428A
:101D700001DD002B01DA731E1BB201339BB24FF45D
:101D80007A7C071D5D1E2DB24FEAC50E00EBC5051E
:101D90009E42EA88AD6814FB025222EAE27202F126
:101DA0005C02B2FBFCF205DD37F83350954203F1DB
:101DB0000103E7D200EB0E039888904228BF10463B
:101DC000884238BF0846A4E7FF20A3E70020A1E728
:101DD000A4590200B41D00200629F0B561D8324B89
:101DE000595C02295DD8314B13F83100012816D116
:101DF00003EBC1039C78D8785B68012C214638BF7F
:101E00000121904294BFC1EB0001C1EB0201CAB2B3
:101E1000001B8242C8BF002233F91200F0BD002A25
:101E20003DD003EBC103596800293AD0987890421D
:101E300002D3B1F90200F1E7DC78B1F90000944275
:101E4000ECD95C788B88A3F1FF06013C734201F169
:101E50000405E4B2734101F10C07DEB2B44216D8B6
:101E600005EBC3034FF47A75B3F902405B686A432C
:101E7000D21A04EBD47302EB630292FBF4F29042A9
:101E8000CCDBB1F902009042C8DC10B2C6E737F8EB
:101E900033C0944503F10106E2D33346DDE704483D
:101EA000BCE70448BAE700BFA4590200B41D0020F3
:101EB0000CFEFFFF0080FFFF08B50448FFF7FCFEA3
:101EC000BDE80840012020F08EBD00BFAC590200E3
:101ED0007FB51422002101A81FF0A6FF044B029336
:101EE00001A94FF0FF3020F0BAFD07B05DF804FB08
:101EF000006A1800024B03480122C3F8002670470D
:101F00000010C84300000F40094B98420ED003F563
:101F10008063984209D10122064B03EBC2035A6841
:101F2000054B13449B0000221A6070470022F3E720
:101F300000000F40645A02008005F21010B50446FC
:101F40002369DB07FCD404F180001CF0BEFC014BCC
:101F5000236510BD510545012DE9F043064689B0C2
:101F6000174698460C4600294DD1FFF7C3FF01469E
:101F7000044630461CF0EAFD4FF0010996F86C501B
:101F800006F15C01C5F10F06C5F10E03F6B22A4653
:101F90000DF1010001358DF800301FF059FF324678
:101FA00000210DEB05001FF03FFFC6F110000123DB
:101FB0003246002168448DF80F301FF035FF1CF0C9
:101FC0002CFC04F180060546694630461CF07DFC79
:101FD0000E4B23652369DB07FCD404A930461CF0B3
:101FE00091FC28461CF01DFC424604A938461FF00F
:101FF0002FFFB9F1000F02D02046FFF785FF002028
:1020000009B0BDE8F0834FF00009B7E705510100C2
:102010002DE9F04F89B00546DDF8489016461F4679
:102020000C4639BBFFF766FF0146044628461CF004
:102030008DFD4FF0010B6B6C33446B641CF0EDFBBA
:102040008246D6B950461CF0ECFBBBF1000F0ED017
:102050001CF0E3FB05F14C01064604F184001CF082
:1020600051FC30461CF0DDFB2046FFF74DFF09B068
:10207000BDE8F08F4FF0000BDDE72B79102EB04656
:1020800028BF4FF01008012B0DD110220021684607
:102090001FF0CAFE3946424668461FF0D9FE69461F
:1020A0002046FFF74BFF394604F18C001CF00DFC75
:1020B000124B2365012363652369DB07FCD404A964
:1020C00004F180001CF01EFC04A9424648461FF0A3
:1020D000BFFE297961B9102268461FF0A5FE494666
:1020E000424668461FF0B4FE69462046FFF726FFC9
:1020F000C1444744A6EB0806A3E700BF48055903BF
:1021000070B5048804F4E043B3F5005F05461ED1C2
:10211000C4F30223042B1AD181F0AA6383F48073E1
:1021200033F47E13204821F47E1618D081F0AA6380
:1021300083F4007333F47E1311D0864230D1B4F5AA
:10214000105F0CBF6FF086006FF0850070BDB4F5B6
:10215000105F25D1144B21F47E119942F1E786429C
:102160004FEA1143C1F305411AD1B4F5105F17D1FD
:1021700004390C2911D813F001000ED1073A062AB0
:102180000BD86B88C02B0BD0B3F5807FDED0802BB3
:102190000CBF00206FF08600D8E76FF08600D5E70F
:1021A0006FF08500D2E700BF000140052DE9F04F38
:1021B000A7B0DDE93475DDF8D880DDF8EC90089241
:1021C00006461C468A4629B96FF08602104627B09B
:1021D000BDE8F08F0028F7D0309B002BF4D0329B65
:1021E00013B9339B002BEFD1002F7DD1002DEBD104
:1021F000389B002BE8D0B9F1000FE5D03A9B002BBB
:10220000E2D0399B002BDFD0338803F4E042B2F5F3
:10221000005F74D1C3F30222042A70D184F0AA6350
:1022200083F4807333F47E1306D084F0AA6383F4BE
:10223000007333F47E136BD1C4F30543319AC9F8AC
:102240000030214630460993FFF75AFF0246002826
:10225000BCD17288089BB3EBD20F4FEAD20BB3D339
:10226000379B9D425FD83A9A099B93425BD847457A
:1022700008D27B19984505D239462A4640461FF0B8
:10228000B9FD4746702200210AA81FF0CDFD5A462D
:1022900051460DF12D00CDF850B01FF0D9FD234B64
:1022A00024F47E149C423BD13388B3F5105F37D1C0
:1022B000D9F800300693399B0397CDE90483339B0B
:1022C0000293329B0193319B00932A46309B01215C
:1022D0000AA81CF056FD0246E0B9389B1D6070212B
:1022E0000AA81CF046FD71E7002D81D0B8F1000F5F
:1022F0003FF46AAF379B002B7FF47AAF64E742F27A
:102300000402934204D184F0052383F4801390E700
:10231000002393E7389900230B60C9F80030DEE70B
:102320006FF08502DBE76FF089024FE7000140059F
:102330002DE9F04FABB0DDE938A4DDE93B65894616
:10234000099298460746002800F0A280002900F074
:102350009F80349B002B00F09B80369B1BB9379BE2
:10236000002B40F09580BAF1000F02D1002C40F014
:102370008F801DB93D9B002B40F08A803E9B002B37
:1023800000F086803A9B002B00F08280359A41460F
:102390003846FFF7B5FE0246002866D17A88099BC9
:1023A000B3EBD20F4FEAD20B72D33D9B9C4272D853
:1023B000AA4509D20AEB0402954205D251462246AB
:1023C00028461FF017FDAA46702200210EA81FF014
:1023D0002BFD5A4649460DF13D00CDF860B01FF087
:1023E00037FD2E4A28F47E1800219045CDE90A11C8
:1023F000CDE90C1149D13A88B2F5105F45D1379B30
:102400000293369B01930AAF359B00932246CDE998
:102410000457349B0696CDF80CA00EA81CF0B1FC16
:102420000246C8B93A9B384603EB060C90469C45D9
:102430001FD11EB1314638461CF09BFCB8F1000F8D
:1024400020D03E9A002313601CB1214628461CF080
:1024500090FC6FF0940204E01EB1314638461CF047
:1024600088FC70210EA81CF084FC10462BB0BDE83F
:10247000F08F10F8011B13F801EB81EA0E0148EA16
:102480000108D4E73E9B1C60EBE76FF08502E8E7AC
:102490006FF08602E9E76FF08902E6E70001400588
:1024A0002DE9F04F8FB09846DDF86CA0049093466C
:1024B0000023B8F1000F16D0D8F800401029CDE95C
:1024C0000633CDE908330CBF0823102302930025FF
:1024D0005D450AD3B8F1000F01D0C8F800400020D4
:1024E0000FB0BDE8F08F4446E8E75CB1199B1A9A3B
:1024F0001B5D525D013453400AF8053004F00F04AF
:102500000135E5E7FFF7F6FC4FF440434460036014
:1025100006461CF082F9029A0499074630461CF0E0
:1025200026FA06F184031846189901931CF0CDF998
:102530003846ABEB05071CF074F927F00F0706F1DE
:10254000A0032F440593AAF11009BD4234D11A9B70
:102550003B440AAD03F1100C186859682A4603C2BF
:10256000083363451546F7D10F2F0ED90AEB070341
:1025700006AD103B0DF1280C2A4603CA62451860CF
:102580005960154603F10803F6D106F1800357445C
:102590000AEB0B0903934F4536D11CF03EF918990D
:1025A000054601981CF0AEF928461CF03AF9304671
:1025B000FFF7AAFC5D468BE71CF02FF9224B039036
:1025C00033653369DA07FCD41A9B059859191CF056
:1025D0007CF90F2D0ED90DF1180C09EB05020DF148
:1025E000280E634603CB7345106051609C4602F190
:1025F0000802F6D106A906F180001CF083F90398C1
:102600001CF00FF91035A0E774B91CF006F90E4B59
:10261000336505463369DB07FCD4039819991CF030
:1026200071F928461CF0FDF804F138030DEB0302A4
:10263000199B12F8102C1B5D0134534007F8013B25
:1026400004F00F04A7E700BF480503012DE9F74F89
:10265000DDF848A0DDE90E74DDE9106883461D460B
:10266000894621B96FF0860003B0BDE8F08F002ADB
:10267000F8D00FB9002CF5D116B9B8F1000FF1D18F
:10268000BAF1000FEED02E4B9D4215D00BD82D4B3A
:1026900025F4807199420FD003F580639D420BD0E1
:1026A0006FF08500E0E7284B9D4205D025F40071CE
:1026B000A3F580739942F2E7BBF80030B3F5105FE1
:1026C000EED1BBF80230B2EBD30FE9D3802B02D0AE
:1026D000B3F5807FE4D124B3B7420AD23B199E42BE
:1026E00007D24445BED83946224630461FF082FB09
:1026F0003746164BBBF802B09D424FEADB0BCFD1F9
:102700004445AFD814F00F05ACD1731900930122E2
:102710007B19594648461CF06DFB30B91035AC4268
:10272000F3D8CAF8004000209EE742460021304618
:102730001FF07AFB0023CAF800306FF0920093E795
:102740000010C004004040040012C00400444004D3
:102750002DE9F04F91B0DDE91A4ADDE91C56DDF8AC
:10276000789007469B46884629B96FF08608404610
:1027700011B0BDE8F08F002AF7D014B9BAF1000FFC
:10278000F3D10DB9002EF0D1B9F1000FEDD0574BB8
:102790009B4515D00BD8564B2BF4807199420FD026
:1027A00003F580639B450BD06FF08508DFE7514B45
:1027B0009B4505D02BF40071A3F580739942F2E795
:1027C0003B88B3F5105FEFD17B88B2EBD30FEBD32F
:1027D000802B02D0B3F5807FE6D1BAF1000F04D18F
:1027E000C9F800A04FF00008C1E7AC420BD204EBDF
:1027F0000A039D4207D2B245B7D821465246284621
:102800001FF0F8FA2C46394B7F889B454FEAD707D3
:1028100058D003F540739B4521D0374B9B45C3D11E
:10282000B245A2D81AF00F0B9FD140463B4608AAEA
:1028300039461CF019FB8046002898D105EB0B03A4
:102840000093002204EB0B03394608A81CF0D2FACF
:10285000804670BB0BF1100BDA45EFD8C0E7AAF148
:102860000D0AB2453FD801238DF810300DF1110249
:10287000234604F10C0153F8040B42F8040B8B427D
:10288000F9D11B7813704FF48073ADF81E300D34FE
:1028900004ABCDE900334046CDE902450023524662
:1028A0003946FFF7FDFDC9F800A0804600283FF437
:1028B0005EAF3246002128461FF0B6FA0023C9F861
:1028C000003054E7AAF1100AB2453FF64EAF04AA11
:1028D00004F1100C20686168134603C30834644592
:1028E0001A46F7D1D4E76FF0890840E70010C0041A
:1028F000004040040012C004004440047FB5094B6E
:102900006A4603F11006154618685968144603C450
:102910000833B3422246F7D12846FEF7FDFE0020D9
:1029200004B070BD745A020070B5184B86B001AA8D
:1029300003F11006154618685968144603C4083395
:10294000B3422246F7D11B882380114BD3F8B42021
:10295000120316D5A3F500434FF6FF721B8893426E
:1029600008BF4FF4B4730B48ADF80A30FDF7CCFD47
:102970002846FEF7D1FA3220FEF704F9002006B00F
:1029800070BDD3F8B830C3F30803ECE7845A0200F3
:102990000081E00F00F0490210B50C480C4C6FF0BC
:1029A0000403A02113F0800F03F1010207D1234497
:1029B0002F2A83F800131346F4D1002010BD03F032
:1029C0000F03043B034419761346EBE700ED00E0E8
:1029D00000E100E007B500F087FF6A4601F070F8FB
:1029E00018B1044852211CF0A9FADDE9000103B036
:1029F0005DF804FB965A020008B500F0A9FE18B174
:102A000002487A211CF09AFA002008BD965A02006A
:102A100008B500F04DF80D4A536A43F4E0235362C1
:102A2000EFF308830A4A043B4FF0CD31934209D2B9
:102A3000084B01221A61FFF7DFFFBDE80840064896
:102A4000FFF73AB943F80419F0E700BF00ED00E0E2
:102A50000000002000300E40AC59020007B50422EF
:102A60000DEB020100201FF076FF042804D005487A
:102A700040F267111CF062FA019800F0C1F903B04E
:102A80005DF804FB965A020010B50A0A4140074857
:102A9000C9B2082301F00104490804B14140013BD7
:102AA00013F0FF03F6D181EA020010BD2083B8EDD8
:102AB00010B5FFF711F80446FFF708F8E30721D433
:102AC00001221046114600FA01F3234002F10102EF
:102AD0001AD0214B33F811302049062B19D040F27F
:102AE0000722934212D14FF000524FF20F00548848
:102AF00084420BD11088984208D14CF23C33538069
:102B0000088010BD0021E4E7112ADBD1134A1380AD
:102B100012E04FF000534FF20F025888904218D144
:102B20001B88B3F5406F28BF4FF4C0630B804FF094
:102B300000534CF23C325A80084B1A8840F2017321
:102B40009A4201BF064A074BD2E90001C3E90001DE
:102B5000D7E74FF4C063E9E7FA5A0200FA390020D8
:102B600090100020D41D002010B504461BF05CFE20
:102B70004FF000534FF20F021C805A80BFF35F8F5B
:102B8000BFF34F8F0549064BCA6802F4E062134356
:102B9000CB60BFF34F8F00BFFDE700BF00ED00E04B
:102BA0000400FA056B4A6C4B2DE9F04155685D65F0
:102BB000516A996569496A4CD1F80002D865D1F823
:102BC00004121966916A5966D16A9966116BD966C1
:102BD000516B1967D26B586B5A67D3E90E1210F01C
:102BE000040F18BF11465F4A1A6500209142D8644D
:102BF0005DD301F12000A04259D888691864C5F35B
:102C00000805CE695E64062D55D1574DA84252D3B2
:102C1000564DA8424FD205884DF6426085424AD1B2
:102C20001868C3F890005868C3F8940040F2017027
:102C3000A242154605D22E68B6F1CD3F02F104023C
:102C4000F6D00022C3E91E22C3E92022C3E92222D2
:102C5000641BDFF814C1424DDFF810E19C648D4223
:102C60002CD8D3E91EC7D3E92065D3E922414FF020
:102C7000000E013AD2B2FF2A3BD1BEF1000F05D0BF
:102C8000C3E91EC7C3E92065C3E92241B3F8543044
:102C9000C3F30803DA1E0F2A52D8DFE802F03458D3
:102CA000414451515151514E5151515151380021CE
:102CB000C3E910112B494FF42060B9E755F8044DD2
:102CC0006445CCD37445CAD2E607C8D5284F002640
:102CD00057F8048FA045C2D00136062EF8D132B184
:102CE000013AD2B202F11E0643F82640B7E70522A8
:102CF000F8E7E0464FF0010EBC4637462E46254623
:102D00000C464146B5E740F60120BDE8F081194B7D
:102D1000DB6913F0020F40F2025318BF1846F4E7C4
:102D200040F60320F1E740F2017240F60423B0F5CB
:102D3000206F14BF10461846E7E740F60520E4E789
:102D4000013B40F607223D2B98BF1046DDE740F6D9
:102D50000220DAE700ED00E00010002000E100E0D2
:102D60000010002000000020FC000000805802003D
:102D7000741000200020054000F00CB800F00AB8E4
:102D800000F008B800F006B800F004B800F002B88F
:102D900000F000B872B61EF0080F09D01EF0040F44
:102DA0000DD0DFF850E0AEE8FF1F6FF002000CE03E
:102DB000DFF840E0AEE8FF1F6FF00E0005E0DFF83F
:102DC00034E0AEE8FF1F6FF006006946EFF30982BA
:102DD0008EE8070086460848084C854501D3A5457E
:102DE00001D384F30888FFF7DDFE84F30888FFF73A
:102DF000BBFE00000010002040000020001000205A
:102E000083B24BF6EF62002B08BF1346044A000C56
:102E100013804FF6CE2308BF1846024B1880704728
:102E2000B4130020B21300200B4BB3F90020188814
:102E3000002AB8BF80F0620042001A80074AB2F947
:102E4000001013880029BCBF83F4805383F00B0368
:102E50005900118058407047B4130020B21300206D
:102E600008B501F019F860B10A4B0344072B0DD8DF
:102E7000072B0BD8DFE803F00C060A080A0A0A043D
:102E8000C12008BDC320FCE7C420FAE7C520F8E74D
:102E9000C220F6E7FF1FFF0F054B1A782AB95B78AF
:102EA000002B0CBF0320022070470120704700BF99
:102EB0004A3E00200329F8B598BF134B054698BF3A
:102EC0005C5C0E4688BF0024032805D8DFE800F0CC
:102ED00002080B0E44F002040C4B1F684FB9F8BDFA
:102EE00044F00804F8E744F02004F5E744F08004D7
:102EF000F2E77B681A68144203D05B6831462846C3
:102F000098473F68EAE700BF225B0200081E0020E6
:102F100038B5104D2B78ABB10F4C23781BB11CF09A
:102F200044F80023237000201CF040F80B4C50B1F3
:102F300000F0D2FA002320782B700121FFF7BAFFAE
:102F40000123237038BD064B01221A70054B2278ED
:102F50001A70F7E7463E0020443E00204C3E002019
:102F6000473E0020483E002010B51BF056FC064BA3
:102F70001B7804461BB1BDE810401BF052BCFFF7A4
:102F8000C7FF2046F7E700BF433E0020094A1378F9
:102F900030B101331370084B1B78012B03D87047F5
:102FA000013B13707047054B1B780BB9FFF7B0BF9F
:102FB000704700BF4A3E00204C3E0020473E0020A4
:102FC00070B5144E1BF029FC33780546ABB900F000
:102FD000BFFB044620B128461BF023FC204670BDF1
:102FE000AFF300800C481BF0D3FB00F015FF0B4B38
:102FF0001C6000F093FC0A4B186000F0EFF91BF026
:10300000D7FF084B186001232846337000241BF0BB
:1030100008FCE3E74D3E0020081E0020DC1D0020D8
:10302000041E0020E01D00202DE9F843284A013845
:10303000135C39B1274F397801330129135404D86F
:10304000BDE8F883013B1354FAE7FFF725FF012899
:10305000044635D8DFF888801BF0DFFB98F8003095
:10306000054613B31C4E33781BB9012232701B4A3C
:103070001370DFF8709099F8003023B11BF095FFC2
:10308000002389F8003028461BF0CBFB01201BF001
:103090008DFF1BF0C2FB337805461BB100F01CFA14
:1030A00000233370002388F8003028461BF0B9FB5A
:1030B00038788442C4D02146FFF7FCFE3C70BFE75D
:1030C0000329F5D10228F3D100F052FAF0E700BF4E
:1030D0004A3E00204C3E0020433E0020473E002058
:1030E000463E0020443E002038B51BF096FB094BBD
:1030F0001B78012B054604D81BF093FB00242046C7
:1031000038BD054B1C6800F025FA044428461BF026
:1031100088FBF4E74C3E0020DC1D002038B5416000
:1031200004461BF07AFB2146054604481BF033FB9E
:103130002846BDE838401BF074BB00BF081E0020C5
:10314000054B1B68584300F57420044B00F23F20E8
:10315000B0FBF3F0704700BF041E002040420F0098
:103160002DE9FF47EFF3108772B6AFF300801EF032
:1031700087FD002871D0714EDFF8E481337823B1E8
:103180000020FFF703FF00233370FFF785FE04469E
:10319000002869D0841EE4B2012C6CD9FFF77CFEB4
:1031A0000128674CDFF8BC91054600F28E8020783C
:1031B000A84205D099F80030002B00F0B2802570AD
:1031C000207800F0B1F999F8003013B15D4B1B780D
:1031D0002370AFF3008007B962B6EFF3108772B6C1
:1031E000594B1A7852B100221A70564B20781B782E
:1031F000984203D101212170FFF75CFE534800F093
:10320000E1FA1EF04CFD05460028B7D1DFF85881E1
:1032100098F80030A3B189F80000DFF8409199F8E0
:1032200000301BB11BF0C1FE89F8005000201BF0DC
:10323000BDFE002879D000F04FF9002388F8003057
:10324000337823B10020FFF7A1FE002333702078EC
:103250000021FFF72FFE00232370AFF3008007B992
:1032600062B604B0BDE8F0873378002B96D0FFF744
:103270008DFE347092E703A9002000F0F1FA0446B5
:1032800000288BD1D8F80030039A9A4205D8012043
:10329000FFF77CFE0123337080E72D4B1D6800F0A3
:1032A00059F9039B05449D42F1D200F077F9820061
:1032B0000399264842F0020292B2CDE90042234629
:1032C000244A491B1BF078FE68E7DFF89CA09AF8B7
:1032D0000030CBB91BF066FE2078854203D099F808
:1032E0000030D3B125709AF80030002B7FF468AF1E
:1032F000194B1B7823B91BF057FE184B01221A708B
:1033000001238AF800305BE7207885423FF458AF0C
:1033100099F80030002B7FF452AF2946FFF7CAFD21
:10332000E0E72946FFF7C6FD49E7012000F0FCF879
:1033300007B962B6EFF3108772B677E7453E002013
:103340004C3E0020483E0020413E0020E41D00206D
:10335000DC1D0020692F0000493E0020443E002073
:10336000E01D0020473E0020463E002010B51BF027
:1033700054FA054B00221C781A701BF052FA00F028
:103380006BFC2043C0B210BD423E002073B5114E0D
:103390003378834204460ED000230F4DADF804303D
:1033A00058B101A8FDF712FF1E20FFF7C9FE2B68D8
:1033B0001B1A2B60347002B070BD022301A88DF877
:1033C0000530FDF703FF1E20FFF7BAFE2B6803440C
:1033D000EFE700BFEA130020101E002073B5284C51
:1033E000002501A8636A636A8DF80450FDF7FCFFAD
:1033F0002846FFF7CBFFD4F8903003F00403AB422C
:10340000204B14BF01222A461A70D4F890301E4C6B
:10341000C3F30033237005D04FF41670FFF790FE0E
:103420001A4B186023781A4DEBB11120FDF7C8FA3A
:103430001349D1F80031C3F3042303FB000292B116
:103440004C6C144EC4F30B44002301341946501E37
:1034500004EB8404E4FB060105F074F9FFF770FE49
:103460002B6803442B606420FFF76AFE2B6803443B
:103470002B60034BD3F89020074B1A6002B070BD4D
:1034800000400E40503E00204E3E0020181E0020FE
:10349000101E002040420F000C1E002008B50B4BF0
:1034A0001B7893B1022000F089FC70B100F008FA9B
:1034B00058B1002201210220FDF704FC1BF0BFFDE2
:1034C000034B1860034B01221A7008BD503E0020C8
:1034D000141E00204F3E002038B50E4C0E4D2378B0
:1034E0002BB92B781BB11BF0AAFD0C4B18601BF0FD
:1034F000BEFA2B786BB10A4AD2F890301B07FBD585
:103500001BF09DFD054B1B68C01A064B186000237D
:10351000237038BD4F3E0020503E0020141E002076
:1035200000400E40181E002002280AD003280BD0AD
:1035300001280CD1064A136923F00403136130BF3C
:1035400070470020FDF754BE0020FDF787BE70478E
:1035500000ED00E0044B1B680BB103EBD303034AFF
:1035600010681844704700BF181E0020101E00206D
:10357000084B45F60E02D3F88011C3F88021064AA5
:10358000126802F4A0721A66CA0744BF0022C3F888
:103590008021704700400E400C1E0020014B18781F
:1035A000704700BF503E002038B500F0A5FB094C25
:1035B000094B1A6823680025C31A2AB123B151693F
:1035C000994203D3C91A5161206038BD55615B1A15
:1035D0009268F2E7201E0020241E0020C38870B5E8
:1035E00004460D463BB9FFF77FFD8542064602D2F1
:1035F0001BF0CCFC35460E4965610B688BB90C603D
:10360000A3600DE0AD1A9A68656118466AB1134669
:103610005A69AA42F6D930B18460521BA3605A613C
:1036200070BD0020F4E70C60F7E79C60A260F7E74C
:10363000241E002038B5134D2B685B6993B1124AE4
:10364000146802201C4400F08BFB204600F05AFB5B
:103650000E492A6800230B70D088800709D5012302
:103660000B7038BD022000F07BFB022000F09EFBB7
:10367000EEE79268002AF4D050690344012BEBD99D
:10368000EFE700BF241E0020201E0020523E002035
:1036900070B516469DF814200271049A0260C0E9C4
:1036A00003360022BDF81830826004460D46C38000
:1036B000EEB900F021FB2844A0619DB12E461BF01D
:1036C000ACF80546FFF770FF31462046FFF786FF4E
:1036D000104B1B68A34201D1FFF7ACFF28461BF03B
:1036E000A0F802E0E36865617BB9002070BD00F0DE
:1036F00003FB3044A061002DE0D1E3686561002B3D
:10370000DDD0216820469847D9E7216820469847B0
:10371000EBE700BF241E00200C490B6800227BB1A0
:1037200083420AD183687AB1936083681BB15A6976
:1037300041690A445A61002070471A469B68EEE7C7
:103740000028EFD0022070470B60EEE7241E002017
:1037500070B5154E1BF06CF834780546FCB9134B68
:103760001C60134B1C60134B1C8000F081FA01207D
:1037700000F0F6FA00F04AFB0F4B0246186020B941
:1037800028461BF05BF8232070BD23460B4840F20F
:10379000E73104F0D7FF0A4B186001233370284645
:1037A0001BF04CF80020EFE7533E0020241E0020C1
:1037B000201E0020FC390020281E002018FCFFFFDE
:1037C0001C1E002070B5044640B31BF026F8144EB2
:1037D0000546FFF7E9FE3068A04209D02046FFF712
:1037E0009BFF0446B0B128461BF01BF8204670BD75
:1037F000FFF792FF04460028F5D133683BB9022059
:1038000000F0BCFA28461BF00CF80024EEE7FFF7A6
:1038100011FFF7E73368002BF4D1F0E72224E5E746
:10382000241E002038B50C460546A8B1A1B10023DE
:103830000B701AF0FDFF094B1B68012133B91AF018
:10384000FDFF002038BD9D4204D121702278002A5E
:10385000F9D0F4E79B68F1E72220F3E7241E00206B
:10386000F8B506460F461AF0E3FF134B1B680446F3
:10387000002523B920461AF0E1FF1B2011E05A6908
:103880001544DA88B2420DD10C4E00F035FA336897
:10389000C01AA8420AD3002320463B601AF0CEFF8C
:1038A0000020F8BDFF2EEFD09B68E2E700F024FA7D
:1038B00033682B441B1AEFE7241E0020201E002033
:1038C00008B5074B187848B11BF0B9FB054B1B68CE
:1038D0009B69C01A02288CBF0020012008BD00BFD0
:1038E000523E0020241E002070B51AF0A1FF0646AB
:1038F00000F002FA084B1D8804460120ADB200F02A
:103900005DFA18B100F0F8F90135044630461AF0B6
:1039100095FF2046294670BDFC390020014B1868F0
:10392000704700BF281E002038B5074B1D680446AD
:10393000002140F2E7304FF47A720023E5FB0401E6
:1039400004F000FF38BD00BF281E0020F8B50C4B66
:103950001B68834205460E460FD30A4B00241F689E
:1039600040F2E73021464FF47A720023E5FB07016D
:1039700004F0E8FE30602046F8BD2120FCE700BFDF
:103980001C1E0020281E00202DE9F04186B098461C
:1039900000230D4617468DF81330064680B30DF10F
:1039A0001301FFF73FFF9DF813305BBB05A92846C5
:1039B000FFF7CCFF0446F8B9134B18684FF47A723E
:1039C0000023A5FB000104F0BDFEC2F57A7189B2A7
:1039D000B1F57A7FBDF83430F48308BF0021B1839C
:1039E000059A02939DF830301146CDE900833046A8
:1039F0003B46FFF74DFE0446204606B0BDE8F08189
:103A00002224F9E70224F7E7281E0020F0B50C462F
:103A100087B016461F46054630B305A92046FFF776
:103A200095FFF8B9114BE8831B685C434FF47A7338
:103A3000B4FBF3F203FB1244191B89B2994208BF8D
:103A40000021A9832846FFF7BDFEBDF83430059A52
:103A500002939DF830301146CDE900732846334675
:103A6000FFF716FE07B0F0BD2220FBE7281E00205E
:103A7000014B1868704700BF1C1E00200F4B1A68CE
:103A800010B59AB1531E4FF47A711342A0FB010195
:103A90000ED1B2FA82F2C2F11F04531CE040D243AD
:103AA00001FA03F3184321FA02F20243104610BD53
:103AB000002304F047FE0246F8E700BF281E00205E
:103AC00038B5154B8342154B8B41144621D3144B0B
:103AD0001A68F2B14FF47A75A0FB050305FB0131BA
:103AE000531E134211D1B2FA82F2C2F11F05531CC8
:103AF00001FA03F3D243E84021FA02F218431043DB
:103B0000E940C4E90001002038BD002304F01AFE9A
:103B1000F7E72120F8E700BFEFA7C64B3789410040
:103B2000281E0020C2072DE9F84304460BD5474A5A
:103B3000138801339BB21380FFF736FD444B1B689B
:103B40000BB1FFF777FDA3077DD51AF071FE05468F
:103B5000FFF72AFD4FF000083D4F46463C680CB188
:103B600063698BB13B4B0022012E1A7003D118F010
:103B7000020F18BF1E70002C61D0FFF75BFD2846B6
:103B8000BDE8F8431AF05ABE23465A693AB91A7981
:103B90002179914288BF1C469B68002BF5D12846AD
:103BA0001AF04CFE2569DDB100F0A6F8A269A0EB81
:103BB00002084FEAE873A84573F1000311DB23699B
:103BC0001344A361E368B4F80680013613B1216899
:103BD000204698471AF02CFE0546FFF7E5FCBDE7A6
:103BE000A8461AF025FE81462046FFF795FD484677
:103BF0001AF024FE2369002BE4D0A38BB5EB080553
:103C000033B1E28B13449BB2B3F57A7F0FD2E383D7
:103C10001AF00EFE294680462046FFF7DFFCA36916
:103C200022691344A36140461AF008FECAE7A3F5CF
:103C30007A73E383A369013B013DA361E8E70220B6
:103C400000F09CF89BE7BDE8F88300BFFC3900203A
:103C5000241E0020513E002010B51AF0E9FD034B50
:103C60001C781AF0EBFD204610BD00BF513E00202D
:103C700010B51D4B86B01868596803AA03C2197A9B
:103C8000D3F8090011700190B3F80D201748DB7BC1
:103C9000ADF8082001218DF80A300024FCF73CFD26
:103CA00003A88DF80C408DF81040FDF763FF01A9C3
:103CB00001208DF80440FDF73DFF0D4A536A23F4BF
:103CC000FF6323F00703536240F2FF731362012086
:103CD0009460FDF749FF074B4FF00042C3F8802185
:103CE0001A6006B010BD00BF265B0200A0091400D8
:103CF0000020044000E100E0014B9868704700BFDD
:103D00000020044010B504461AF087FD124A93685B
:103D1000516D9269520704D4CA1A032A01D89942F4
:103D20000DD1E21A022A98BFDC1C0B4BB4F1FF3F05
:103D300038BF013C5C655A6A42F004025A621AF0CC
:103D400070FD064A137833B103490B6D43F002034B
:103D50000B650023137010BD00200440EB130020FE
:103D60008207054A00F00103516A48BF43F004038B
:103D70000B435362704700BF00200440820700F0ED
:103D8000010309D5074A0121117007490A6D22F084
:103D9000030243F004030A6503494A6A22EA030363
:103DA0004B627047EB13002000200440830742BFA2
:103DB000014B0422DA61704700200440064B0128C1
:103DC0009B6904D0022805D1C3F38000704703F03B
:103DD00001007047002070470020044010B51AF021
:103DE00027FD094A93690446590703F0010003F0CF
:103DF000070348BF40F002001362FFF793FE20461E
:103E0000BDE810401AF01ABD002004400148FCF73C
:103E1000D7BD00BFA00914000A4BD3F8883003F0C7
:103E20000703013B012B10B50BD81AF0F6FC01215A
:103E300004460220FFF7F8F82046BDE810401AF0CB
:103E4000F0BC10BD00400E401F282DE9F34105468F
:103E500004D82C46204602B0BDE8F0810B4E0C4F32
:103E6000DFF8308000240023CDF8008038681A463F
:103E700019461EF02FFB8442EBD2202CE9D056F8D5
:103E8000043BAB42E6D00134EDE700BF0C5E02001C
:103E9000C8100020FFFF0F002DE9F04F644E654D64
:103EA0003168286889B005F07BFF0446002827D0D8
:103EB00033689A69D3E900011268904733689B69B7
:103EC00004A89B68984733689B690220DB68984781
:103ED0000024326805985368B3FBF0F3E7B2BB42A5
:103EE000916904F101044DD8CB68002098473368EC
:103EF0009B695B6898473168286805F051FF044664
:103F0000DFF84C914C4FDFF84C81DFF84CA10026D4
:103F1000F4B94A4B28689B5D002B00F08380D7F8EA
:103F200000B002AB03AA594606F07CF9504507D011
:103F300070B9039B012B0BD02868594606F0B6F9DF
:103F4000D9F8003028681A68594606F09BF80446EC
:103F50000136202E09F1040907F1040708F10108D0
:103F6000D6D1374AB4FA84F35B0913702B681B7CF3
:103F700023B134484FF48B711AF0E0FF204609B0AA
:103F8000BDE8F08F12680B6907FB00209847A0E797
:103F90003B6803AA194402AB019106F043F950456E
:103FA000019903462ED028682BB30BF1010B009B1F
:103FB00028685FFA8BF19942EAD3234B9B5D002B73
:103FC000C6D0DDF800B028685FFA8BF37E2BBFD82F
:103FD000396802AB594403AA009106F023F9504511
:103FE000B6D00099286806F061F90BF1010B044680
:103FF0000028E8D0ACE7039B7BB998F80020029B2F
:104000009A42D2D098F80030D9F80020286805F0FC
:10401000A1FF0028C9D00446CFE7019106F046F978
:104020000199EFE7094B9B5D0093A346BFE700BFF3
:10403000A8100020C81000200C5E0200EA5D0200FB
:10404000543E00208C5E0200CA5D02008A5D0200C0
:10405000385B0200AA5D02000BE000F0F8B50D46E7
:1040600016461F46FFF7F0FE1F2804461CD8174BC4
:104070001B780BB3164B1868164B53F82410164BCD
:104080001B5D3BB1324606F049F80446A0B11AF078
:10409000FAFF12E07F2D08BF00253B46324651FA59
:1040A00085F105F0A1FFF0E7FF2808D981B23B4672
:1040B000EAB230461AF05EFF00242046F8BD0748F9
:1040C0004FF4A6711AF03AFFF6E700BF543E002005
:1040D000C81000200C5E0200EA5D02008C5E020047
:1040E000F8B50D4616461F46FFF7AEFE1F280446DC
:1040F0001CD8164B1B7803B3154B1868154B53F897
:104100002410154B1B5D3BB1326805F0BBFF044624
:1041100098B11AF0B8FF11E07F2D08BF00253B468B
:10412000324651FA85F105F015FFF0E7FF2807D96F
:104130003A46314680B21AF026FF00242046F8BDE8
:1041400006484FF4C3711AF0F9FEF6E7543E00201A
:10415000C81000200C5E0200EA5D02008C5E0200C6
:1041600010B5FFF771FE0A4B1B7813B900242046E7
:1041700010BD084B53F82010074B0022186806F0BA
:104180000BF804460028F1D01AF07DFFEFE700BFDE
:10419000543E00200C5E0200C810002073B5164685
:1041A0001D46002B73D04BF23463984210D1082D7A
:1041B00028BF082537492A4630461DF049FE3649B2
:1041C0002A4630461DF006FE30B3002002B070BD16
:1041D000C9B27F2980B208BF0021984218D17F223E
:1041E00041F20201684608231AF0C4FE2A49082257
:1041F00068461DF0EFFD30B908237F2241F2F0112F
:1042000068461AF0B7FE6B4603CB30607160DCE79E
:1042100041F2F01398421ED1204B701ED3F8F010DB
:10422000D3F8F4202C1F2B46013B9C4200F8011FC1
:104230004FEA11210CD1002CC7D00423D9B2072991
:10424000F2544FEA1222C0D001339D42F6D1BCE7AE
:10425000002BE9D1B9E700F47043B3F5805F0AD1D0
:10426000C0F30B0404F17E642A4605FB014130468D
:104270001DF0EEFDA9E700F46043B3F5005FA4D1A3
:10428000C0F30B0404F17E6404F58044ECE72120C4
:104290009CE700BF0200E00F5E5F02000081E00FBC
:1042A0002DE9F8431646C20704460F4604D52A48AE
:1042B00040F2D3111AF042FEF30704D526484FF41A
:1042C000EA711AF03BFE04F47043B3F5805F24D129
:1042D000C4F30B04214A04F17E64731E2344934209
:1042E00015D82546DFF8709005EB0608A84529D1BA
:1042F00056B17208394620461AF0DDFE20B1164844
:104300004FF402711AF01AFE0020BDE8F88312483B
:1043100040F2D9111AF012FEE3E704F46043B3F55A
:10432000005F06D1C4F30B0404F17E6404F58044FD
:10433000D7E709484FF4F0711AF000FE6FF00F054F
:104340000024CFE715F8013BFF2BCFD04FF4F571D8
:1043500048461AF0F3FDC9E7F25E0200FF07E00FDE
:10436000836970B513F00106044603F0020509D114
:10437000EDB9C3695BB30EF041FFE3692046BDE8C8
:10438000704018471DB11B489B211AF0D7FDA0694A
:10439000C0F381001CF03EF8E3691BB91548A32166
:1043A0001AF0CCFD20460EF029FF4DB916E0C3F3FC
:1043B00007201CF041F8E369B3B120460EF01EFF60
:1043C000E369607E9847BDE870401CF029B8094851
:1043D000A3211AF0B3FD20460EF010FFE36920463A
:1043E0009847002EEFD170BD0248A3211AF0A6FD18
:1043F000E3E700BF6E5F020008B50FF099F828B13F
:10440000BDE8084002483F211AF098BD08BD00BF32
:104410006E5F020010B5064C0460064CC2610023BA
:10442000C0E9014303610123C160836110BD00BF86
:104430002C1E002061430000826938B502F002039F
:10444000D20704460D4620D553B9FF2921D1A369CF
:1044500013F00C0F17D01148FC211AF06FFD12E079
:104460000E48ED211AF06AFDFF2DF0D028461BF012
:1044700012FCFF28054603D10848F5211AF05EFD1D
:104480002DB204EB4514204638BDFF29FBD0002B8C
:10449000ECD10248F2211AF051FDE7E76E5F02000D
:1044A00001481FF03ABB00BF2C1E002001481FF03E
:1044B00040BB00BF2C1E002008B506481FF002FBC1
:1044C0001AF064FE1DF018FC1DF028FCBDE8084041
:1044D0001DF027BC2C1E0020022808B503D11AF0BD
:1044E0000FFD014B186008BD5C1E002008B506F0EA
:1044F0005DFC074B012018701AF056FE02201AF0DE
:1045000053FEBDE8084003490348FEF707BE00BF5D
:10451000563E0020D4100020601E002038B50E4BFF
:104520001C786CB9204638BD1BF0C8FA04280FD09F
:104530001BF0C4FA05461BF073FF052D0AD0F1E706
:1045400000201BF067FF28B91BF0B8FA0228EBD156
:104550001BF066FF0024E5E7EC13002008B5074BCD
:104560001B780BB1002008BDFFF7D8FF0028F9D158
:1045700000F0D6FE023818BF0120F4E7553E0020B7
:1045800070B50FF03DF80446FFF7E8FF14F0070F91
:10459000204D0CD158B10FF033F810BB4FF0FF3461
:1045A000FFF77EFF844228BF0446042C1DD82B78D9
:1045B00023B901201AF0F8FD01232B701AF002FE36
:1045C000044628B32B781BB91348F9211AF0B6FC1E
:1045D0000EF07EFF0446FFF763FF844228BF0446C7
:1045E00016E00EF075FF0446DAE720461AF0ECFDFF
:1045F0000028DCD02B785BB11AF00FF900210646B9
:104600000120FEF711FD30461AF00BF900232B7044
:10461000204670BD563E0020E15F02001FB5FFF747
:10462000AFFF0446FFF724FAA04228BF204688B116
:1046300003A9FFF78BF9034638B9CDE90000064A14
:10464000039906481AF0B8FC18B1054892211AF0EF
:1046500075FC012004B010BDA7F101003C1E002034
:10466000E15F02002DE9F34102AB03E906000446D5
:1046700090460EF0A9FE054620460EF0B5FE384FD6
:104680009DF80060374BFDB1202C98F8002033F8DE
:10469000141037F8140008D9814253D34FF6FF7233
:1046A00091421DD102B0BDE8F081012A32D802EB5F
:1046B00042122D4822444FF6FF7530F81210A942DD
:1046C00002D0013120F8121033F8141037F814001A
:1046D000814237D34FF6FF7291424FF0010502D06D
:1046E000013123F8141004F0FD02092A2CD19A8A12
:1046F000B98A32448A42B4BF9A82998233F814301C
:104700008342CFD3002DCDD1204602B0BDE8F04189
:104710001AF0CDBF022AD7D1134A32F814104FF63F
:10472000FF70814204F121001CBF013122F81410F6
:1047300032F810104FF6FF75A9421CBF013122F864
:104740001010C1E70025CBE71D2CD7D15A8F911946
:104750008142BDBF02F1FF32B6185E875887CDE7B0
:10476000823A0020D43A0020FE390020024852222A
:1047700000211DF059BB00BFD43A0020024852224C
:10478000FF211DF051BB00BF823A0020034B1B6884
:104790001878012808BF0220704700BFF41F0020CE
:1047A00001480EF083B800BF263B002070B5094ECB
:1047B000094D0A4C337821782A7803F02FFF002323
:1047C00033702B702370BDE870400548FF211AF04C
:1047D000D6BC00BF733E0020683E0020693E00202A
:1047E000681E002008B51048FF211AF0C8FC0F4BC6
:1047F0001B7813F020000CD000F068FB1FF007FDC1
:104800000120FFF7D3FFBDE808404FF480601BF0A4
:10481000BDBDDB0603D5BDE8084000F05FBB01214C
:10482000B4201AF0D7FFECE7681E0020733E00208A
:10483000024A03480021FFF7EDBD00BFE547000035
:10484000681E002008B5054B1B7823B19420FFF7A4
:10485000ADFF002008BD7020FCE700BF733E0020C4
:1048600010B5184C2378DA0625D51E280ED06528F9
:104870000CD0032820D143F020032370BDE8104062
:10488000114841F28832FF211AF068BC23F020035E
:104890002370FEF7C9FA4FF4FA63B0FBF3F202FBA0
:1048A0001300C21892B20848FF211AF057FC23786F
:1048B00023F01003237010BD1FF0A9FCAE20FFF7FA
:1048C00075FFF4E7733E0020681E002030B53B4CB6
:1048D0002378DD1F012B8FB0EDB255D0042B53D0C0
:1048E000032B41F6041252D0991F4B424B415B00FF
:1048F00013433348ADF80C301AF0E1FE48B9314BA0
:104900002F4A03F1100153F8040B42F8040B8B42B9
:10491000F9D12378032B3CD0062B3AD02A4B0DF14A
:104920000E0203F1100153F8040B42F8040B8B4202
:10493000F9D103A816F0B4FBB72804460BD1012D1A
:104940001FD8BDF80C3003A823F40053ADF80C3089
:1049500016F0A6FB0446A4B9302016F07BFA0446F4
:1049600078B91AF0C7FE012D0BD8184A10685168A3
:1049700001AB03C32246164901A81CF0D7FAA0B127
:10498000182420460FB030BD43F60412ACE70223D2
:10499000AEE70B4A0DF10E0302F1100152F8040BC1
:1049A00043F8040B8A42F9D1C3E70549224601A81E
:1049B0001CF0BCFA0028E3D1E3E700BF733E0020FF
:1049C000583E0020536002006460020075600200DF
:1049D0007E6002001FB50446252011F039F91C2223
:1049E00000210D481DF020FA0C4B1878FFF7CEFE81
:1049F000022814BF0123042303208DF800301FF088
:104A0000D2F804238DF808306846054B01940393CF
:104A100000F0ECF904B010BD881E0020733E0020A9
:104A2000CD4B000008B50E490A78531CDBB2072BAA
:104A30000B7001D0092B04D19420FFF7B7FE94200E
:104A400008BD02F0FB02032A07D1064B18680028B4
:104A5000F2D0FFF7BFFF3D20F2E70020F0E700BFF4
:104A6000733E0020DC10002070B5154C154E2368F5
:104A70003268134321D0144B1B68F3B1134D2B78CC
:104A8000DBB91BF01BF890B94FF480601BF041FCC0
:104A9000246844B101232B7000F018FA2046BDE8C9
:104AA0007040FFF797BF042334682B70F4E7BDE82C
:104AB00070400121B4201AF08DBE702070BD00BF7F
:104AC000E0100020DC100020F41F0020733E0020C6
:104AD00070B5214D287838B12049214808221DF0B1
:104AE00079F9003818BF01201E4C261D07E01B492C
:104AF0001B4808221DF06EF9003818BF0120227AE9
:104B00002368D340DB0700D558B1304611F06CF86C
:104B1000E8B92B78002BEAD1227A2368D340DA0750
:104B2000F3D5114B1878FFF731FE012303220F490B
:104B300010F0B6FB0E4A13780133137058B1BDE87C
:104B40007040FFF733BEBDE8704000F013B8FFF7C8
:104B500069FF0028F7D070BD723E00206A3E002039
:104B60009A1E0020881E0020733E00208C1E00200C
:104B7000683E002008B5FFF7A9FE88B90F4B1B78E7
:104B8000032B12D89BB10E4B0E481B6840F8043B18
:104B900011F008F868B1BDE808400120FFF706BE33
:104BA000FFF740FF0028E6D008BD072BEBD0064BEF
:104BB000EAE7BDE80840FFF78BBF00BF733E002067
:104BC000E0100020881E0020DC10002010B5134CDF
:104BD000237813B3838913F4407F1ED00368E3B9AD
:104BE00011F030F80E4B187018B1BDE81040FFF707
:104BF000C1BF2378062B06D8032B06D9BDE8104089
:104C0000AB20FFF7D3BD082BF8D004232370054B4E
:104C1000BDE810401868FFF7DDBE10BD733E0020F0
:104C2000693E0020DC10002030B5394D2B7887B06C
:104C300004462BBB01A81BF0EBFE022301A88DF854
:104C400004301CF0BBF8B0B9324901A81CF01DF9C2
:104C500088B1902C0FD1FEF7E7F847F23153B0FB43
:104C6000F3F202FB130000F51C50103080B200F08C
:104C700035F907B030BD912CFBD100F05BF9F8E7B6
:104C8000902824D1032B11D0062B0FD0224B1B7858
:104C9000DA070BD401A816F0FFF818B9BDF80430F4
:104CA0009B0703D42B7843F010032B70FEF7BCF85E
:104CB0004FF4FA63B0FBF3F202FB1300C21817487B
:104CC00092B2FF2107B0BDE830401AF047BA0EF0AB
:104CD000F5FB0028CDD12B78013B072B11D81048CC
:104CE00010F082FF40B1FFF79DFE0028C1D107B050
:104CF000BDE83040FFF73EBF07B0BDE83040FFF7EA
:104D0000E7BEAE2007B0BDE83040FFF74FBD00BFA3
:104D1000733E00207E600200573E0020681E002087
:104D20008C1E00201FB50F4C2478C4B142EA032228
:104D30009DF818308DF8051042EA43220A4BADF871
:104D40000C201A78094B8DF8061003EB0213079913
:104D500000908DF80400DB6802916846984704B023
:104D600010BD00BF743E0020763E0020A41E00202F
:104D700073B51A4D1A48FF211AF001FA2B7853B374
:104D8000184C194E2378180106EB0313305C1A7A7D
:104D900059680EF039FF4D281DD0E0B1227801236B
:104DA0000021CDE900311201C0B2B25CFFF7BAFFB9
:104DB00023780B4801330A22DBB2B3FBF2F102FB8A
:104DC000113323702B78FF21013B2B7002B0BDE81B
:104DD00070401AF0CCB902B070BD00BF743E002024
:104DE000441F0020763E0020A41E0020F8B5104F7E
:104DF0003E780A2E1AD00FC8DFF840C00D4D9CF83F
:104E0000004005EB0415013485E80F00E4B20A23E5
:104E10000948B4FBF3F2013603FB1244FF218CF87E
:104E200000403E701AF0A3F90020F8BD0120FCE715
:104E3000743E0020A41E0020441F0020753E002068
:104E4000024A03480021FFF7E5BA00BF714D000098
:104E5000441F002037B5134D00232A78CDE90033D5
:104E60000C461201104901238A5C01462046FFF7D7
:104E700059FFA4B90D490A788AB12B7801330A2069
:104E8000DBB2013AB3FBF0F400FB143308480A70BC
:104E9000FF212B7003B0BDE830401AF068B903B0B1
:104EA00030BD00BF763E0020A41E0020743E0020CE
:104EB000441F002008B5032015F00AFA10B9024B70
:104EC00001221A7008BD00BF773E0020024B00226D
:104ED00018781A70704700BF773E00200246FF2105
:104EE00001481AF03BB900BF641F00200D4B1B782E
:104EF00010B583B90C48FF211AF041F9FFF7DAFF2A
:104F0000044640B1094B1B78DB0604D51FF07FF93E
:104F100020461AF0D6FB064BBDE810401868FFF794
:104F2000DDBF00BF773E0020641F0020733E0020DD
:104F3000E41000200148FF211AF021B9641F00206D
:104F4000054B1A7808462AB1032984BF00221A703B
:104F5000FFF786BC704700BF773E0020024A034837
:104F60000021FFF757BA00BFED4E0000641F00207C
:104F7000014B1870704700BF783E0020024B186844
:104F800000B14068704700BF841F00200B4B1B68B6
:104F900070B5044600257BB11E88002107E05A68E1
:104FA00002EB0110013145B9021B554255418AB24D
:104FB0009642F4D89B68EEE7184670BD841F002027
:104FC0002DE9F04F93B01E469DF874300593022EE4
:104FD0004FF00003DDF87090DDF880A0ADF81E30D2
:104FE00007468846144640F2B48099F800305A07C4
:104FF0002AD5042E40F2AD8099F804B0594B002513
:1050000033F83520002A00F0AA8001350A2DF7D1A7
:10501000BAF1000F40F0A180FF25002320798DF820
:105020001D3008AA0DF11D011BF093F978B1BDF8F0
:105030002C309DF81D0023801BF0ECF98DF81C002E
:10504000A0B113B0BDE8F08F99F802B0D6E720798F
:105050001AF021FE00287ED120791BF0EDF98DF8A1
:105060001C000028EDD1404B5B88238062884FF6FE
:10507000FF73002F08BF4346CDE90023002123889A
:10508000059A584601F042FB18B1E38843F020032B
:10509000E380059BCDF83C9007A90DA8CDE90DA4B0
:1050A000ADF84080ADF842608DF844708DF8453021
:1050B0001BF05DF910B19DF81C00C2E7484601F0F5
:1050C00079FAA01D01F064FA2246414638461BF0E9
:1050D00025FBB04208D274238DF81C30BAF1000FC2
:1050E00032D11BF09DF9E6E79DF87C300393BDF8C3
:1050F000783002930DF11E03CDE900932246F3B2FE
:10510000414638461AF0EDFB8DF81C00BAF1000F4D
:105110000FD070B9BDF81E203AB1092D05D8134B38
:1051200003EBC50143F835A08A8011201BF0F1F88C
:10513000D7E7BA2808D1E388DB06D2D500230120BF
:105140008DF81C30FFF714FF9DF81C30002BC8D1E0
:10515000EBE7012075E7A32073E7B42071E7EDB218
:105160005BE700BF8C1F0020D81F0020881F002095
:1051700010B500201BF04EF90B4B1B6863B158783B
:10518000052807D860B904460EF018FB20460EF03B
:105190004BF901E0FF2803D0BDE810401BF040B9F7
:1051A00005240220F0E700BFF41F002013B5124CC5
:1051B00000201BF02FF923689BB101A81AF0BAFC5C
:1051C00078B923681A789DF804309A4209D0D91E1C
:1051D000032906D9D11E012903D9012A07D1022B9F
:1051E00005D1032301A8ADF8043010F00FF902B087
:1051F000BDE810401BF014B9F41F00200023044A3E
:10520000194601330A2B918042F8081BF9D17047E7
:10521000881F002030B50D4685B004460FF022FEF1
:105220008DB10A4B1A889B788DF80E300323ADF8A8
:105230000C200093002203AB36214FF6FC708DF852
:105240000D401BF060FB05B030BD00BF8E6002005A
:105250002DE9F04F85B080468946BDF838A00F9EF5
:10526000BDF840102C481F461546002330F8332067
:105270008A4246D1294A52F833B0002330F83340ED
:105280008C424FEAC30242D1244900200A4441F82B
:105290003300908047B92B8833B9B5F90230002B21
:1052A00002DB08201BF035F801201BF06FF89EB1DF
:1052B0003478E30710D514F0040004D052460121DD
:1052C00030461BF08BF8CDE90170009653462A4614
:1052D000494640461AF022FDBBF1000F06D0CDE949
:1052E000006753462A4649464046D847CDE90067FD
:1052F00053462A464946404603F00CF905B0BDE83E
:10530000F08F01330A2BB1D14FF0000BB5E7013319
:105310000A2BB3D1BEE700BF8C1F0020881F0020DE
:10532000014B1878704700BF793E0020F8B506465B
:105330000C461BF00CF80546B0B930461AF0ABFC31
:1053400098B90B4B1F7B87B95A8822809A88628054
:105350009B7923710121304600F018FA39466071BB
:10536000304600F013FAA07101252846F8BD00BFB1
:10537000D81F002070B504460E4615461AF08BFC67
:1053800010B14FF6FF7070BD084B1A7B002AF8D1A0
:1053900046B901222946204600F01AFA0028F0D02A
:1053A0000088F0E7012EECD1F4E700BFD81F002001
:1053B00013B5FF230DF1070104468DF807301AF0ED
:1053C000C4FF18B19DF8070002B010BD074B03EBF6
:1053D00004131B7B0BB1FF20F6E7204600F07EF89C
:1053E0000028F8D0204600F0CBF9EDE7D81F0020C8
:1053F00008B500F0A1FCFFF701FF00F051F8022111
:10540000084601F04BFAFFF7B3FE094B41F249029F
:105410001A80084A52231380074A4FF40040138031
:105420001DF0B0FFBDE8084000201EF0EDBB00BF3E
:10543000E4130020E0130020DE13002001490822BD
:105440001CF0D8BC03410020064A0123D15C8142F4
:1054500002D1054AD05C704702335D2BF6D10020A3
:10546000704700BF906002009160020070B50A4B67
:105470001D780A4B04460022D0B2854201D8FF2095
:1054800070BD1E78A64204D10029F9D05E7BF607D4
:10549000F6D401321033EFE77A3E0020D81F002007
:1054A000084B01221A70084B4FF482711A709A71DE
:1054B000064A59809A600A214FF4807299809A8135
:1054C000704700BF7A3E0020D81F0020FC60020019
:1054D000014B1878704700BF7A3E0020034B03EB66
:1054E0000013587B00F00100704700BFD81F002058
:1054F000044A054B821A92105A43044892B2012181
:105500001AF041BB54610200ABAAAAAAEE600200E5
:10551000044A054B821A92105A43044892B2012160
:105520001AF031BB04610200CDCCCCCCF460020097
:105530002DE9F04F8DB0DFF81C8202939DF85830B2
:105540000793804B06911B7808EB0313054616461C
:105550000A934FF000090A9B984501D1862068E024
:105560002B780393039A98F80030D8F808A0934258
:1055700040F0E08098F80D30DC0709D59AF8043047
:1055800009934FF0000B099A5FFA8BF3934202D311
:1055900008F11008DFE7DAF80070142303FB0B773B
:1055A000294638461AF017FB002800F0BE803B89D8
:1055B0000893002308999AB2914202D80BF1010B8B
:1055C000E1E70C225A430B937B6804929C18214616
:1055D0002A46384605931AF016FB22790B9B0028C1
:1055E00000F09A80069B03B11C60900624D4564BB1
:1055F00009EB03080BE01A79910642BFDA78904470
:105600001FFA88F80C339C42F5D8504B9844079BFE
:1056100063B3214638461AF0D5FADDE90413B5F82C
:1056200002905B5A0246494603981AF077FE38B951
:105630007E200DB0BDE8F08F454B4FF00008E2E74B
:105640002379DA0639D44346B0461E46029AA37837
:10565000002A43D1E278A3F14101012940D8013A5F
:10566000D2B2414630461BF085F800E00EB900206A
:10567000DFE7214638461AF0A5FADDE90413B5F84C
:1056800002905B5A0246494603981AF045FE0028EC
:10569000CED02379DB06D9D5214638461AF092FAC6
:1056A00095F80080E2786D880346CDE900622946CE
:1056B000224640461AF045FEBBE7214638461AF01E
:1056C00081FA95F800806D88169603462246294691
:1056D00040460DB0BDE8F04F1AF035BE029ABAE769
:1056E000433B012B06D8023A92B2414630461BF0AA
:1056F00059F8BCE7079BE2781BB9029B0BB19342B8
:105700001ED341463046B8F1000F02D11CF08CFB8D
:10571000ADE71CF06FFBAAE712F0300F02BFE27892
:105720004A441FFA82F9013344E77B894B441FFA4C
:1057300083F943E7BAF806304B441FFA83F927E7A9
:10574000892076E77A3E0020C73E00207B3E00207D
:1057500054610200D81F002070B50C4615461E4645
:105760001AF099FA40B9054833462A46214680681E
:10577000BDE870401AF05CBA002070BDD81F002050
:10578000014B0001185C7047D81F002070B50C4613
:105790001AF081FAC0B90D4B9A682AB115790346FF
:1057A0001426D9B2A94200D370BD116806FB0311BB
:1057B000097B34B911F0800F1CBF0130C0B2013336
:1057C000EFE711F0400FF7E70020EDE7D81F0020CA
:1057D000F8B50D4616461AF05EFA034640B90E4A71
:1057E0009268177904464FF0140CE1B2B94201D324
:1057F0000020F8BD10680CFB0400017B46B911F0D5
:10580000800F03D09D42F4D00133DBB20134ECE7CA
:1058100011F0400FF5E700BFD81F00202DE9F04F31
:10582000414BDFF8088193F800A08BB006460024B6
:10583000544506D2FF2E28D030461AF02CFA0446E2
:1058400040B30BB0BDE8F08F1B68142202FB053596
:105850002B89B3F5967F01D919F097FB00274FF0FC
:105860000C0B2A89BBB29A421CD809F10109029B90
:1058700043445FFA89F59B681A79AA42E4D8FF2E5F
:10588000DFD10134E4B25445DBD208EB04131B7BB7
:10589000002B45D12301029308EB04134FF00009BC
:1058A0000393E4E7BAB268680BFB02FE00EB0E015B
:1058B0000B79DA062CD4039A059392F800C08DF880
:1058C0001CC013F0400FB5F800C030F80E20ADF842
:1058D0001EC0284614BF4FF0800C4FF0400C0491BE
:1058E0008DF820C0ADF822201AF06CF9059B0499C0
:1058F000ADF824005B07C8780CD502288A6800D967
:105900001268012300930023194607A8FFF710FE31
:105910000137A6E702288CBF8A6801F10802F0E788
:105920000134E4B284E700BF7A3E0020D81F002093
:1059300070B5084D084E00242B78E0B2834200D8A1
:1059400070BD06EB0010437BDB0701D51AF06AFA45
:105950000134F1E77A3E0020D81F00202DE9F84FEE
:1059600092464D7D9B46002833D0002D36D0012D28
:1059700018BF04251E4C0026B1464FF6FF7723467C
:10598000228852451ED1E2782A421BD094F8028028
:10599000D84517D3B9F1000F01D0B04512D8D206BF
:1059A00010D5E21A1348C2F38F0202211AF0EBF865
:1059B0000F4BB9F1000F13D0B04516D3B8423CBF1E
:1059C000464607460C4A04349442D9D13846BDE8CD
:1059D000F88F002D14BF04250825CBE70225C9E761
:1059E000464607464FF00109ECE746460746E9E719
:1059F000BC610200B4610200D06102002DE9F04FE9
:105A000085B0CDE90123BDF838909DF840A09DF800
:105A100044B04D7D0F4648B36DB3012D18BF04252A
:105A20001F4C00262388019A934217D1E2782A421C
:105A300014D094F80280D04510D3D206FB7B1CD53D
:105A400063B1174A3B8A17480393A21AC2F38F0225
:105A500002211AF098F8039B834210D0124B0434B1
:105A6000A342DFD1012005B0BDE8F08F002D14BFA7
:105A700004250825D4E70225D2E7002BEED1B34553
:105A80000CD0B1450AD9029B0F9A03F806800F9BF0
:105A90001B88013601331380B6B2DFE70020E2E74E
:105AA000BC610200B4610200D06102002DE9F04F38
:105AB000B1F57C4F85B0CDE9023228BF2B4B019068
:105AC0004FF0000428BFB3F800A000940E4638BF82
:105AD0004FF0010AA1464FF6FF78544503D34046E4
