:10000000002000200D170000994F00009D4F0000B8
:1000100043990200A14F0000A94F0000439902003C
:100020004399020043990200439902004399020058
:10003000AD4F00009C4F030043990200439902001A
:100040004399020043E202004399020043990200EF
:100050001924010053E202004FE20200252C0100A6
:1000600047E202000519000043990200439902008B
:100070005D0E00004399020043990200439902007B
:1000800043990200439902004399020043990200F8
:1000900043990200439902004399020043990200E8
:1000A00043990200439902004399020043990200D8
:1000B000592C01004BE20200894D01005162000001
:1000C000952C010043990200554C01004399020010
:1000D00043990200439902004399020043990200A8
:1000E0004399020043990200439902004399020098
:1000F0004399020043990200439902000000000066
:100100002DE9F04F93B0CDE90A329DED1C7BDDE97E
:100110001E530E9353EC172BCDE9080110461946D8
:100120008DED067B209E28F071FC80B1DDE9060193
:10013000C94B4FF0FF3228F091FC40B9DDE90601D0
:100140004FF0FF326FF4801328F06AFC80B10E9BF1
:100150002096CDE91E539DED067BDDE90A32DDE9EF
:1001600008018DED1C7B13B0BDE8F04F00F08CB999
:10017000DDE906010022002328F052FC002800F0EF
:100180003681DDE906A303F1004BCBF30A5016F4E8
:100190008063A0F2FF3008BF06250F9328F064F9B2
:1001A0009DA3D3E9002328F0C9F99DA3D3E9002337
:1001B00028F00EF8CBF31304894644F07F518046B3
:1001C000A64B0022504641F4401127F0FFFF96A3B2
:1001D000D3E9002328F0B2F902460B4640464946CF
:1001E00027F0F6FF28F044FC044628F03DF990A3E0
:1001F000D3E900238046894628F0A0F9984B0022D5
:1002000027F0E6FF28F034FC8BA3D3E90023074650
:100210004946404628F092F980463846894628F0FB
:1002200023F987A3D3E9002328F088F902460B4677
:100230004046494627F0CAFF02460B46CDE90C234B
:1002400028F07CF9DDE90C238046894610461946E2
:1002500027F0BEFF834BCDE91001002240464946FE
:1002600028F096FA804B002227F0B2FF02460B4698
:100270004046494628F08CFA7C4B002227F0A8FF24
:1002800002460B464046494628F082FADDE90C2337
:100290008046894600204FF0804127F097FF0246B4
:1002A0000B464046494627F093FF02460B46DDE9E0
:1002B000100128F06DFA07F2FF376D4B002227F08E
:1002C00087FF00223B0528F039F952465B468046FD
:1002D000894628F0C3FB002840F08C80CDE90C89CA
:1002E00004F16303C72B34BF0427052731051ED54E
:1002F00055A3D3E900235046594628F0A5FB002812
:1003000000F0828052A3D3E900235046594628F0DA
:1003100087FB002878D0A542C8BF2C1B4FF00007F0
:10032000CCBF04F1FF35002546F480663C460E9BA9
:100330009F4234BFA3EB07084FF0000816F00209F4
:1003400003D0002F18BF4FF000083CB1504659466B
:10035000DDE90C2328F01CFA82468B46DDE9060114
:100360000022002328F05CFB10B10BF100439B46F8
:1003700026F40063CDE90383CDE900ABDDE90A3261
:10038000DDE90801029500F07FF802465FB316F040
:10039000200F00F10105DDE909130CBF65204520A0
:1003A000089EB0470523059300220A23002CCDE9BF
:1003B000023207F1FF374FEAD473B8BF64420193AA
:1003C0002A46DDE908010A9B049700942CF0A0FF5F
:1003D0000246B9F1000F06D00B9BC41A0B9B1A19E9
:1003E0000E9BA34246D8104613B0BDE8F08FDDE95E
:1003F00006ABCAE61C4B00224046494628F0C8F925
:10040000013CCDE90C016BE7002D90D00F9B002B38
:100410008DD0013D8BE700BFFB799F501344D33F44
:10042000B3C8608B288AC63F61436F63A787D23FFA
:1004300071A379094F930A401655B5BBB16B0240C1
:10044000EF39FAFE422EE63F2D431CEBE2361A3F0F
:100450000000000080842E41FFFFEF7F0000F83F86
:100460000000E03F00002C40000024400000184045
:100470000000F03FDDE90913089D2020A847013462
:10048000ACE700BF000000002DE9F04F97B0DDE9B8
:1004900020ABCDE90501CDE90723504652465B4626
:1004A0005946DDE92257249E28F0B0FA70B903239B
:1004B000CDE922762193B44B2093DDE90501DDE9F6
:1004C000072317B0BDE8F04F2CF042BE4FF0FF32CB
:1004D0006FF480135046594628F0A2FA28B104233D
:1004E0002193CDE92276A94BE6E7A94B4FF0FF32E5
:1004F0005046594628F0B2FA68B1A64A06F00403FD
:10050000002B08BF0322A44B1CBF13460422CDE9D5
:1005100022762192D0E798A3D3E90023504659468A
:1005200028F09CFA38B996A3D3E9002350465946DF
:1005300028F076FA68B1DDE90723DDE90501CDE9A8
:100540002376CDE920AB229517B0BDE8F04FFFF739
:10055000D7BD002200235046594628F061FA0028F2
:1005600000F09A805B4652460020002127F02EFEC4
:10057000012382468B46099316F4806400F08E8036
:10058000092D40F28E800EABA5F109020024302126
:100590000134202C03F8011BA5EB040901D094427F
:1005A000F6D15946504628F063FA7C4B03EBC90359
:1005B00093ED007B05468DED0A7B27F055FF024643
:1005C0000B465046594627F001FEDDE90A2327F085
:1005D000B5FF02460B46CDE90C2328F071FA8046A0
:1005E00027F032FF02460B46DDE90C0127F0EEFD55
:1005F00002460B46CDE90C23694B002228F02EFA67
:10060000002851D008F10108404627F01DFF02469E
:100610000B46DDE90A0128F00DFA10B101354FF063
:100620000008B9F1000F50D1284627F01DFF0246FF
:100630000B465046594627F0C9FD594B00228046CB
:10064000894628F0EDF930B1554B00224046494625
:1006500028F004FA10B1E80700D501350EAB1A19DD
:100660000A21202C0AD095FBF1F001FB1055303502
:1006700002F8015B013405460028F2D106F00302BE
:10068000012A5FD1002F5DD0099A12B916F00C0F24
:1006900000D0013F302244E009906DE74FF0060999
:1006A0007FE7A94600247CE7DDE90C013C4B0022F2
:1006B00028F0B6F90028B4D1B8F1000F02D018F034
:1006C000010FAED008F10108ABE70EAB23440A21BD
:1006D000202C0DD0B8FBF1F001FB10823032B8F1C4
:1006E000090F03F8012B09F1FF3904F1010411D8B6
:1006F000A1440EAA3021202CB0D0A14504F1010361
:100700000AD11C4609F158030DEB03092E2309F801
:10071000203CA3E78046DBE7A1541C46EBE71A55D3
:100720000134A7420ED9202CF9D1CDE90034CDE90E
:100730000276DDE90723DDE905012CF009FD17B09C
:10074000BDE8F08F202CF0D0099A3AB104F158029C
:100750006A442D2102F8201C0134E6E7710704D514
:1007600004F158026A442B21F4E73207DDD504F185
:1007700058026A442021EDE70000000065CDCD411C
:100780000000000065CDCDC1D2950300D6950300D1
:10079000FFFFEF7FC9950300CE950300E0950300AE
:1007A0000000E03F0000000070B58EB02C22002158
:1007B00003A830F0A4FE64234FF00232CDE90523F4
:1007C00008930B238DF83430514B1B880121D80737
:1007D0008DF8101000F19680084614F0E7FA4D4BA2
:1007E0004D494E484E4C0A221A704FF42873ADF80A
:1007F000123013F0F5FE206020B94A4840F25B2128
:1008000004F0C8FA206805212DF005FB20B1454809
:1008100040F26B2104F0BEFA206800F067FF424B03
:10082000206819682DF0A0FB15F0A2F90C2568438B
:10083000099015F09DF9684307900DEB05012068BC
:100840000EF0D8FE20B137484FF4207104F0A2FA20
:100850003649206800222DF012FC20B1314840F2C8
:10086000822104F097FA324E324D96F9000040F2A0
:1008700003532B807F284FF00503AB7001D114F098
:10088000F3FB3378EB7015F073F900EB8000800018
:10089000A88015F06DF90023C000E880AB604FF030
:1008A000FF3019A3D3E900234FF0FF3114F03AFCD5
:1008B000214920682DF08FFF206802A92DF0B9FB97
:1008C00020B1184840F2BB2104F064FA04222068E9
:1008D0000DEB02012DF036FB042804D0114840F244
:1008E000BE2104F057FA01A901202EF0B7F804F058
:1008F00097FB012015F0DAFB29F074FA15F000FCE3
:1009000014F0D8FA0EB070BD0A0020FF42030000B8
:1009100018520020BC550020D54D01003C2200207B
:100920004049002062B8030004210020CA5500207D
:100930008025002034490020754F01000348044BF6
:10094000834202D0034B03B118477047D0250020E3
:10095000D0250020000000000548064B1B1AD90FC7
:1009600001EBA301491002D0034B03B118477047B4
:10097000D0250020D02500200000000010B5064C36
:10098000237843B9FFF7DAFF044B13B10448AFF300
:1009900000800123237010BD985200200000000049
:1009A00028BC030008B5054B1BB105490548AFF34A
:1009B0000080BDE80840FFF7CFBF00BF0000000087
:1009C000C028002028BC0300A3F5803A704700BF70
:1009D000174B002B08BF134B9D46FFF7F5FF002177
:1009E0008B460F461348144A121A30F088FD0E4BFE
:1009F000002B00D098470D4B002B00D098470020CB
:100A0000002104000D000D48002802D00C48AFF36F
:100A1000008028F0BBFB2000290028F071FC28F0A2
:100A2000E7F900BF0000080000000000000000001F
:100A300000200020D02500202056002000000000CB
:100A40000000000010B50A4C23680A2803F10103D6
:100A500023600AD1072A08D90B7833B94B7823B918
:100A60008B7813B9486800F035FA002010BD00BF3C
:100A7000E828002010B50E489DF80C1003680133DB
:100A800003600C4B19700C4B49B90C4801240470DD
:100A9000196012B10A4B52881A80002010BD1868E4
:100AA0004FF6FE718842F4D819680131F0E700BFB3
:100AB000E028002029250020DC2800209C5200206E
:100AC000E824002010B5034608B9002010BD0168D5
:100AD0000029FAD0194849880268194C013202608D
:100AE000184A01201070184AD87C1180174AB1F5B5
:100AF0007C4F10709A7B22700ED1002AE5D09A8923
:100B0000197D9B688A4286BF521A92B2002219440C
:100B100000F016FA0120D9E7B1F56F4FD5D1002AC0
:100B2000D3D09A89197D9B688A4286BF521A92B2A5
:100B30000022194400F014FAECE700BFE42800207A
:100B40002A2500209C520020EA2400202B2500208A
:100B5000912808B50CD10B4B00221A702AF0B4FE74
:100B600028B928F09FFB10B1074B01221A7008BD6D
:100B70009028FCD1034B01221A70BDE8084000F018
:100B8000CBB900BF9C5200209F52002037B5114DB9
:100B900004462868013028600F4804700F4801702F
:100BA0000F490A700F4A13700F4B00930F4A104BF6
:100BB00001940121042008F0D1F901231CB10D4A50
:100BC000137003B030BD0C4A137003B0BDE8304061
:100BD00000F0A2B9D8280020282500209B52002030
:100BE0009A5200209952002061900300C51503001D
:100BF000C01503009F5200209C52002010B5054CE8
:100C0000206830B128F032FB236898422CBF0020C6
:100C1000012010BD3429002070B505F0E3F8064628
:100C20000D4605F0F9F8094B1C68094B1B68024694
:100C3000E41A30460023294627F062FF054B064A96
:100C40002044186013680133136070BD80290020B0
:100C50007C290020782900207429002008B528F07C
:100C600013FB48B1054B1B7803F0FF0023B1044B85
:100C70001878B0FA80F0400908BD00BF9C520020EF
:100C8000A252002070B5064E04464518AC4200D171
:100C900070BD14F8011B304629F09DF8F6E700BF3F
:100CA000000001400F4B10491A6802F00F0207289C
:100CB00088541A6802F101021A600C4B187004D1B2
:100CC0000B4A1368013313607047082801D1094AA1
:100CD000F7E7052801D1084AF3E72328F4D1074AAA
:100CE000EFE700BF58290020A4520020A3520020A3
:100CF00054290020502900204C2900204829002098
:100D00001A4A136801332DE9F0411360431E012B89
:100D1000054614D8164A13680133136028F0A6FA62
:100D2000092804460BD9012DDFF85C80114F124EC3
:100D300007D0012388F8003000233B703370BDE8F2
:100D4000F08128F093FA0D4B0D4A7830186000239B
:100D500088F800503B703370136813B1E31A022B0C
:100D6000EDD9084B146001221A70E8E744290020ED
:100D70003C2900209C520020A15200203429002050
:100D800038290020A0520020A252002008B528F0E7
:100D90007BFA28B9FFF732FF10B1024B01221A701B
:100DA00008BD00BF9F520020F0B5C5B01C464A9B4D
:100DB0000E4611460BB1224A1360224A13680133D2
:100DC0001360214B1870214B1E7000231A469DB2F0
:100DD000AC4201D9042B2ED11D4BB4F5807F1A6093
:100DE00027D81C4A8DF80A0000238DF808301378A4
:100DF0008DF809305F1C63BA02AD1770EE70AB80DE
:100E000024B122460DF10E0030F09FFB0634A4B24F
:100E1000114B01224FF46F41CDE9005409200AF033
:100E20000DFA012108460AF049FA002108462BF084
:100E3000C5F845B0F0BDCD5C013345EA0222C6E7F6
:100E40005C29002064290020B5520020B452002003
:100E500060290020B6520020DB15030070B50D4C50
:100E60000D4D0E4E23691B0602D40423A36470BDEE
:100E7000204628F0AAFF2B889BB25A1CDBB292B204
:100E80002A80F054064A136801331360054B18702A
:100E9000E8E700BF00000140364C0020B9520020B6
:100EA00084290020B852002038B5084B186004F09F
:100EB00099FF05460C4604F0AFFF00230246214689
:100EC000284627F01DFE024B186038BD80290020FF
:100ED0007C29002038B5431E033312D8094C0A4B35
:100EE000044420461D68FFF7DFFF084B084A1C60DA
:100EF00013680133136025B9BDE83840054800F098
:100F000069BA38BD80436D388029002070290020DF
:100F10006C29002088290020064A13681BB1064965
:100F20000B6801330B6000231360044A137008F050
:100F30000FBA00BF342900202C2900209F52002026
:100F400030B4054D2C68013413462C600A4630BC81
:100F50000146024800F0C4BA282900208829002050
:100F600030B4054D2C68013413462C600A4630BC61
:100F70000146024800F044BA2429002088290020B4
:100F800030B58BB028F0A6FD01210446084604F0D8
:100F9000C9FA204628F0A2FD2A482B4D09F0B8FBDB
:100FA0002A48012100F0CAFD2948012100F0C6FDB0
:100FB000002108460123042201F036FE002301220D
:100FC0001146184601F030FE0FCD03AC0FC495E872
:100FD0000700204D84E8070003A9284628F0B7FE43
:100FE00000240323AC676B67EB6C43F00403EB64F2
:100FF000194B4FF480521A60184D1949284600F0D9
:101000008FF92846422500F0C5F92146154B009579
:10101000042201202AF0F7FE134B21461870052206
:10102000124B009501202AF0EEFE114B114A187068
:1010300041F27071CDE9004423460F4804F010FFDF
:101040000BB030BDB95300201416030000350A0060
:10105000003204000000014000E100E08829002087
:10106000F8150300E71503002E250020DD15030009
:101070002D2500208D0D0000042900207FB56B4A2E
:101080006B4D1368013313602AF01EFC694B187016
:10109000694828F02AF9694BC0B21870684828F0EE
:1010A00089F9684B1A785AB100221A70664A136897
:1010B000013313602EF050FC644A012313702B702F
:1010C000634E33785BB1614C237843B128F0DCF890
:1010D00028B1604B1B7813B10023337023702B7839
:1010E0003BB128F0C3F80446FFF788FD002872D111
:1010F00028702AF0E9FB03280FD128F0B7F8564BE7
:101100001A68824209D8554A0A30186013680021CB
:101110000133012013602EF099FB514B1A7822B154
:10112000002245481A7000F055F928F0ADF808B9CA
:101130004C4B187028F0A8F8002841D004F052FE5B
:101140000C46064604F068FE00230246214630465F
:1011500027F0D6FC434B1A78044642B901223648A0
:101160001A7000F027F9404A1368013313603F4BAF
:101170001A68A2421AD80F341C600223002401937B
:1011800003AB224600930A21394BADF80C402046B0
:101190000AF054F8012108460AF090F8214620464A
:1011A0002AF00CFF334A136801331360324B1A687C
:1011B0001D2A05D900221A602EF0CEFB01232B70C8
:1011C0002E4C2F4D2F4E22882B8892B29BB29A42E2
:1011D0001CD104B070BD2C4E3368A34289D82AF0CC
:1011E00073FB002885D105342870346008F0B0F80E
:1011F00008F006FA254A264B1060196811B91168E3
:10120000244A11601A6801321A6072E723880A487A
:101210009BB25A1C92B2DBB22280F35C8DF80C3088
:10122000012203A900F0BEF8CDE700BF002900208D
:101230009F5200202C250020882900209E5200204B
:10124000A4290020A052002040290020A152002003
:10125000A25200209C520020F028002030290020BB
:10126000B75200209D520020F8280020EC280020D2
:10127000DB15030068290020DC280020344C002006
:10128000364C0020B9520020F42800209C20002079
:10129000FC28002098200020064B1B6810B433B1B6
:1012A0005C6824B19A6923465DF8044B18475DF8E1
:1012B000044B7047EC2B0020074B1B6813B54BB158
:1012C0001C683CB19B69CDE90013438842684178B2
:1012D0000078A04702B010BDEC2B0020044B1B6827
:1012E0001BB19A680AB1986910470020704700BF87
:1012F000EC2B002030B5094A002312F81350854228
:1013000002EB430404D16078431A5842584130BD7F
:101310000133132BF1D10020F9E700BF3016030091
:1013200070B54FF419728AB00C460021064630F0B1
:10133000E6F80FCC35460FC50E4B1E600023059313
:101340000D4B01930D4B02930D4B039394E8070053
:101350000C4B04930C4B06930C4B07930C4B85E8FA
:10136000070001A906F11C00CDE9083628F0A5F90F
:101370000AB070BDEC2B002099120000DD120000B5
:10138000CD920200B9120000D3920200A99202008D
:10139000C1920200024B18601C3028F035B800BF23
:1013A000EC2B0020024B18601C3028F095B900BFD0
:1013B000EC2B0020064B10B50446186027F089FF7F
:1013C00028B104F11C00BDE8104028F01AB810BD87
:1013D000EC2B0020094B10B50446186027F079FF6C
:1013E00050B11C342046002127F0FFFF2046032186
:1013F000BDE8104027F0F9BF10BD00BFEC2B002066
:101400002DE9F3471D46184B11F0FB0F0746144614
:1014100018600BD127F05DFF40B1012D06D90234D1
:10142000023D1C376FF00308032D02D802B0BDE85F
:10143000F087638894F8009061785BBA9EB206F1F9
:10144000040AAA45F2D84846FFF754FF30B10A46CD
:101450000096231D4946384627F0DBFFA8EB060619
:1014600054443544E0E700BFEC2B0020F0B51D46A6
:101470001A4B8FB004460E461746186027F029FF16
:1014800010B900200FB0F0BD00211820FFF732FF87
:101490000028F6D0FFF722FF9DF858200392C319C9
:1014A000159A02921D449DF8502001920095B4F8BF
:1014B0006022314604A827F0D4FF0028E1D0B4F818
:1014C00060320133A4F860320022009004AB04F1D2
:1014D0001C00182127F09DFF0120D3E7EC2B0020F2
:1014E0002DE9FF411D46224B072907461446186087
:1014F00004D008291FD004B0BDE8F08127F0E9FE30
:101500000028F8D0032DF6D9668894F80080617819
:1015100076BAB6B2331DAB42EDD84046FFF7EAFECD
:101520000028E8D00A460096231D414607F11C001A
:1015300027F06FFFDFE727F0CCFE0028DBD00B2D74
:10154000D9D9E07A2188D4F80220D4F80630A67AD6
:1015500000F10C0CAC45CED80C3449BA0290CDE960
:1015600000641BBA12BA89B23846FFF77FFFC2E7A0
:10157000EC2B00201FB50D4AAA230446082101A820
:10158000CDE9012327F0C8FE23688DF80C0053B184
:10159000092101A898472368092101A898472368D1
:1015A000092101A8984704B010BD00BF55AA0355F2
:1015B00030B50A4C0A4B22680A4D1A6085B00A4BB6
:1015C0002B600A4B019303F0DDF82B68029001A910
:1015D0002068039328F0FFFD05B030BDAC2000204B
:1015E0004C37002048370020A0200020E54D0300A4
:1015F000014B186828F003BEAC20002038B5084D18
:1016000003F0C0F82B680446D3F8B00203F0AEF83C
:10161000286828F007FE2046BDE8384003F0A6B849
:10162000AC20002038B500F03DFE0E480E4D0121E3
:1016300000F084FA012201241146104600F054FD06
:10164000224621462046C5F8804000F04DFD204648
:10165000C5F884402246214600F046FDC5F8884082
:10166000002038BD30253E0000400E401A4B07B523
:1016700001225A641A6842F480721A6001A801F0CB
:1016800065FC9DF80530012B03D89DF80430022B32
:101690000DD9124B4FF41872C3F88C22104AC3F8BC
:1016A0009022104AC3F8F0220F4AC3F8F82203F040
:1016B0003FF802F0EFFF03F003F8FFF7B3FF29F064
:1016C00015F900F0BDF803F09BF800F053F903B0F2
:1016D0005DF804EB03F0F2BE00000E4000400E4047
:1016E0009A6F0500180100040084320808B50DF057
:1016F000AFFF024B00221A7008BD00BFC15300208B
:10170000014828F060B900BF044E030008B500F09E
:1017100083F8124B12498B4212D3124B124900200C
:101720008B4218D3FFF754F9186850F822405868D4
:1017300040F82240013298688242F5D30C33EAE740
:101740000022F8E71C6844F8220001325C68A242DB
:10175000F8D30833E4E70022F8E700BF30BC030009
:101760003CBC03003CBC03003CBC03000048704789
:1017700000F04902104AD2F8943003F00703023B0C
:10178000032B13D8DFE803F00C14020E0B4B1B687D
:10179000D2F80001C0F304200130B3FBF0F0704731
:1017A000074BF4E7074B1B685B08F1E7054BEEE7D7
:1017B0004FF40043ECE700BF00400E40D42000206F
:1017C000D8200020CC20002008B5FFF7D3FF054B20
:1017D000D3F80831C3F308230133B0FBF3F0024B15
:1017E000186008BD00400E40D0200020014B186852
:1017F000704700BFD8200020054B1860054BD3F878
:10180000943003F00703022B01D1FFF7DDBF7047CF
:10181000D820002000400E40044B054A9A60D3F8BF
:10182000882042F47002C3F88820704700ED00E081
:1018300000000000014B1868704700BFD420002052
:101840000F4BD3F82838A3F17E62A2F58432B2F5AB
:10185000605F10B511D219680A4A91420DD10A4C45
:10186000227812F0FD0F01D0002010BDDB699847EF
:101870000028FAD101232370F6E74FF48170F4E7D2
:101880000000E10F07B0CD5EC253002070B5D0B1AB
:10189000C9B10E4E431E013913F8014F325D02F0FB
:1018A0000302012A11F8012FB55C05F0030520465B
:1018B00008BF04F12000012D08BF2032801A01D199
:1018C000002CE9D170BD0120FCE700BF25BB03005F
:1018D00010B501210446094800F030F908480121FB
:1018E00000F02CF9A37820786178B3FA83F35B09D0
:1018F000042201F099F9002010BD00BF404105000D
:1019000000350A002DE9F041DFF86480D8F86070F6
:10191000D8F86C301F4000D5FEE7134C0126002597
:10192000374218D02368C8F86860A3B1A16862681C
:101930000131A16028469847637B012B0BD150B938
:101940000A4B03EB45131A7B60F341021A731A7FAB
:1019500060F341021A770135082D4FEA460604F17B
:101960001004DDD1BDE8F081AC2F0020AC2E0020AA
:1019700000200E40024B1968024B18680CF0D0BFD3
:10198000DC200020FC20002070B594002246054693
:101990000E4628F0DAF9431C0AD058B922463146DF
:1019A00028462FF082FD0028034808BF002070BDA4
:1019B0000248FCE70248FAE710E000F021E000F0FE
:1019C00024E000F010B5044601F000FA431C10D0EA
:1019D00088B901F0D9FA20F0030023462044984248
:1019E00001D1002010BD53F8042B0132F7D0034879
:1019F000F8E70348F6E70348F4E700BF0EE000F01D
:101A000021E000F024E000F008B528F063F8014B75
:101A1000186008BD1C370020014B186828F05EB81C
:101A20001C3700200C4B984205D90C4B984210D81B
:101A30000122012301E00022134609490B640949F0
:101A4000D1F8003123F0807343EA0263C1F800311A
:101A500070470222EDE700BF0048E8010090D00384
:101A60000000C84300400E400F4B5B680F4B30B581
:101A700000221C46C9B21D798D4202D11D688542E3
:101A80000DD20132052A03F10803F4D10321064ADD
:101A9000536823F0407343EA0163536030BD04EBA5
:101AA000C2046179F3E700BF00000E40105003004C
:101AB00038B5074C41F67133256C2364FFF756FEA9
:101AC000ADB20021FFF7D0FF0DB10023236438BD74
:101AD00000000E40044BDB6B5B0604D4034AD2F8D3
:101AE000C830002BFBD1704700300E400000C643C9
:101AF00008B5FFF7EFFF024B5868C0F3014008BD7F
:101B000000300E40044BD3F84421D20703D4D3F85D
:101B100040211042FBD1704700400E4038B5064CC2
:101B2000256C41F671332364ADB2FFF79DFF0DB113
:101B30000023236438BD00BF00000E4038B5C0F359
:101B40000323013B092B11D8DFE803F00527101010
:101B50002B221D101511154DC0F3043405F142451B
:101B600005F5801504EBC5008000016038BD104DFF
:101B7000C0F30434F2E70F4DC0F304344FF4803067
:101B8000FFF7C0FFEAE7C0F304340B4D1020F7E77E
:101B9000C0F30434094D0120F2E7094DC0F30434C9
:101BA000DCE7084DC0F30434D8E700BF00400E4026
:101BB00050410E40F0400E40E8400E40E0400E40E4
:101BC000C0400E40B0400E40C0F30313013B092B50
:101BD0002AD8DFE803F0050B0F1929291F23374BFB
:101BE000274BD3F80001C0F304207047244BD3F8EF
:101BF0001401F8E7224BD3F80031C3F3006301333B
:101C000001209840013870471D4BD3F80C01C0F3F8
:101C1000082070471A4BD3F80801F8E7194B98428F
:101C200004D0194B984207D000207047144BD3F8CA
:101C3000203103F00F03E3E7114BD3F82031C3F356
:101C40000113DDE7114B98420CD003F5B01303F5F7
:101C500080539842E8D10A4BD3F82831C3F30123CB
:101C60000433CDE7064BD3F82831E8E7084B984218
:101C7000DAD1034BD3F8300100F00300704700BF06
:101C800000400E408006160080162E0090171A00A5
:101C9000A009140000F00F000138072852D8DFE82F
:101CA00000F004152251313951412C4BD3F89430B6
:101CB00003F00703023B052B06D8DFE803F04B29AE
:101CC000410305450B20704705207047234BD3F88F
:101CD000803003F00703013B042B17D8DFE803F043
:101CE0001830163638001D4BD3F8843003F0070344
:101CF000013B042B0AD8DFE803F00B2303292B0058
:101D000006207047154BD3F88830E2E70120704772
:101D100003207047114B1B6F13F0010F0CBF0720FE
:101D2000092070470D4BD3F85C3103F03003202BB2
:101D300010D0302B10D0102B0CBF07200120704783
:101D400002207047002070470C2070470A2070471F
:101D50000D207047042070470820704700400E4057
:101D600008B50146FFF796FF1A4B994212D01A4B5D
:101D7000994213D0194B994204D1194BD3F88000E2
:101D800000F007000138042822D8DFE800F00B0F2C
:101D900017130B00124BD3F88400F1E7104BD3F864
:101DA0008800EDE7BDE8084027F0CCBDBDE808405D
:101DB000FFF740BDBDE8084027F0C7BDFFF7DAFCDC
:101DC000074BD3F80031C3F300630133D84008BD9B
:101DD0000020FCE7030020000500240002001E0094
:101DE00000400E4000F47813B3F5B01F10B5044660
:101DF00074D025D8B3F5402F5ED010D8B3F5802F1E
:101E000049D005D83BB1B3F5003F4FD0002010BDFD
:101E1000B3F5202FFAD1BDE81040FFF7ABBCB3F506
:101E2000801F00F08480B3F5A01F4DD0B3F5602F64
:101E3000ECD14A48FFF72EFF072878D00928E9E7B8
:101E4000B3F5381F53D013D8B3F5001F58D00AD8B4
:101E5000B3F5D01F56D0B3F5F01FD7D14048BDE839
:101E60001040FFF77DBFB3F5101FCFD13D48F6E717
:101E7000B3F5481F4DD0B3F5781F65D0B3F5401FBB
:101E8000C4D13948FFF76CFF384BD3F82831C3F37E
:101E90000123043320E0FFF76DFC344BD3F80C3101
:101EA000C3F308230133B0FBF3F0B0E7FFF762FCA4
:101EB0002E4BD3F80831F3E7FFF75CFC2B4BD3F83C
:101EC0001431C3F30423EDE72648FFF749FF274BFE
:101ED000D3F8303103F00303D84098E72048FFF7E8
:101EE0003FFF224BD3F8203103F00F03F4E71C48E7
:101EF000FFF736FF1D4BD3F82031C3F30113EBE797
:101F00001948ACE71848FFF72BFF184BD3F82831D6
:101F1000F3E71748FFF7BEFE072808D0082809D0C6
:101F200004287FF473AFBDE81040FFF75FBC114B8E
:101F300018686CE7FFF71EFC0C4BD3F80031C3F3B5
:101F4000042303FB000062E7FFF714FC0146204670
:101F500027F0BBFDB1FBF0F059E700BF06000E0013
:101F600002001E00050024000300200000400E4077
:101F7000B80032000021002010B5FFF799FD094B91
:101F800007225A67FFF7F6FBFFF74CFDFFF71CFC33
:101F90000446FFF7ADFD01462046BDE81040FFF7BF
:101FA000BDBD00BF00400E40014B1880704700BF10
:101FB000EC24002010B5042813D8DFE800F0470314
:101FC0002F132100294AC1F30801D2F86838002BE9
:101FD000FBD1274A136A23F4FF7323F001030B4359
:101FE000136210BD214A01F07F01D2F86038002B46
:101FF000FBD11F4A136923F07F030B431361F0E702
:102000001A4A01F07F01D2F86438002BFBD1184A3C
:10201000936923F07F030B439361E2E7144AD2F8FC
:102020009030536A23F0300343F010035362146B73
:10203000104BC1F3C31003300F2803EA040328BF79
:102040000F200B4343EA00731363CAE74F29074A83
:1020500028BF4F21D2F87438002BFBD1044A936B70
:1020600023F07F030B439363BBE700BF0020C8430B
:1020700000400E4000F8FF0F104A536A13F0300F73
:1020800018D0202913D0302914D000290C4B08BFB8
:102090004FF44003D2F8901033EA0101FAD15B0209
:1020A00046BFD2F8A000C0F38020012070474FF453
:1020B0000003EFE74FF44003ECE700BF00400E40A1
:1020C000FFF3E17F02280AD129B1064B4FF480606B
:1020D000C3F8A800596612B10220FFF7CDBF012056
:1020E000704700BF00400E40F7B507460C46154646
:1020F000072800F28680DFE800F029303C41368472
:10210000840401A800F022FF9DF80530012B03D8BC
:102110009DF80430022B18D9002C74D14FF40041E3
:102120000E240F23474801220166A240D0F89010E8
:102130001142FBD1002D64D00122424902FA03F37F
:10214000D1F890201A42FBD15BE0FEE7002960D174
:102150004FF4007108240923E4E700295ED18021AF
:1021600006240723DEE700295CD12021042405236F
:10217000D8E741B9082102240323D3E7002955D128
:1021800002210123CEE72F4A536A13F0300F51D1B9
:102190002D4BDB6B536ADB0741BF536A23F03003DF
:1021A00043F010035362042602230321254A1666D6
:1021B000264A13449B0018680028FCD00DB3114434
:1021C0008D002B68002BFCD0022F1AD1CCB11D4CF6
:1021D000616A11F0010131D0012220213846FFF758
:1021E00071FFD4F89C70012200210220FFF77CFFD0
:1021F000C7F30A010220FFF7DDFE26662B68002BDD
:10220000FCD003B0F0BD4FF480460E230F21002414
:10221000CCE74FF4807608230921F8E7402606230F
:102220000721F4E7102604230521F0E70126002307
:102230003146ECE7042602230321E8E73846FFF79E
:102240001BFFCEE700400E4000300E408004F2102D
:1022500010B50246B8B901221146FFF745FFFFF756
:1022600027FC0F4B04225A67FFF784FAFFF7DAFBCB
:10227000FFF7AAFA0446FFF73BFC01462046BDE8FB
:102280001040FFF74BBC012807D10146FFF72CFF98
:10229000FFF70EFC024B0322E5E7FFF709FCE3E73B
:1022A00000400E4038B5FFF7A1FA0021044600F0C7
:1022B00087FA1248FFF7B6FB012211460220FFF70A
:1022C00013FFFFF7F5FB0CB1FFF704FC0C4B0222E8
:1022D0005A67FFF74FFAFFF7A5FBFFF775FA0546B8
:1022E000FFF706FC01462846FFF718FC2CB92046EC
:1022F0000121BDE8384000F063BA38BD0148E8016B
:1023000000400E40012210B511460320FFF7ECFEFD
:10231000FFF7CEFB084B05225A67FFF72BFAFFF7B2
:1023200081FBFFF751FA0446FFF7E2FB0146204626
:10233000BDE81040FFF7F2BB00400E4010B5044668
:102340001120FFF7A7FC002101220220FFF7CCFE9D
:10235000184A217C536A23F00103022908BF43F085
:1023600001035362144B2178C3F8A014637AA18847
:1023700043EAC123D362136BA07A217A03F07F630F
:102380000343E08843EAC02343EAC11303310F2922
:1023900028BF0F2143EA01731363A37B617B1B01F9
:1023A00043EA0133E17B0B43217B43EA014353635F
:1023B00010BD00BF00400E400000C843034B5868EA
:1023C000C0F30800003818BF0120704700ED00E09E
:1023D000034BD86B80F04000C0F38010704700BF03
:1023E00000300E4042EA0322B2F5007F10B5194CCE
:1023F00029D00AD8B2F5807F22D040F201139A4248
:1024000015D062B9D4F81C320BE0B2F5407F1DD074
:1024100040F201339A4210D0D4F8283201E0D4F8C7
:102420002432C3F30722DBB203600A6010BDD4F884
:1024300024321A0EC3F30743F6E7D4F82832F8E73C
:10244000D4F81C32F5E7D4F82032EAE7D4F8203289
:10245000EFE700BF0081E00F08B5FFF7B9FF20B13B
:10246000024AD2F8C830002BFBD108BD0000C64399
:1024700008B5FFF7ADFF80B1FFF7EEFF074B196816
:102480005A68C1F30121C2F3014291421A688CBF1C
:1024900042F0100222F010021A6008BD00300E4017
:1024A000064B1B68DB0608D5054B1B69C3F30443C9
:1024B000082B02BF034B044A1A60704700300E40DD
:1024C00000400E40CC200020C0EA210170B5FFF78B
:1024D0007FFF38B12D4B1A781023C2F102029340CE
:1024E0002B4A13612B492C4DD1F8804145F60E0340
:1024F000C1F880312B6823F0AA03DB05DB0D0B66E6
:10250000FFF7AAFF224B1B68D80604F0010415D57B
:10251000D1F84031DA01FBD4204B1B680B61204B12
:102520001B78052B0AD11F4B1E68FFF795FF184B30
:1025300059683046C1F30141FFF7F0FA184B1B7898
:10254000023B0A2B0AD8DFE803F006151709090930
:102550000909091A1D000020FFF77AFE2B68DB0726
:102560005EBF0C4B02221A661CB10A4B0022C3F854
:10257000802170BD0120EFE7FFF794FEEEE7FFF743
:10258000C1FEEBE7FFF7F8FCE8E700BFC35300200C
:1025900000300E4000400E4024370020203700203D
:1025A000C4530020CC20002010B50B4C0B4BD4F8AA
:1025B00090201A601120FFF76DFB094B1870FFF790
:1025C0004BFF084B084A5B68C3F301431370074B8A
:1025D00022691A6010BD00BF00400E402437002061
:1025E000C453002000300E40C35300202037002089
:1025F000064942780B6823F4407343EA0223022A17
:102600000B6004BF024B5B6A704700BF00300E4096
:1026100000400E4010B5044608B1FFF7C5FFFFF7B4
:1026200027FF144A136943F00403136127F077FB73
:1026300027F076FB104B114AC3F8242403F55923E5
:102640001B68DB060ED527F045FA2EF0A5FF27F014
:1026500045FA27F066FB03F09FF92CB1BDE8104066
:10266000FFF734BF30BFF4E7FFF71AFFBDE81040B3
:10267000FFF7AAB800ED00E000A000400000FFFF57
:1026800010B5044608B1FFF78FFFFFF7F1FE1A4BB4
:10269000D3F8802145F60E01D207C3F8801148BF58
:1026A00000224FF42071196648BFC3F88021134AF5
:1026B000136943F004031361114B124AC3F8242435
:1026C00027F02DFB104B1B68DB060CD527F002FA18
:1026D0002EF062FF27F002FA03F05EF92CB1BDE89C
:1026E0001040FFF7F3BE30BFF6E7FFF7D9FEBDE8B5
:1026F0001040FFF769B800BF00400E4000ED00E059
:1027000000A000400000FFFF00300E400E4A037999
:10271000916921F03F010B43017843EA810341783D
:1027200043EA4103817843EAC103C178012908BF24
:1027300043F0010393611368417923F4403343EA82
:1027400001431360704700BF00300E402DE9F04197
:1027500004460D46FFF73CFE60B3DFF86080FFF7EC
:102760007BFED8F80430C3F301439C4222D0124BC5
:10277000D3F80031FEF7FEFF022C07464FF010069B
:1027800009D12146FFF7CAF9C8F8106095B1BDE834
:10279000F041FFF761BEC4F102039E40C8F810602B
:1027A0000DB1FFF759FE2CB921463846BDE8F0417E
:1027B000FFF7B4B9BDE8F08100400E4000300E4094
:1027C00038B505460C46FFF703FEB8B145B90C4BCA
:1027D000D3F80051FEF7CEFFC5F3042505FB000535
:1027E000084B1B7821463BB1074B9D4204D8022081
:1027F000BDE83840FFF7AABF0020F9E738BD00BFA9
:1028000000400E40C5530020002D3101034B0278DB
:102810001A7001210020FFF7D3BF00BFC55300206D
:10282000174B4AF6E85210B5596B5A639A6FD407A2
:10283000FCD41B6C13F0030306D0124A0124984207
:10284000C2F8B44A05D110BD18B90E4BC3F8B40A8A
:10285000F9E70B4B9A6FD207FCD41A6C22F00302F3
:1028600002431A649A6F12F00102FBD10038054C42
:1028700018BF01200129C4F8B40A08BF5A63E2E76F
:1028800000300E400000C6432DE9F04F00238BB00E
:10289000CDE90433CDE90633CDE90833A0F5E16392
:1028A000B3F5966F05460191934603D900200BB00E
:1028B000BDE8F08F624BDFF88C81D3F81842B0F599
:1028C000E16F15BF4FEA146AC4F3072AC4F3074443
:1028D000E4B20694CDF824A0D8F84C60C6F3017693
:1028E0008CBF01220022334607A904A815BF4FF46C
:1028F000E1674FF496674FF496694FF416790392A7
:10290000FFF770FDD8F8E030039AC3F3012308A95C
:1029100005A80293FFF766FDA5EB070CAAEB0402DE
:102920000CFB02F2B2FBF9F214445445079F0498E1
:10293000089A0599BAD8A2EB010E0CFB0EFEBEFB5D
:10294000F9FE11EB0E012CBF4FF0010E4FF0000EFF
:102950008A42ABD3BEF1000FA8D13A1A0CFB02F2A7
:10296000B2FBF9F280182CBF0122002287429DD3CE
:10297000002A9BD1029BBBF1000F0FD0D8F85C203E
:10298000B5F5E16722F4FE4218BF012722F00202EA
:1029900042EA470242EA0422C8F85C20019A0AB9D6
:1029A000012084E7264A022ED2F830223ED0032EA0
:1029B0003FD0012E14BFD2B2C2F30722120312F489
:1029C000702F7FF473AF1F4EF46E24F470442243D3
:1029D000F2661B4A022BD2F830222CD0032B2DD0CA
:1029E000012B14BFD2B2C2F30722120312F4702FCC
:1029F0007FF45CAF134CD4F8E03023F470431343FE
:102A0000C4F8E030636E884238BF084623F4FF7391
:102A1000E72823F0010328BFE720B5F5E16F18BFD1
:102A200043F0010343EA40036366B9E7C2F3074298
:102A3000C4E7120EC2E7C2F30742D6E7120ED4E78C
:102A40000081E00F00300E402F4B1A6FD96C11F04F
:102A5000010F02F0060242D0002A40D013284FD9BD
:102A6000143813288CBF102308232749013BCA6C54
:102A7000180322F47F4240EA03231343CB64234B21
:102A8000CA6C1B88C2F303222833013202EB820096
:102A900003EB5303B3FBF0F3C86C013B072B28BFD8
:102AA000072320F0EE6040EA036343F48013CB6415
:102AB000174BB3F90030002B10DB2833500800EB24
:102AC000420203EB5303B3FBF2F30A6D072B28BF5B
:102AD000072322F0700242EA03130B657047D96C9A
:102AE00001F00101114304D1092809D90A38092844
:102AF000B8E7DB6C13F00103B7D01AB92728B1E7A8
:102B00000423B2E70023B0E700300E403C4C002025
:102B1000384C0020064A074BD3F88039136F23F056
:102B2000070303431367044B1888FFF78DBF00BFEB
:102B300000300E400000C6433A4C00202DE9F04121
:102B4000C288B0F808808588B0F90C6047784A2AB6
:102B500004464FD9B2F5FA7F4ED340F6C3139A42DA
:102B60008CBF4FF040524FF000522849CB6C23F0FD
:102B7000405323F00103002EA8BF43F00103134389
:102B8000CB64D1F8E03043F44073C1F8E030204B1F
:102B90001D80CB6E43F08073CB661E4BD3F880094B
:102BA00000B10420FFF7B6FF1B4BA3F800801B4BBE
:102BB00028461E80FFF748FFA37B03B3012B22D0DA
:102BC000012260881146FFF75FFE054678B10F4A83
:102BD000D36B43F48063D3633846FFF721FEA37AB7
:102BE000A3F12002534253410A4AC2F894372846BF
:102BF000BDE8F0810022B8E74FF08052B5E7034B03
:102C0000074A9A65DCE7014B064AFAE700300E40B6
:102C10003A4C00200000C6433C4C0020384C0020B9
:102C200077402057372110B700EB4000F8B50D462C
:102C30001F46040116463AB1154801238B40204433
:102C4000C7B100F1C0600360072D4FF00F0114D829
:102C5000AB00104806FA03F29940204427F066F8CA
:102C60003EB90B4A0123AB40224477B102F1C06266
:102C70001360F8BD00F18060E5E7A5F108039B0053
:102C8000054806FA03F29940E7E702F18062EFE7B0
:102C90000CA0004004A0004008A00040054B5A686A
:102CA0005B68054B41F671321A649A6822F00102A2
:102CB0009A60704700300E4000000E40034B9A6847
:102CC00022F001029A6000221A64704700000E4050
:102CD000094A0A4BD969C90705D512B96FF0020034
:102CE0007047013AF6E7002AF8D001221861DA604D
:102CF000D86940F3800070478096980000000E402D
:102D000070B509B9002070BD0E4A0023082550F89F
:102D1000234094610C4CD5600133D669F60705D584
:102D200014B96FF00200EEE7013CF6E7002CF8D092
:102D3000D469A40702D49942E9D1E3E76FF0010016
:102D4000E1E700BF00000E40809698002DE9F843AF
:102D50001C4B0D4641F671311E6C19641A498046B0
:102D600048684968996841F00101B6B299609708CE
:102D70004FF00009B94501D3002005E008EB8904B4
:102D80002046FFF7A5FF48B10E4B9A6822F00102DA
:102D90009A600EB100221A64BDE8F883C4F30A01F8
:102DA000C1F500618908A7EB0903994228BF1946BC
:102DB0002846FFF7A5FF0028E6D1894405EB8105E9
:102DC000D8E700BF00000E4000300E40234B41F614
:102DD00071311A6C10B5196421494C6849689968B9
:102DE00041F00101996001211861D960D9694C074E
:102DF00092B209D5996821F0010199600AB10022C7
:102E00001A644FF0FF3010BD0221D9601549D8690E
:102E1000C00700D569B9D86910F002000BD09968D5
:102E200021F0010199600AB100221A646FF00100DB
:102E3000E9E70139EBE741B9986820F001009860B3
:102E400002B119646FF00200DDE7996821F0010119
:102E500099600AB90020D6E71864FBE700000E402D
:102E600000300E4080969800014B01229A60704716
:102E700000500E40134B1449F0B500225D68134E0C
:102E80001046D6F8E8714C680B687F070BD4B3F591
:102E9000006F06D012D8B3F5007F02D0B3F5806F73
:102EA00001D144F480742B4202D02C4208BF184355
:102EB0000132092A01F10801E3D1F0BDB3F5803FE9
:102EC000EEE700BF00500E40385003000040E00F16
:102ED0008B784A789B0143EA82030A781343CA78C5
:102EE00043EA02130A7943EAC2234A7943EA0233E6
:102EF0008A79043043EA42430001014A1350704783
:102F000000200440014B1860704700BF000084425D
:102F1000437882789B0043EA021302781343C27815
:102F200043EA4213027943EA0223427943EA023335
:102F3000827943EAC233C27943EA0243027A43EA1E
:102F40004243014A13607047002004400D4AD2F802
:102F5000E430D2F8E0109B0003F03C03C1F3811190
:102F60000B438370D2F8E03003F03F034370D2F894
:102F7000E830D2F8EC2003F0F003C2F3031213435D
:102F80000370704700FF0FE0044BD3F8E4301B0ED2
:102F90000A3303F01F030120984070470081E00FBF
:102FA00070B5054616461C4619B91448FEF71AFFB7
:102FB0000146402C1BD003D8DCB1202C1BD070BDA7
:102FC000602CFCD1042303FB06F2530803EB4113EE
:102FD000B3FBF2F30A4A203B02EAC3032A6822F059
:102FE00060022A602A6814432C606B61E7E70623BD
:102FF000E9E71023E7E70823E5E700BF40410500C4
:10300000F8FF7F0040F6AA63C36041F20502002387
:10301000036042600D4A83604361C36482640C4A6A
:103020000366904243678367C3670DD002F58062F1
:10303000904205D002F58062904205D083657047CA
:1030400003658365C36570470365F7E7F9FF010012
:103050000000014038B504462AF097FF0FCC044D1C
:103060000FC594E80F0085E80F00002038BD00BFB1
:103070002837002047F6FF739A42F0B572D0062930
:1030800072D83A4B5B5C022B6ED8394D05EBC3040A
:10309000DF00A17815F83330012938BF0121012B59
:1030A00013D1E0780025401AA84202D80844C0B2E3
:1030B000F0BD431BA0EB5303666836F913609642DC
:1030C000CCBF03F1FF301D46EEE760680028EFD06B
:1030D000B0F90040944204DBB0F902409442B8BF1A
:1030E00014468388FF2B04BFB0F90620B0F908C04E
:1030F0003D440FBF01260026C8224FF0280C131BA9
:1031000093FBFCF333446E781BB29E4201DD002B2F
:1031100001DA731E1BB201339BB24FF47A7C071D98
:103120005D1E2DB24FEAC50E00EBC5059E42EA8832
:10313000AD6814FB025222EAE27202F15C02B2FBB9
:10314000FCF205DD37F83350954203F10103E7D275
:1031500000EB0E039888904228BF1046884238BF83
:103160000846A4E7FF20A3E70020A1E78050030062
:10317000283700200629F0B561D8324B595C022966
:103180005DD8314B13F83100012816D103EBC10390
:103190009C78D8785B68012C214638BF0121904289
:1031A00094BFC1EB0001C1EB0201CAB2001B824215
:1031B000C8BF002233F91200F0BD002A3DD003EB56
:1031C000C103596800293AD09878904202D3B1F9E6
:1031D0000200F1E7DC78B1F900009442ECD95C78A8
:1031E0008B88A3F1FF06013C734201F10405E4B2B0
:1031F000734101F10C07DEB2B44216D805EBC303EC
:103200004FF47A75B3F902405B686A43D21A04EB53
:10321000D47302EB630292FBF4F29042CCDBB1F97F
:1032200002009042C8DC10B2C6E737F833C09445BC
:1032300003F10106E2D33346DDE70448BCE7044866
:10324000BAE700BF80500300283700200CFEFFFFC4
:103250000080FFFF08B50448FFF7FCFEBDE808400A
:1032600001202AF0B7BE00BF885003007FB51422AA
:10327000002101A82EF043F9044B029301A94FF05D
:10328000FF302AF0E3FE07B05DF804FB006A180087
:10329000024B03480122C3F8002670470010C843C0
:1032A00000000F40094B98420ED003F5806398420E
:1032B00009D10122064B03EBC2035A68054B1344A4
:1032C0009B0000221A6070470022F3E700000F40C5
:1032D000405103008005F21010B504462369DB0756
:1032E000FCD404F1800026F04DFC014B236510BD99
:1032F000510545012DE9F043064689B01746984629
:103300000C4600294DD1FFF7C3FF01460446304665
:1033100026F079FD4FF0010996F86C5006F15C013A
:10332000C5F10F06C5F10E03F6B22A460DF10100F4
:1033300001358DF800302EF008F9324600210DEBF2
:1033400005002EF0DCF8C6F1100001233246002102
:1033500068448DF80F302EF0D2F826F0BBFB04F154
:10336000800605466946304626F00CFC0E4B236568
:103370002369DB07FCD404A9304626F020FC28464C
:1033800026F0ACFB424604A938462EF0DEF8B9F12F
:10339000000F02D02046FFF785FF002009B0BDE8EE
:1033A000F0834FF00009B7E7055101002DE9F04F18
:1033B00089B00546DDF8489016461F460C4639BBD5
:1033C000FFF766FF01460446284626F01CFD4FF035
:1033D000010B6B6C33446B6426F07CFB8246D6B9E0
:1033E000504626F07BFBBBF1000F0ED026F072FB9F
:1033F00005F14C01064604F1840026F0E0FB30465E
:1034000026F06CFB2046FFF74DFF09B0BDE8F08FBA
:103410004FF0000BDDE72B79102EB04628BF4FF0A0
:103420001008012B0DD11022002168462EF067F8FC
:103430003946424668462EF088F869462046FFF72E
:103440004BFF394604F18C0026F09CFB124B2365A0
:10345000012363652369DB07FCD404A904F1800020
:1034600026F0ADFB04A9424648462EF06EF82979B5
:1034700061B9102268462EF042F849464246684635
:103480002EF063F869462046FFF726FFC144474403
:10349000A6EB0806A3E700BF4805590370B50488EA
:1034A00004F4E043B3F5005F05461ED1C4F30223E4
:1034B000042B1AD181F0AA6383F4807333F47E1352
:1034C000204821F47E1618D081F0AA6383F400739B
:1034D00033F47E1311D0864230D1B4F5105F0CBFA7
:1034E0006FF086006FF0850070BDB4F5105F25D1D8
:1034F000144B21F47E119942F1E786424FEA1143C1
:10350000C1F305411AD1B4F5105F17D104390C2964
:1035100011D813F001000ED1073A062A0BD86B8898
:10352000C02B0BD0B3F5807FDED0802B0CBF0020EA
:103530006FF08600D8E76FF08600D5E76FF0850062
:10354000D2E700BF000140052DE9F04FA7B0DDE94B
:103550003475DDF8D880DDF8EC90089206461C46FC
:103560008A4629B96FF08602104627B0BDE8F08F71
:103570000028F7D0309B002BF4D0329B13B9339B3B
:10358000002BEFD1002F7DD1002DEBD1389B002BEC
:10359000E8D0B9F1000FE5D03A9B002BE2D0399B7F
:1035A000002BDFD0338803F4E042B2F5005F74D122
:1035B000C3F30222042A70D184F0AA6383F48073D7
:1035C00033F47E1306D084F0AA6383F4007333F4DB
:1035D0007E136BD1C4F30543319AC9F800302146FC
:1035E00030460993FFF75AFF02460028BCD1728883
:1035F000089BB3EBD20F4FEAD20BB3D3379B9D425C
:103600005FD83A9A099B93425BD8474508D27B1909
:10361000984505D239462A4640462DF056FF474682
:10362000702200210AA82DF06AFF5A4651460DF17A
:103630002D00CDF850B02DF088FF234B24F47E14DC
:103640009C423BD13388B3F5105F37D1D9F80030B5
:103650000693399B0397CDE90483339B0293329BF6
:103660000193319B00932A46309B01210AA826F042
:10367000E5FC0246E0B9389B1D6070210AA826F0DF
:10368000D5FC71E7002D81D0B8F1000F3FF46AAF8F
:10369000379B002B7FF47AAF64E742F20402934237
:1036A00004D184F0052383F4801390E7002393E78B
:1036B000389900230B60C9F80030DEE76FF085020F
:1036C000DBE76FF089024FE7000140052DE9F04F7D
:1036D000ABB0DDE938A4DDE93B658946099298463F
:1036E0000746002800F0A280002900F09F80349B4C
:1036F000002B00F09B80369B1BB9379B002B40F0C2
:103700009580BAF1000F02D1002C40F08F801DB9D6
:103710003D9B002B40F08A803E9B002B00F0868072
:103720003A9B002B00F08280359A41463846FFF7DD
:10373000B5FE0246002866D17A88099BB3EBD20F0A
:103740004FEAD20B72D33D9B9C4272D8AA4509D254
:103750000AEB0402954205D25146224628462DF036
:10376000B4FEAA46702200210EA82DF0C8FE5A46CB
:1037700049460DF13D00CDF860B02DF0E6FE2E4A31
:1037800028F47E1800219045CDE90A11CDE90C11ED
:1037900049D13A88B2F5105F45D1379B0293369BE9
:1037A00001930AAF359B00932246CDE90457349B21
:1037B0000696CDF80CA00EA826F040FC0246C8B92B
:1037C0003A9B384603EB060C90469C451FD11EB130
:1037D0003146384626F02AFCB8F1000F20D03E9A38
:1037E000002313601CB12146284626F01FFC6FF011
:1037F000940204E01EB13146384626F017FC7021D1
:103800000EA826F013FC10462BB0BDE8F08F10F880
:10381000011B13F801EB81EA0E0148EA0108D4E725
:103820003E9B1C60EBE76FF08502E8E76FF08602D5
:10383000E9E76FF08902E6E7000140052DE9F04F66
:103840008FB09846DDF86CA0049093460023B8F141
:10385000000F16D0D8F800401029CDE90633CDE985
:1038600008330CBF08231023029300255D450AD3BB
:10387000B8F1000F01D0C8F8004000200FB0BDE83B
:10388000F08F4446E8E75CB1199B1A9A1B5D525DC4
:10389000013453400AF8053004F00F040135E5E720
:1038A000FFF7F6FC4FF4404344600360064626F001
:1038B00011F9029A04990746304626F0B5F906F147
:1038C000840318461899019326F05CF93846ABEB4F
:1038D000050726F003F927F00F0706F1A0032F4490
:1038E0000593AAF11009BD4234D11A9B3B440AAD9D
:1038F00003F1100C186859682A4603C2083363455F
:103900001546F7D10F2F0ED90AEB070306AD103B72
:103910000DF1280C2A4603CA624518605960154605
:1039200003F10803F6D106F1800357440AEB0B09B3
:1039300003934F4536D126F0CDF8189905460198E6
:1039400026F03DF9284626F0C9F83046FFF7AAFCD4
:103950005D468BE726F0BEF8224B03903365336952
:10396000DA07FCD41A9B0598591926F00BF90F2D8C
:103970000ED90DF1180C09EB05020DF1280E634666
:1039800003CB7345106051609C4602F10802F6D1EA
:1039900006A906F1800026F012F9039826F09EF899
:1039A0001035A0E774B926F095F80E4B336505463F
:1039B0003369DB07FCD40398199926F000F92846EF
:1039C00026F08CF804F138030DEB0302199B12F872
:1039D000102C1B5D0134534007F8013B04F00F0429
:1039E000A7E700BF480503012DE9F74FDDF848A020
:1039F000DDE90E74DDE9106883461D46894621B96C
:103A00006FF0860003B0BDE8F08F002AF8D00FB940
:103A1000002CF5D116B9B8F1000FF1D1BAF1000FB1
:103A2000EED02E4B9D4215D00BD82D4B25F4807136
:103A300099420FD003F580639D420BD06FF0850053
:103A4000E0E7284B9D4205D025F40071A3F5807373
:103A50009942F2E7BBF80030B3F5105FEED1BBF846
:103A60000230B2EBD30FE9D3802B02D0B3F5807FC5
:103A7000E4D124B3B7420AD23B199E4207D244454F
:103A8000BED83946224630462DF01FFD3746164B2C
:103A9000BBF802B09D424FEADB0BCFD14445AFD813
:103AA00014F00F05ACD17319009301227B1959460C
:103AB000484626F0FCFA30B91035AC42F3D8CAF8C3
:103AC000004000209EE74246002130462DF017FDC1
:103AD0000023CAF800306FF0920093E70010C00492
:103AE000004040040012C004004440042DE9F04F9F
:103AF00091B0DDE91A4ADDE91C56DDF878900746F9
:103B00009B46884629B96FF08608404611B0BDE84B
:103B1000F08F002AF7D014B9BAF1000FF3D10DB924
:103B2000002EF0D1B9F1000FEDD0574B9B4515D0C9
:103B30000BD8564B2BF4807199420FD003F580635C
:103B40009B450BD06FF08508DFE7514B9B4505D0B7
:103B50002BF40071A3F580739942F2E73B88B3F52B
:103B6000105FEFD17B88B2EBD30FEBD3802B02D069
:103B7000B3F5807FE6D1BAF1000F04D1C9F800A0F7
:103B80004FF00008C1E7AC420BD204EB0A039D42A0
:103B900007D2B245B7D82146524628462DF095FCAB
:103BA0002C46394B7F889B454FEAD70758D003F501
:103BB00040739B4521D0374B9B45C3D1B245A2D81A
:103BC0001AF00F0B9FD140463B4608AA394626F013
:103BD000A8FA8046002898D105EB0B030093002239
:103BE00004EB0B03394608A826F061FA804670BB47
:103BF0000BF1100BDA45EFD8C0E7AAF10D0AB24578
:103C00003FD801238DF810300DF11102234604F145
:103C10000C0153F8040B42F8040B8B42F9D11B78CA
:103C200013704FF48073ADF81E300D3404ABCDE942
:103C300000334046CDE90245002352463946FFF79E
:103C4000FDFDC9F800A0804600283FF45EAF324673
:103C5000002128462DF053FC0023C9F8003054E71A
:103C6000AAF1100AB2453FF64EAF04AA04F1100CB7
:103C700020686168134603C3083464451A46F7D1C7
:103C8000D4E76FF0890840E70010C004004040040A
:103C90000012C0040044400410B54FF42F720446D3
:103CA00000212DF02CFC8023C4F88C30054BC4F887
:103CB0008430012384F8883004F19C00BDE8104072
:103CC00025F046BE5051030010B5D0F8A0400A467A
:103CD00084B926F031FC044610B90024204610BDFA
:103CE0002D2896BF064B074953F82010064826F0AA
:103CF0006AFDF3E7D0F8A4101046A047EDE700BF37
:103D0000F851030053510300A8770300F8B590F869
:103D10008060044616B100263046F8BD26F03DFA14
:103D20000028F8D1012384F8803094F8883033B12A
:103D3000D4F88410194884F8886026F044FD4FF0C8
:103D4000FF37D4F8B402421C1CD0C4F8B47210F08F
:103D5000FF0520D0204626F01DFA2946204600F017
:103D6000AFFB0028EDD0204626F022FA94F88830E8
:103D70006BB1D4F88410094826F025FD002384F89F
:103D8000883004E026F004FD431CE0D10126002326
:103D900084F88030C0E70126D3E700BF62740300D7
:103DA000F8B50B78302B04460D46164604D14B78F7
:103DB00003F0DF03582B11D0284F6A1E12F8011FA1
:103DC000002935D128460A2225F0D0F9202C0346B7
:103DD0000D4632D1B1FA81F040091BE04A1C1F495F
:103DE00012F8013F93B928462DF0BDFB1C4B234030
:103DF000032BA0F1020012D10134A41084420AD195
:103E0000A87837288CBF0020012003E0CB5C13F09A
:103E10004400E5D1F8BDCCBF01200020FAE7002C1A
:103E2000B8BF0334B0EBA40FD4BF01200020F1E7EA
:103E30007B5C13F00400C1D1ECE726B1084302D04B
:103E4000013B61F100050122A240013A1A40002D18
:103E500008BF9A420CBF01200020DBE725BB03000E
:103E600003000080F0B503787B2B014617D10D4F7E
:103E700006460224002216F8015F7D2D05D10B5D58
:103E80006BB9D24302F0010008E07B5D13F04400FF
:103E900002D001320134EEE7202DFBD0F0BD00202E
:103EA000FCE700BF25BB030070B506460D462DF0AC
:103EB0005AFB0446304626F086FC044EAC4200D342
:103EC00070BD304626F07FFC0134F7E7886B0300B5
:103ED0002DE9F84F044602216048FFF7E5FF1E2157
:103EE0002068FFF7E1FF6368586826F06CFC5C48C7
:103EF00026F069FC67683B7BFD2B12D8D7F8088059
:103F0000DFF85891DFF8B4A1DFF870B140462DF02A
:103F10002AFB0C3706464FF0FF3417F8013BFF2B06
:103F200001D1BDE8F88F212B14D8212B14D8DFE85C
:103F300003F0178C8884807C787413131313131385
:103F40001313706C6864605C5854131313131313C9
:103F50001313504CFE2B34D006B10134414D02E016
:103F600006B10134404D02214846FFF79DFF1E2156
:103F70004846FFF799FF504626F025FC594628464B
:103F80002DF0D9FA3949002818BF2946384826F0BB
:103F90001AFC3B78202B02D12B2026F008FC354858
:103FA00026F011FC4EB118F804301F2B05D018F87C
:103FB00004001F2801D0B4424BDB294826F003FC43
:103FC000ABE706B101342C4DCDE706B101342B4DE2
:103FD000C9E7002EA1D001349FE706B10134284D76
:103FE000C1E706B10134274DBDE706B10134264DC6
:103FF000B9E706B10134254DB5E706B10134244DCA
:10400000B1E706B10134234DADE706B10134224DCD
:10401000A9E706B10134214DA5E706B10134204DD1
:10402000A1E706B101341F4D9DE706B101341E4DD5
:1040300099E706B101341D4D95E706B101341C4DD9
:1040400091E706B101341B4D8DE706B101341A4DDD
:1040500089E726F0ACFB0134A9E700BF2753030032
:104060002F570300BD520300B75203000E53030045
:1040700062740300156603005B180300C552030059
:10408000CE520300D5520300E0520300EA5203006F
:10409000F4520300DF520300E9520300F35203001D
:1040A000FC5203000053030008530300B152030005
:1040B000B852030007530300B052030060780300B6
:1040C0002DE9F04F9BB005468B46009204932DF0EE
:1040D0004AFA249F049B059000241C600AAA3C60B5
:1040E00009A9284626F090FB064658B90A982DF0F3
:1040F0003AFA049B1860D5F89C3003933446B146D5
:10410000039B1BB920461BB0BDE8F08F039B9B6847
:104110000193002B69D02E4416F8013B202B12D0BE
:1041200000260C23019A734302EB030AD35802932F
:10413000002B55D0DDF82480C84551DB9AF80830B3
:104140002BB1721C35E03B6801333B60E4E73B6810
:10415000D5F894200299D21A049B1A601AAB03EB8B
:10416000890353F8403C069318462DF0D0F9079088
:104170000028E6D102982DF0F6F9DAF80410079A33
:10418000D7F800A00346087BFE2816D108F1FF38B7
:10419000C8452ED00B680698029201932DF0E3F9E2
:1041A0000AF10103029A0344E95C21B13B6009F181
:1041B00001091646B5E70133F6E7D5F89420A2EBDE
:1041C0000A029A42BDDC584606932DF0CCF9069BB4
:1041D00003447B2B1DD91F4A0099584625F0DFFB6D
:1041E000059A2B462A449A422AD1039B1B680393C3
:1041F00086E7D5F89420A2EB0A029A42E3DDD1F8D3
:10420000008058F80C2B82B9059B3B60049B1A6018
:10421000E6E7029A0099584625F0C1FB0E4A00993C
:104220005846013425F0BBFB8BE70099584625F032
:10423000B6FB094A0099584625F0B1FB0134E0E786
:1042400013F8011B0029CED14FF0200103F8011C07
:10425000C9E700BF10530300886B03002DE9F04746
:1042600086B0DDE90EA800241C60064689468AF85F
:1042700000401168154888F8004017461D468DF823
:104280001740FDF703FB18B92B6801332B6001249D
:10429000D6F89C60002036B914B1012388F80030AC
:1042A00006B0BDE8F087B06868B14B46CDE902A81A
:1042B000CDE900750DF11702002126F0DCF89DF81C
:1042C0001730002BE8D13668E5E700BF155303002F
:1042D0002DE9F0430026ADF5457D04467C223146AC
:1042E00005A802AF04962DF00AF9009703AB8022CF
:1042F00004A92046FFF7E4FE01283ED104A82DF0D2
:1043000032F903993B68A0EB01080B44234428EAE7
:10431000E878054604A80144424618462DF015F9F0
:1043200000F80860D4F89060039B3968D4F89020B6
:104330001944B14212DCD4F89410E81A0244C4F8CB
:104340009020014404AAC4F89410D41825182B1BFB
:10435000002B0DDC0DF5457DBDE8F083A05C26F05B
:1043600026FAD4F890300133C4F890300136DBE7F8
:1043700014F8010B26F01BFAE9E7EBDD24AD8022EF
:10438000314628462DF0BBF844AB4FF4007231465D
:1043900018462DF0B4F80DF1100903464A464FF0C7
:1043A0000108314612F8016B002E49D104A843F8E8
:1043B00028102DF0D8F82946334619F8016B0DF571
:1043C000887C5CF8042B824243D10133984501F884
:1043D000016BF2DAD4F89060039BB34242DC364AB8
:1043E0003648234604A926F0EEF928462DF0BBF8FE
:1043F000039B3F6806461F44F61AE0191D4426EA4F
:10440000E67204F198031744984204EB07014ED278
:1044100004F1900399424AD96A1E81190B1A002BA4
:1044200039DD12F8013F00F8013BD4F89030013338
:10443000C4F89030D4F894300133C4F89430EDE7E8
:10444000202E01F1010104BF43F8281008F10108F2
:10445000A8E70DF1100E7244D25CB242B1D0002236
:10446000EA54B7E7D4F89030E05C26F0A0F9D4F82D
:1044700090300133C4F890300136ADE7D4F8902085
:104480000132C4F89020D4F894200132C4F894206A
:10449000013B002BF2DC0023E3552E44731B002B61
:1044A0007FF758AF15F8010B26F081F9F6E729469A
:1044B0002DF04BF83346ECE7505103001A5303003C
:1044C0002DE9F843D0E9245604460F46002294F81B
:1044D0009830012B07D10A2F07D1002384F8983098
:1044E0000020BDE8F88300F29F801B2F01D102233A
:1044F000F4E70D2F0DD1012384F898300D2026F01C
:1045000056F90A2026F053F90023C4E92433012088
:10451000E7E74FF00008082F84F8988034D145452C
:1045200030DDB5420FD1384626F041F9013D20205B
:1045300026F03DF9384626F03AF904F80580013EA8
:10454000C4E92456CCE7FBDA05F1FF39384626F0FA
:104550002EF904EB0903A6EB0902611918462CF0A9
:10456000B4FF04F806800146484826F02CF9013EC5
:1045700035464D4501DC4D46E2E7082026F017F9A7
:10458000013DF6E7ACD0DBE77F2F1CD1002EA7DD85
:10459000B542A5DA6319691C2144721B18462CF038
:1045A00094FF04F806800146394826F00CF90820EB
:1045B000013E26F0FCF8B542F9D1D4F89430013B25
:1045C000C4F894308CE70A2F98D0092F03D12046E5
:1045D000FFF77EFE84E7D4F88C30013BB3427FF7CF
:1045E0007FAFB54204EB050805F101090CDB88F843
:1045F0000070D4F89430C4F890900133C4F894302B
:10460000384626F0D4F86BE7721B414604EB0900EC
:104610002CF05BFF404626F0D6F80820013E26F03D
:10462000C6F8B542F9DDE2E7022B06D15B2F01D1D6
:10463000032353E784F8982049E7032B7FF450AF16
:10464000413F84F89820032F3FF64AAFDFE807F098
:1046500002070A160121204626F05AF840E74FF0DB
:10466000FF31F8E7B542BFF63BAF605D26F09FF83B
:10467000D4F890300133C4F8903031E7002D7FF743
:104680002FAF013DC4F890500820BAE72353030030
:10469000FA6603007FB5094B6A4603F1100615461A
:1046A00018685968144603C40833B3422246F7D148
:1046B0002846FEF743FA002004B070BD28530300DB
:1046C00070B5184B86B001AA03F11006154618689C
:1046D0005968144603C40833B3422246F7D11B88F5
:1046E0002380114BD3F8B420120316D5A3F5004351
:1046F0004FF6FF721B88934208BF4FF4B4730B4808
:10470000ADF80A30FDF778F82846FDF717FE32209D
:10471000FDF74AFC002006B070BDD3F8B830C3F3F3
:104720000803ECE7385303000081E00F00F0490272
:1047300010B50C480C4C6FF00403A02113F0800F4F
:1047400003F1010207D123442F2A83F800131346F3
:10475000F4D1002010BD03F00F03043B034419768D
:104760001346EBE700ED00E000E100E010B5044681
:1047700025F0B0F9024B1C6025F0B0F9002010BD07
:104780005037002010B525F0A5F9034B1C6825F023
:10479000A5F9204610BD00BF5037002038B50C46A3
:1047A0001546014610B9FFF7EDFF01462B4622469C
:1047B000034808F083FF0028D4BF3720002038BD0D
:1047C00071A9020007B501F00DFB6A4601F0B2FBCA
:1047D00018B10448522100F0DDFADDE9000103B010
:1047E0005DF804FB4A53030008B501F02FFA18B135
:1047F00002487A2100F0CEFA002008BD4A53030097
:1048000008B500F025FA0D4A536A43F4E0235362D9
:10481000EFF308830A4A043B4FF0CD31934209D2AB
:10482000084B01221A61FFF7DFFFBDE80840064888
:10483000FEF710BC43F80419F0E700BF00ED00E0FC
:104840000000002000300E408850030007B504220D
:104850000DEB0201002029F075FB042804D0054867
:1048600040F2671100F096FA019800F0D9FB03B00E
:104870005DF804FB4A53030010B50A0A414007489B
:10488000C9B2082301F00104490804B14140013BC9
:1048900013F0FF03F6D181EA020010BD2083B8EDCA
:1048A0002DE9F843134C144EDFF85480134FDFF812
:1048B0005490002523780BB9BDE8F88356F8043BE3
:1048C00022464146002026F05CF822782346013437
:1048D000002AFAD15B7853B105F00303032B0CBF18
:1048E00039464946002026F04CF80135E2E73946C2
:1048F000F8E700BFC6580300002000202E57030031
:10490000AB5303007F8B03006B4B1B8840F60522E3
:1049100093422DE9F0410ED8B3F5206F0DD840F247
:104920000252934218D040F20172934220D040F2DA
:10493000015293420AD0BDE8F081A3F602235F4CF6
:10494000032B1ED8DFE803F0376396B25C490020E2
:10495000BDE8F04126F015B85A49002026F011F8BC
:10496000564B1A6C5849BDE8F041002026F009B8B2
:10497000524A5649BDE8F041D2E92423002026F0EE
:1049800000B85349002025F0FCFF94F868309E07DA
:1049900003D55049002025F0F4FF94F86B305D06F4
:1049A00003D54D49002025F0ECFF94F96B30002B26
:1049B000C1DA4A49CBE74A49002025F0E2FF94F8E2
:1049C0006430980704D0226C3F49002025F0D9FFBD
:1049D00094F96430002B04DA226F4249002025F05C
:1049E000D0FF414FDFF80C8100250126626E06FAE8
:1049F00005F3134207D057F8252013781BB1414621
:104A0000002025F0BEFF0135082DEFD193E737498F
:104A1000002025F0B6FF2C49226C002025F0B1FFC4
:104A200094F86530590703D53149002025F0A9FFD6
:104A300094F96530002B04DA226F2A49002025F012
:104A4000A0FF294E2B4F0825636EEB40DA0707D5F0
:104A500056F8252013781BB13946002025F091FF28
:104A60000135102DF0D194F8640000287FF463AF75
:104A700021496DE721491C4E1E4F002025F081FF82
:104A8000226C1149002025F07CFF1025636EEB405D
:104A9000DB0707D556F8252013781BB139460020CF
:104AA00025F06FFF01351A2DF0D144E7144900209D
:104AB00025F067FF226C55E73E4C002000200020C7
:104AC000B5530300F3530300245403003F54030081
:104AD0005B54030074540300AF540300E354030019
:104AE0002055030046550300E45F03006D550300A5
:104AF0008555030064550300CC550300FD550300A4
:104B0000175603002DE9F04F424CD4E90D32D4E999
:104B1000121B580748BF0026D4F83CA05DBFD4F84C
:104B200050803D4EDFF81C91DFF81C915ABF8B4638
:104B30009246B04613F0080F384B394A394918BF2E
:104B40001A46B6EB080718BF7D0885B01BBF642363
:104B500003FB0B553D46B5FBF7F54B4618BFADB211
:104B6000CDE9016ACDF800800020BFB225F009FF31
:104B7000CDE900972C492B461FFA8BF2002025F037
:104B800000FFB24501D8C24504D228494A46002058
:104B900025F0F7FED4E91703184338D02449254FF0
:104BA000DFF8A880002025F0ECFE00250126E26D4C
:104BB00006FA05F3134207D057F8252013781BB1E6
:104BC0004146002025F0DDFE0135202DEFD11A4FA2
:104BD000DFF8788000250126226E06FA05F31342DD
:104BE00007D057F8252013781BB14146002025F047
:104BF000C8FE01350E2DEFD11049002025F0C1FE71
:104C00000E49002005B0BDE8F04F25F0BABE0C49B2
:104C1000F4E700BF00200020002000203E560300E3
:104C2000455603004D5603007F560300B956030056
:104C3000D85603002C5F0300AC5F03002F5703001E
:104C40000857030039560300087F0300617403000E
:104C500010B5FEF70FF90446FEF706F9E30721D475
:104C600001221046114600FA01F3234002F101022D
:104C70001AD0214B33F811302049062B19D040F2BD
:104C80000722934212D14FF000524FF20F00548886
:104C900084420BD11088984208D14CF23C335380A7
:104CA000088010BD0021E4E7112ADBD1134A1380EC
:104CB00012E04FF000534FF20F025888904218D183
:104CC0001B88B3F5406F28BF4FF4C0630B804FF0D3
:104CD00000534CF23C325A80084B1A8840F2017360
:104CE0009A4201BF064A074BD2E90001C3E900011D
:104CF000D7E74FF4C063E9E7A45803003E4C002017
:104D00009020002054370020014B1888704700BFC6
:104D10003E4C0020014B1888000A70473E4C002092
:104D2000044B05481B881A0AB3F5406F38BF00EBE7
:104D3000820070473E4C002074580300044B1888D2
:104D4000044B020AC0B253F8223003EB80007047D4
:104D50003E4C00204458030010B5044624F0C1FE28
:104D60004FF000534FF20F021C805A80BFF35F8F49
:104D7000BFF34F8F0549064BCA6802F4E062134344
:104D8000CB60BFF34F8F00BFFDE700BF00ED00E039
:104D90000400FA0538B504460D4629F0F1FD08492E
:104DA0002B462246002025F0ECFD25F043FE24F0A2
:104DB00098FE29462046BDE8384025F021BE00BFB8
:104DC0001E5703006B4A6C4B2DE9F04155685D6539
:104DD000516A996569496A4CD1F80002D865D1F8E1
:104DE00004121966916A5966D16A9966116BD9667F
:104DF000516B1967D26B586B5A67D3E90E1210F0DA
:104E0000040F18BF11465F4A1A6500209142D8640A
:104E10005DD301F12000A04259D888691864C5F318
:104E20000805CE695E64062D55D1574DA84252D370
:104E3000564DA8424FD205884DF6426085424AD170
:104E40001868C3F890005868C3F8940040F20170E5
:104E5000A242154605D22E68B6F1CD3F02F10402FA
:104E6000F6D00022C3E91E22C3E92022C3E9222290
:104E7000641BDFF814C1424DDFF810E19C648D42E1
:104E80002CD8D3E91EC7D3E92065D3E922414FF0DE
:104E9000000E013AD2B2FF2A3BD1BEF1000F05D07D
:104EA000C3E91EC7C3E92065C3E92241B3F8543002
:104EB000C3F30803DA1E0F2A52D8DFE802F0345891
:104EC000414451515151514E51515151513800218C
:104ED000C3E910112B494FF42060B9E755F8044D90
:104EE0006445CCD37445CAD2E607C8D5284F0026FE
:104EF00057F8048FA045C2D00136062EF8D132B142
:104F0000013AD2B202F11E0643F82640B7E7052265
:104F1000F8E7E0464FF0010EBC4637462E462546E0
:104F20000C464146B5E740F60120BDE8F081194B3B
:104F3000DB6913F0020F40F2025318BF1846F4E782
:104F400040F60320F1E740F2017240F60423B0F589
:104F5000206F14BF10461846E7E740F60520E4E747
:104F6000013B40F607223D2B98BF1046DDE740F697
:104F70000220DAE700ED00E00020002000E100E080
:104F80000020002000000020FC000000801503002D
:104F9000742000200020054000F00CB800F00AB892
:104FA00000F008B800F006B800F004B800F002B84D
:104FB00000F000B872B61EF0080F09D01EF0040F02
:104FC0000DD0DFF850E0AEE8FF1F6FF002000CE0FC
:104FD000DFF840E0AEE8FF1F6FF00E0005E0DFF8FD
:104FE00034E0AEE8FF1F6FF006006946EFF3098278
:104FF0008EE8070086460848084C854501D3A5453C
:1050000001D384F30888FFF7DDFE84F30888FFF7F7
:10501000A3FE00000020002040000020002000200F
:1050200083B24BF6EF62002B08BF1346044A000C14
:1050300013804FF6CE2308BF1846024B18807047E6
:10504000F0240020EE2400200B4BB3F90020188838
:10505000002AB8BF80F0620042001A80074AB2F905
:10506000001013880029BCBF83F4805383F00B0326
:105070005900118058407047F0240020EE24002091
:1050800008B501F043F960B10A4B0344072B0DD872
:10509000072B0BD8DFE803F00C060A080A0A0A04FB
:1050A000C12008BDC320FCE7C420FAE7C520F8E70B
:1050B000C220F6E7FF1FFF0FF0B551B1002807DA55
:1050C0002D23B0F1004F137000D04042012100E0C9
:1050D000002100250E4F2C4657F8046B002301E0F9
:1050E000801B6346864203F1010CF9D913F0FF03DC
:1050F00000D125B14D1C30335354E9B201250134A0
:10510000E4B2092CE8D130305054481CC0B2F0BD94
:10511000546003002DE9F04F002495B021468046ED
:10512000164603A8442202949A462CF0E8F9A146B8
:10513000274602AC2546317859B9641BE4B22246B1
:1051400029460020C047002840F08F803819C0B29F
:105150008CE0252918D0B9F1000F19D104F8011BF2
:1051600012AB9C42C0F0D380641BE4B229462246B5
:105170000020C0470146002877D13C4448222846F9
:10518000E7B22CF0BCF9C1E0B9F1000F00D1013653
:105190003278622A47D021D8252A3ED004D8002A66
:1051A000CBD04FF00009DBE7392A15D82F2AF8D9E0
:1051B000717801F0DF01582940F0D880322A06F1D9
:1051C000010940F0C08020463AF8041B042225F073
:1051D00038FC04464E46E4E7582A15E0632A6BD0B3
:1051E000A2F1640C5FFA8CFCBCF1140FD9D8614BAE
:1051F000012101FA0CF010EA030940F08A8010F452
:10520000104060D1BCF1140FCBD120461AF8041B1A
:10521000022225F016FC0446C3E7214601F8022BC2
:1052200062700C46BDE7DAF800300193DAF804301A
:1052300000934FF000090DF1480B009B994502D1F6
:105240000AF1080AADE7019B204613F80910022273
:1052500025F0F7FB5845044612D3441BE4B2294617
:1052600022460020C047014618B1002015B0BDE815
:10527000F08F482228462CF042F93C44E7B22C46F5
:10528000009B5A1E4A4584BF202204F8012B5C452E
:105290000FD3641BE4B2294622460020C0470146D2
:1052A0000028E2D1482228462CF029F93C44E7B2F4
:1052B0002C4609F10109C0E7534653F8042B04F8C2
:1052C000012B9A466DE7641BE4B222462946484604
:1052D0005AF804BBC0470028C7D13C44482249467D
:1052E0002846E4B22CF00BF95FFA89F34F461BF81D
:1052F000030009F101090028F6D1FFB23A465946E8
:10530000C0470028B1D13C44E7B281462C46013663
:1053100011E76C2ADAF800000AF104090FD173785A
:10532000752B01D0642B04D1B3F1750118BF012195
:1053300001362246FFF7C0FECA46044431E7752A0B
:1053400008BF0021F5E7342A10D15646042256F84A
:1053500004AB20464FEA1A4125F073FB1FFA8AF18D
:10536000042225F06EFBB246044633E74FF00109F4
:10537000F6E600BF0101020008B5054813460A46DB
:105380000021FFF7C7FEB0FA80F0400908BD00BF5A
:1053900037AA0200054B1A782AB95B78002B0CBF9C
:1053A0000320022070470120704700BFCF53002028
:1053B0000329F8B598BF134B054698BF5C5C0E46B1
:1053C00088BF0024032805D8DFE800F002080B0E90
:1053D00044F002040C4B1F684FB9F8BD44F00804B8
:1053E000F8E744F02004F5E744F08004F2E77B6836
:1053F0001A68144203D05B683146284698473F68D4
:10540000EAE700BF786003008837002038B5104D08
:105410002B78ABB10F4C23781BB125F033FB002365
:105420002370002025F02FFB0B4C50B100F0D2FA76
:10543000002320782B700121FFF7BAFF012323708E
:1054400038BD064B01221A70054B22781A70F7E717
:10545000CB530020C9530020D1530020CC5300204F
:10546000CD53002010B524F035FB064B1B780446C5
:105470001BB1BDE8104024F031BBFFF7C7FF204649
:10548000F7E700BFC8530020094A137830B1013351
:105490001370084B1B78012B03D87047013B137026
:1054A0007047054B1B780BB9FFF7B0BF704700BFC3
:1054B000CF530020D1530020CC53002070B5144EA0
:1054C00024F008FB33780546ABB900F0BFFB044677
:1054D00020B1284624F002FB204670BDAFF30080C7
:1054E0000C4824F035FA00F0D1FE0B4B1C6000F0A4
:1054F00093FC0A4B186000F0EFF925F0C6FA084B50
:105500001860012328463370002424F0E7FAE3E70B
:10551000D2530020883700205C37002084370020D9
:10552000603700202DE9F843284A0138135C39B16F
:10553000274F397801330129135404D8BDE8F88383
:10554000013B1354FAE7FFF725FF0128044635D83D
:10555000DFF8888024F0BEFA98F80030054613B3CF
:105560001C4E33781BB9012232701B4A1370DFF8CE
:10557000709099F8003023B125F084FA002389F85F
:105580000030284624F0AAFA012025F07CFA24F005
:10559000A1FA337805461BB100F01CFA00233370E2
:1055A000002388F80030284624F098FA387884429E
:1055B000C4D02146FFF7FCFE3C70BFE70329F5D1BC
:1055C0000228F3D100F052FAF0E700BFCF530020D9
:1055D000D1530020C8530020CC530020CB530020CF
:1055E000C953002038B524F075FA094B1B78012BFC
:1055F000054604D824F072FA0024204638BD054B35
:105600001C6800F025FA0444284624F067FAF4E701
:10561000D15300205C37002038B54160044624F0A7
:1056200059FA21460546044824F095F92846BDE874
:10563000384024F053BA00BF88370020054B1B6860
:10564000584300F57420044B00F23F20B0FBF3F008
:10565000704700BF8437002040420F002DE9FF470C
:10566000EFF3108772B6AFF3008024F0B5F800288E
:1056700071D0714EDFF8E481337823B10020FFF759
:1056800003FF00233370FFF785FE0446002869D02E
:10569000841EE4B2012C6CD9FFF77CFE0128674C14
:1056A000DFF8BC91054600F28E802078A84205D034
:1056B00099F80030002B00F0B2802570207800F0BF
:1056C000B1F999F8003013B15D4B1B782370AFF33B
:1056D000008007B962B6EFF3108772B6594B1A789B
:1056E00052B100221A70564B20781B78984203D191
:1056F00001212170FFF75CFE534800F0E1FA24F02D
:105700007FF805460028B7D1DFF8588198F80030B7
:10571000A3B189F80000DFF8409199F800301BB17F
:1057200025F0B0F989F80050002025F0ACF90028E8
:1057300079D000F04FF9002388F80030337823B196
:105740000020FFF7A1FE0023337020780021FFF72F
:105750002FFE00232370AFF3008007B962B604B0B8
:10576000BDE8F0873378002B96D0FFF78DFE3470BC
:1057700092E703A9002000F0F1FA044600288BD13B
:10578000D8F80030039A9A4205D80120FFF77CFE32
:105790000123337080E72D4B1D6800F059F9039BFE
:1057A00005449D42F1D200F077F982000399264822
:1057B00042F0020292B2CDE900422346244A491B3C
:1057C00025F067F968E7DFF89CA09AF80030CBB9BC
:1057D00025F055F92078854203D099F80030D3B1EF
:1057E00025709AF80030002B7FF468AF194B1B78B6
:1057F00023B925F046F9184B01221A7001238AF8C3
:1058000000305BE7207885423FF458AF99F80030CC
:10581000002B7FF452AF2946FFF7CAFDE0E7294687
:10582000FFF7C6FD49E7012000F0FCF807B962B6B2
:10583000EFF3108772B677E7CA530020D1530020E8
:10584000CD530020C6530020643700205C37002071
:1058500065540000CE530020C9530020603700205B
:10586000CC530020CB53002010B524F033F9054B66
:1058700000221C781A7024F031F900F027FC204334
:10588000C0B210BDC753002073B5114E33788342A8
:1058900004460ED000230F4DADF8043058B101A8D6
:1058A000FCF7A6FE1E20FFF7C9FE2B681B1A2B6013
:1058B000347002B070BD022301A88DF80530FCF7EA
:1058C00097FE1E20FFF7BAFE2B680344EFE700BFE8
:1058D000322500209037002073B5284C002501A800
:1058E000636A636A8DF80450FCF790FF2846FFF75F
:1058F000CBFFD4F8903003F00403AB42204B14BF2D
:1059000001222A461A70D4F890301E4CC3F300339B
:10591000237005D04FF41670FFF790FE1A4B1860F5
:1059200023781A4DEBB11120FCF75CFA1349D1F83A
:105930000031C3F3042303FB000292B14C6C144EFC
:10594000C4F30B44002301341946501E04EB8404B5
:10595000E4FB060123F0D4F8FFF770FE2B68034444
:105960002B606420FFF76AFE2B6803442B60034B17
:10597000D3F89020074B1A6002B070BD00400E4073
:10598000D5530020D35300209837002090370020B3
:1059900040420F008C37002008B50B4B1B7893B1A9
:1059A000022000F045FC70B100F008FA58B1002266
:1059B00001210220FCF798FB25F0AEF8034B18609C
:1059C000034B01221A7008BDD553002094370020E4
:1059D000D453002038B50E4C0E4D23782BB92B78BC
:1059E0001BB125F099F80C4B186024F09DF92B7829
:1059F0006BB10A4AD2F890301B07FBD525F08CF822
:105A0000054B1B68C01A064B18600023237038BD75
:105A1000D4530020D55300209437002000400E407E
:105A20009837002002280AD003280BD001280CD177
:105A3000064A136923F00403136130BF7047002046
:105A4000FCF7E8BD0020FCF71BBE704700ED00E04E
:105A5000044B1B680BB103EBD303034A10681844D3
:105A6000704700BF9837002090370020084B45F65C
:105A70000E02D3F88011C3F88021064A126802F49E
:105A8000A0721A66CA0744BF0022C3F8802170477B
:105A900000400E408C370020014B1878704700BF43
:105AA000D553002038B500F061FB094C094B1A684A
:105AB00023680025C31A2AB123B15169994203D33F
:105AC000C91A5161206038BD55615B1A9268F2E7CE
:105AD000A0370020A4370020C38870B504460D46C7
