:10000000002000204D1F0000895900008D5900007C
:100010004D57020091590000995900004D570200B8
:100020004D5702004D5702004D5702004D57020038
:100030009D5900002C0703004D5702004D57020048
:100040004D570200299F02004D5702004D570200F4
:10005000D52D0100399F0200359F0200E1350100D6
:100060002D9F02006D2200004D5702004D570200E7
:10007000311000004D5702004D5702004D5702004D
:100080004D5702004D570200011000004D5702006D
:100090004D5702004D5702004D5702004D570200C8
:1000A0004D5702004D5702004D5702004D570200B8
:1000B00015360100319F020045570100C96C000050
:1000C000513601004D570200115601004D570200F4
:1000D0004D5702004D5702004D5702004D57020088
:1000E0004D5702004D5702004D5702004D57020078
:1000F0004D5702004D5702004D570200000000000E
:100100002DE9F04F93B0CDE90A329DED1C7BDDE97E
:100110001E530E9353EC172BCDE9080110461946D8
:100120008DED067B209E24F077FB80B1DDE9060192
:10013000C94B4FF0FF3224F097FB40B9DDE90601CF
:100140004FF0FF326FF4801324F070FB80B10E9BF0
:100150002096CDE91E539DED067BDDE90A32DDE9EF
:1001600008018DED1C7B13B0BDE8F04F00F08CB999
:10017000DDE906010022002324F058FB002800F0EE
:100180003681DDE906A303F1004BCBF30A5016F4E8
:100190008063A0F2FF3008BF06250F9324F06AF8B1
:1001A0009DA3D3E9002324F0CFF89DA3D3E9002336
:1001B00023F014FFCBF31304894644F07F518046AB
:1001C000A64B0022504641F4401123F005FF96A3B0
:1001D000D3E9002324F0B8F802460B4640464946CE
:1001E00023F0FCFE24F04AFB044624F043F890A3DD
:1001F000D3E900238046894624F0A6F8984B0022D4
:1002000023F0ECFE24F03AFB8BA3D3E9002307464E
:100210004946404624F098F880463846894624F0FE
:1002200029F887A3D3E9002324F08EF802460B4671
:100230004046494623F0D0FE02460B46CDE90C234A
:1002400024F082F8DDE90C238046894610461946E1
:1002500023F0C4FE834BCDE91001002240464946FD
:1002600024F09CF9804B002223F0B8FE02460B4696
:100270004046494624F092F97C4B002223F0AEFE22
:1002800002460B464046494624F088F9DDE90C2336
:100290008046894600204FF0804123F09DFE0246B3
:1002A0000B464046494623F099FE02460B46DDE9DF
:1002B000100124F073F907F2FF376D4B002223F091
:1002C0008DFE00223B0524F03FF852465B468046F7
:1002D000894624F0C9FA002840F08C80CDE90C89C9
:1002E00004F16303C72B34BF0427052731051ED54E
:1002F00055A3D3E900235046594624F0ABFA002811
:1003000000F0828052A3D3E900235046594624F0DE
:100310008DFA002878D0A542C8BF2C1B4FF00007EB
:10032000CCBF04F1FF35002546F480663C460E9BA9
:100330009F4234BFA3EB07084FF0000816F00209F4
:1003400003D0002F18BF4FF000083CB1504659466B
:10035000DDE90C2324F022F982468B46DDE9060113
:100360000022002324F062FA10B10BF100439B46F7
:1003700026F40063CDE90383CDE900ABDDE90A3261
:10038000DDE90801029500F07FF802465FB316F040
:10039000200F00F10105DDE909130CBF65204520A0
:1003A000089EB0470523059300220A23002CCDE9BF
:1003B000023207F1FF374FEAD473B8BF64420193AA
:1003C0002A46DDE908010A9B0497009428F013FEF1
:1003D0000246B9F1000F06D00B9BC41A0B9B1A19E9
:1003E0000E9BA34246D8104613B0BDE8F08FDDE95E
:1003F00006ABCAE61C4B00224046494624F0CEF824
:10040000013CCDE90C016BE7002D90D00F9B002B38
:100410008DD0013D8BE700BFFB799F501344D33F44
:10042000B3C8608B288AC63F61436F63A787D23FFA
:1004300071A379094F930A401655B5BBB16B0240C1
:10044000EF39FAFE422EE63F2D431CEBE2361A3F0F
:100450000000000080842E41FFFFEF7F0000F83F86
:100460000000E03F00002C40000024400000184045
:100470000000F03FDDE90913089D2020A847013462
:10048000ACE700BF000000002DE9F04F97B0DDE9B8
:1004900020ABCDE90501CDE90723504652465B4626
:1004A0005946DDE92257249E24F0B6F970B903239A
:1004B000CDE922762193B44B2093DDE90501DDE9F6
:1004C000072317B0BDE8F04F28F0B5BC4FF0FF325E
:1004D0006FF480135046594624F0A8F928B104233C
:1004E0002193CDE92276A94BE6E7A94B4FF0FF32E5
:1004F0005046594624F0B8F968B1A64A06F00403FC
:10050000002B08BF0322A44B1CBF13460422CDE9D5
:1005100022762192D0E798A3D3E90023504659468A
:1005200024F0A2F938B996A3D3E9002350465946DE
:1005300024F07CF968B1DDE90723DDE90501CDE9A7
:100540002376CDE920AB229517B0BDE8F04FFFF739
:10055000D7BD002200235046594624F067F90028F1
:1005600000F09A805B4652460020002123F034FDC3
:10057000012382468B46099316F4806400F08E8036
:10058000092D40F28E800EABA5F109020024302126
:100590000134202C03F8011BA5EB040901D094427F
:1005A000F6D15946504624F069F97C4B03EBC90358
:1005B00093ED007B05468DED0A7B23F05BFE024642
:1005C0000B465046594623F007FDDDE90A2323F088
:1005D000BBFE02460B46CDE90C2324F077F980469A
:1005E00023F038FE02460B46DDE90C0123F0F4FC53
:1005F00002460B46CDE90C23694B002224F034F966
:10060000002851D008F10108404623F023FE02469D
:100610000B46DDE90A0124F013F910B101354FF062
:100620000008B9F1000F50D1284623F023FE0246FE
:100630000B465046594623F0CFFC594B00228046CA
:10064000894624F0F3F830B1554B00224046494624
:1006500024F00AF910B1E80700D501350EAB1A19DC
:100660000A21202C0AD095FBF1F001FB1055303502
:1006700002F8015B013405460028F2D106F00302BE
:10068000012A5FD1002F5DD0099A12B916F00C0F24
:1006900000D0013F302244E009906DE74FF0060999
:1006A0007FE7A94600247CE7DDE90C013C4B0022F2
:1006B00024F0BCF80028B4D1B8F1000F02D018F033
:1006C000010FAED008F10108ABE70EAB23440A21BD
:1006D000202C0DD0B8FBF1F001FB10823032B8F1C4
:1006E000090F03F8012B09F1FF3904F1010411D8B6
:1006F000A1440EAA3021202CB0D0A14504F1010361
:100700000AD11C4609F158030DEB03092E2309F801
:10071000203CA3E78046DBE7A1541C46EBE71A55D3
:100720000134A7420ED9202CF9D1CDE90034CDE90E
:100730000276DDE90723DDE9050128F07CFB17B02F
:10074000BDE8F08F202CF0D0099A3AB104F158029C
:100750006A442D2102F8201C0134E6E7710704D514
:1007600004F158026A442B21F4E73207DDD504F185
:1007700058026A442021EDE70000000065CDCD411C
:100780000000000065CDCDC18A4C03008E4C0300F3
:10079000FFFFEF7F814C0300864C0300984C030061
:1007A0000000E03F0000000070B58EB02C22002158
:1007B00003A82CF059FA64234FF00232CDE9052347
:1007C00008930B238DF83430514B1B880121D80737
:1007D0008DF8101000F19680084614F0C5FF4D4BBF
:1007E0004D494E484E4C0A221A704FF42873ADF80A
:1007F000123014F0D3FB206020B94A4840F25B214C
:1008000004F0C0FF2068052129F078F920B145489F
:1008100040F26B2104F0B6FF206801F087FB424BE9
:100820002068196829F013FA15F080FE0C2568433A
:10083000099015F07BFE684307900DEB05012068D9
:100840000FF0B6FB20B137484FF4207104F09AFF47
:1008500036492068002229F085FA20B1314840F25B
:10086000822104F08FFF324E324D96F9000040F2A3
:1008700003532B807F284FF00503AB7001D115F097
:10088000D1F83378EB7015F051FE00EB800080005A
:10089000A88015F04BFE0023C000E880AB604FF04D
:1008A000FF3019A3D3E900234FF0FF3115F018F9F9
:1008B0002149206829F002FE206802A929F02CFABB
:1008C00020B1184840F2BB2104F05CFF04222068EC
:1008D0000DEB020129F0A9F9042804D0114840F2D7
:1008E000BE2104F04FFF01A9012029F02AFF05F0E5
:1008F0008FF8012016F0AAF825F079F916F0D0F853
:1009000014F0B6FF0EB070BD0A0020FF42030000D5
:100910000E5700208A5A00209157010048220020DB
:10092000285000201A6F030010210020985A002040
:10093000472500201C500020315901000348044B7A
:10094000834202D0034B03B1184770479025002023
:1009500090250020000000000548064B1B1AD90F07
:1009600001EBA301491002D0034B03B118477047B4
:1009700090250020902500200000000010B5064CB6
:10098000237843B9FFF7DAFF044B13B10448AFF300
:1009900000800123237010BD80570020000000005C
:1009A000B072030008B5054B1BB105490548AFF30C
:1009B0000080BDE80840FFF7CFBF00BF0000000087
:1009C000C8270020B0720300A3F5803A704700BF2B
:1009D000174B002B08BF134B9D46FFF7F5FF002177
:1009E0008B460F461348144A121A2CF03DF90E4B51
:1009F000002B00D098470D4B002B00D098470020CB
:100A0000002104000D000D48002802D00C48AFF36F
:100A1000008024F0C1FA2000290024F079FB24F0A2
:100A2000EDF800BF0000080000000000000000001A
:100A30000020002090250020E05A00200000000047
:100A40000000000010B50A4C23680A2803F10103D6
:100A500023600AD1072A08D90B7833B94B7823B918
:100A60008B7813B9486800F025FB002010BD00BF4B
:100A7000F027002010B50E489DF80C1003680133D4
:100A800003600C4B19700C4B49B90C4801240470DD
:100A9000196012B10A4B52881A80002010BD1868E4
:100AA0004FF6FE718842F4D819680131F0E700BFB3
:100AB000E8270020F3240020E427002084570020AA
:100AC000B424002010B5034608B9002010BD016809
:100AD0000029FAD0214849880268214C013202607D
:100AE000204A01201070204AD87C11801F4AB1F59D
:100AF0007C4F10709A7B22700ED1002AE5D09A8923
:100B0000197D9B688A4286BF521A92B2002219440C
:100B100000F006FB0120D9E7B1F56F4F0DD1002A97
:100B2000D3D09A89197D9B688A4286BF521A92B2A5
:100B30000022194400F02AFBECE71929C5D1002A4C
:100B4000C3D09A89197D9B688A4286BF521A92B295
:100B50000022194400F076FBDCE700BFEC27002000
:100B6000F424002084570020B6240020F52400201F
:100B7000912808B50CD10B4B00221A7026F043FDCA
:100B800028B924F097FA10B1074B01221A7008BD5A
:100B90009028FCD1034B01221A70BDE8084000F0F8
:100BA000ABBA00BF845700208957002037B5114DDC
:100BB00004462868013028600F4804700F4801700F
:100BC0000F490A700F4A13700F4B00930F4A104BD6
:100BD00001940121042008F0FDFE01231CB10D4AFF
:100BE000137003B030BD0C4A137003B0BDE8304041
:100BF00000F082BAE0270020F22400208357002072
:100C000082570020815700201947030045CD02007C
:100C100040CD02008957002084570020014B01225B
:100C20001A707047AE58002010B5054C206830B1DE
:100C300024F024FA236898422CBF0020012010BD24
:100C40007C30002070B505F0C5FD06460D4605F068
:100C5000DBFD094B1C68094B1B680246E41A304651
:100C60000023294623F052FE054B064A2044186013
:100C700013680133136070BDC8300020C4300020F9
:100C8000C0300020BC30002008B524F005FA48B17F
:100C9000054B1B7803F0FF0023B1044B1878B0FA22
:100CA00080F0400908BD00BF845700208E57002007
:100CB00007B5094BCDE900120246192101200AF0BF
:100CC000B7FF012108460AF0F3FF0021084603B0F0
:100CD0005DF804EB27F011B85BCD02001FB50A4A9E
:100CE00001240023CDE9012301A9092220468DF822
:100CF0000C40FFF7DDFF054B1C7025F012FE044B86
:100D0000186004B010BD00BF000210018A57002017
:100D1000443000201FB502238DF805304FF488734E
:100D2000ADF8063000238DF808300B4B8DF8040029
:100D30001B688DF809301A0A8DF80A201A0C8DF8F4
:100D40000B201B0E092201A906208DF80C30FFF79D
:100D5000AFFF05B05DF804FB483000200F4B104991
:100D60001A6802F00F02072888541A6802F101027B
:100D70001A600C4B187004D10B4A136801331360CE
:100D80007047082801D1094AF7E7052801D1084A28
:100D9000F3E72328F4D1074AEFE700BFA030002093
:100DA000905700208F5700209C3000209830002062
:100DB00094300020903000201A4A136801332DE946
:100DC000F0411360431E012B054614D8164A1368E0
:100DD0000133136024F052F9092804460BD9012D80
:100DE000DFF85C80114F124E07D0012388F80030E5
:100DF00000233B703370BDE8F08124F03FF90D4BC8
:100E00000D4A78301860002388F800503B7033702A
:100E1000136813B1E31A022BEDD9084B14600122B9
:100E20001A70E8E78C3000208430002084570020BE
:100E30008D5700207C300020803000208C5700200F
:100E40008E57002008B524F027F928B9FFF7ECFEEB
:100E500010B1024B01221A7008BD00BF8957002053
:100E6000F0B5C5B01C464A9B0E4611460BB1224A4E
:100E70001360224A136801331360214B1870214B11
:100E80001E7000231A469DB2AC4201D9042B2ED10C
:100E90001D4BB4F5807F1A6027D81C4A8DF80A00D4
:100EA00000238DF8083013788DF809305F1C63BA81
:100EB00002AD1770EE70AB8024B122460DF10E002A
:100EC0002BF0F8FE0634A4B2114B01224FF46F410F
:100ED000CDE9005409200AF0ABFE012108460AF0D2
:100EE000E7FE0021084626F008FF45B0F0BDCD5CC6
:100EF000013345EA0222C6E7A4300020AC300020CE
:100F0000A1570020A0570020A8300020A2570020A1
:100F10005BCD020070B50F4E24F0ECFC3378044634
:100F20009BB924F0DCFC01210546084604F0F2FFE1
:100F3000284624F0D8FC084A012333701368013393
:100F40001360064B0222C3F828242046BDE87040F7
:100F500024F0D6BCA4570020D430002000A00044C8
:100F600070B50D46044625F0DCFC074B074E1860B3
:100F7000FFF7D0FF2544AC4200D170BD14F8011B2F
:100F8000304624F02DFEF6E7CC3000200000014072
:100F90001FB5174B009300238DF80430154B1B68C9
:100FA0008DF805301A0A8DF806201A0C1B0E8DF8E4
:100FB0000830114B8DF807201B688DF809301A0A8C
:100FC0008DF80A201A0C1B0E8DF80B208DF80C30B2
:100FD0000E224023694603208DF80D30FFF768FE8E
:100FE00025F09FFC054B186005B05DF804FB00BFC1
:100FF0000002100148300020503000204430002012
:1010000008B5084BD3F81C24C3F82424064A1368F7
:101010000133136025F085FC044B1860BDE80840DF
:10102000FFF778BF00A00040D8300020CC3000206F
:1010300070B50F4C0F4D104E23691B0606D425F0DA
:1010400070FC0E4B18600423A36470BD204624F08E
:10105000C1FD2B889BB25A1CDBB292B22A80F0549D
:10106000074A136801331360064B1870E4E700BFAA
:101070000000014014530020A6570020CC3000206F
:10108000DC300020A557002038B5084B186005F06B
:10109000A1FB05460C4605F0B7FB0023024621469E
:1010A000284623F033FC024B186038BDC8300020BE
:1010B000C430002038B5431E033312D8094C0A4B04
:1010C000044420461D68FFF7DFFF084B084A1C60F8
:1010D00013680133136025B9BDE83840054800F0B6
:1010E00091BD38BD80436D38C8300020B830002035
:1010F000B4300020E0300020064A13681BB10649D6
:101100000B6801330B6000231360044A137008F06E
:101110005BBE00BF7C300020743000208957002067
:1011200030B4054D2C68013413462C600A4630BC9F
:101130000146024800F0F4BD70300020E03000208D
:10114000044B1A78012AD0B203D01878831E584273
:10115000584170478A57002008B5094B1A7812B1D8
:101160001B78042B0BD123F097FF40B1054A0023D5
:101170001360054A1360BDE80840FFF7AFBD08BD26
:101180008A570020503000204C3000202DE9F74FC6
:101190001546264A136810F0FB0F03F101030746BA
:1011A0008846136008D022482B464246394603B091
:1011B000BDE8F04F00F03CBD052DF4D9DFF880B05C
:1011C0008E1CA5F102097488337864BAA4B204F1C4
:1011D000040ACA45E7D8CD2B0AD1FFF7BDFFA9EB1A
:1011E0000404A4F10409B9F1030F5644EBD8DAE77B
:1011F000CA2BF4D1002CF2D033790E4A13708BB184
:10120000022B41F2707318BF4FF4FA63CBF8003031
:101210000023DBF80010084A0848CDE9003305F048
:101220006BFBDCE74FF47A73F0E700BF6C30002013
:10123000E0300020FA2400201D0C00004433002080
:10124000A82000202DE9F74F072821D8DFE810F06B
:10125000F80020000800200020003C002000E600EC
:101260007C4C0AB10D7815B10023237010E00C2AD4
:1012700001D825700CE0481D23F0FEFE764B186067
:1012800001F1090023F0F8FE744B186018B92070C2
:1012900003B0BDE8F08F284600F072FF20B1704A1D
:1012A000136801331360E4E76E4B18606E4B1880CF
:1012B0006E4B18606E4B3E221A600223237003B0FF
:1012C000BDE8F04FFFF764BE624E3378022BDFD1EA
:1012D000002ADDD00B78972B04D125F022FB654B3B
:1012E0001860D5E70BB90D2A06D85D4A136801339B
:1012F000136000233370CBE701F1090023F0BCFE3B
:101300004D7B05F10D03934204DB554A136801330D
:101310001360BDE7534F3B688342D0D1544833B983
:10132000072D04D98A8A544C063202602260046870
:101330005A19A24211D9A3423ABFE41AA4B2002416
:1013400004F10E03DFF82091DFF834B1DFF81CA1BF
:101350002C1B01EB0308A4B23CBB3B68474A1D446D
:1013600013683D60013313603C4B1B689D42A6D35C
:101370003D49434C0B880020FF255A1C9F0792B221
:1013800040D100B10B80002B40D038493C4A09685D
:10139000002000F0D7FE002838D0314A136895208D
:1013A00001331360FFF7B6FCA3E7B9F800300093F0
:1013B000C3F5006292B2A24228BF224641460BEB1F
:1013C000030001922BF076FCDDE9003213449BB25E
:1013D0009044B3F5006FA4EB0202A9F8003094B278
:1013E000BAD1DAF800105A46002000F0ABFE00280F
:1013F000D3D1DAF80030A9F8000003F50063CAF889
:101400000030A9E7E55401201346B6E70323002086
:10141000337003B0BDE8F04FFFF77CBC0D4C237870
:10142000032B7FF435AF04230020237000F0C2FEAD
:1014300008B900F04BFE0A4A13680133136013E742
:10144000044B1B78002B7FF423AF03B0BDE8F04FB3
:10145000FFF744BC8A570020483000204C30002061
:101460005C30002050300020105300204028002025
:10147000A0200020443000203C28002060300020C4
:101480004428002070B58AB0FFF744FD4248434D20
:1014900009F038FE4248012101F004F841480121D9
:1014A00001F000F8002108460123042202F0B4F8FC
:1014B000002301221146184602F0AEF80FCD03AC0E
:1014C0000FC495E80700384D84E8070003A92846B3
:1014D00024F042FB00240323AC676B67EB6C43F002
:1014E0000403EB64314E4FF48053336001250194C3
:1014F000009523462A462946204602F049F84FF433
:10150000802333602A492B4800F022FB42262948D9
:1015100000F058FB284B009604222146284626F06E
:1015200011FB264B052218702146254B00962846B4
:1015300026F008FB234B1870302307222146009326
:101540002846214B26F0FEFA204B187000F098FD3B
:1015500003A9204600F0DCFD1D4B18601B682BB969
:101560001C4B039A1A601C4B049A1A6000242346F1
:10157000CDE90044194A1A4841F2707105F07AF930
:10158000CDE90044174A184823464FF4FA6105F0A4
:1015900071F90AB070BD00BFA658002098CD0200B6
:1015A00000350A00003204000000014000E100E0C4
:1015B0007CCD0200E03000206ECD0200F924002036
:1015C00064CD0200F824002063CD0200F72400203F
:1015D000A42000205830002054300020450E000088
:1015E0001C2800201D0C0000443300202DE9F0438E
:1015F000AC4AAD4D1368AD4E85B00133136026F093
:1016000002F8AB4B1870AB4823F077FDAA4BC0B281
:101610001870AA4823F0D6FD2B78A94ADBB21370C4
:10162000A84B1A68A84B1A60A84B1A68A84B1A60F6
:10163000FFF786FD3378C4B2A3420CD0002C40F0F3
:10164000B781A44B1968A44AA4480023CDE900330C
:1016500005F052F9347004B3A14C25F062F9236807
:10166000C61A40F2DC5005F0D5F8864205D32B7837
:10167000022B40F09F81FFF78BFC25F052F9246884
:10168000041B4EF6602005F0C5F8844205D9954A42
:1016900013680133136000232B7025F0B4FF431E41
:1016A000DBB2012B904C914F914D924E00F2B381E1
:1016B000022840F083812368002B40F0988123F0BA
:1016C000DDFC2060002840F09281FFF739FD002802
:1016D00040F076814FF00108874B1A781AB100224A
:1016E0001A701BF01DF925F01CF93C68041B4FF41F
:1016F000C87005F08FF8B8F1000F00F07581A042B6
:1017000000F272812A88338892B29BB29A4240F0EA
:101710006B81684B93F85A32002B40F06581FFF7DC
:1017200083FA0446002840F05F81DFF81C9224F021
:10173000E1F899F800300746BBB1704A0223C2F8BD
:10174000243402F1C062C2F8283424F0C8F82146DB
:101750008046012004F0DEFB404624F0C4F8684ACD
:1017600089F80040136801331360384624F0C8F844
:10177000644B654F1A785AB100221A70634A136895
:101780000133136029F0FEFE614A012313703B70A0
:10179000DFF8B88198F8003063B15D4C23784BB125
:1017A00023F07AFC30B15B4B1B781BB1002388F827
:1017B000003023703B7843B123F060FC0446FFF710
:1017C00033FA002840F02C81387025F01CFF0328E4
:1017D000514F40F04C8123F051FC3B680446002BF4
:1017E00040F03E8138604D4B1A68A24209D84C4AFD
:1017F0000A341C601368002101330120136029F0B2
:1018000031FE484A484B10681968884214D0126863
:101810001A60464B464A1B78002B00F02B81454B43
:101820001B78002B40F0268113780133DBB2022BAA
:10183000137001D924F0CCFF3F4B1A7822B100225B
:101840001C481A7000F0DEF923F026FC08B93B4B67
:10185000187023F021FC002800F09F8004F0BAFFEC
:1018600007460C4604F0D0FF0023024621463846C6
:1018700023F04CF8314B1F780446002F68D1012229
:101880000C481A7000F0AEF92D4A1368013313604A
:101890000321CDE900772B4A0523CC20FFF7E0FA9E
:1018A00056E000BF182800208A57002085570020E6
:1018B000F6240020E030002088570020FC30002073
:1018C0008B57002050300020683000204C30002022
:1018D00064300020A82000201D0C000044330020AC
:1018E000443000205C3000200C280020CC30002048
:1018F0001253002014530020AE58002000A00040D6
:10190000D03000208C5700208957002088300020DC
:101910008D5700208457002000280020FC2700203D
:1019200078300020E0270020F8270020F224002053
:101930008757002083570020A35700208657002098
:10194000102800205DCD0200A45700208E570020F3
:10195000514B1A68A2421AD80F341C60022300248B
:10196000019303AB224600930A214C4BADF80C4087
:1019700020460AF05DF9012108460AF099F921464E
:10198000204626F0BAF9464A136801331360454BE6
:101990001B681D2B01D924F01BFF434C434F2A88A1
:1019A000338892B29BB29A4267D105B0BDE8F0830A
:1019B000642148E624F0B5FF20605EE60023236042
:1019C000FFF7BEFB20BBDFF8F88024F0AAFFD8F8B1
:1019D0000030C31A002B044611DA24F0A2FF4FF4A2
:1019E000C8703B6804F016FFFFF794FAC0E623F0D6
:1019F00045FB2368C01A3B283FF667AEE0E7C820E6
:101A000004F008FF2044C8F800001AF089FFE4E75A
:101A10004FF0000860E6264A002323601370DCE7DD
:101A2000DFF8A080D8F80030A3423FF6CEAE25F014
:101A3000EAFD00287FF4C9AE05343870C8F80040CC
:101A400008F0C2F908F018FB1A4A1B4B106019681D
:101A500011B91168194A11601A6801321A60B4E6A6
:101A6000C31A3B2B7FF6BFAE24F0B2FEBBE60023C9
:101A70003B60C6E600231370DEE62B889BB25A1C3F
:101A800092B2DBB22A80E35C8DF80C30012203A90C
:101A9000384600F09FF882E7F42700205BCD020073
:101AA000B0300020E4270020A6570020E0300020BE
:101AB000AE5800209C2000201428002098200020F0
:101AC0000828002004280020064B1B6810B433B1FE
:101AD0005C6824B19A6923465DF8044B18475DF8A9
:101AE000044B704764330020074B1B6813B54BB1A0
:101AF0001C683CB19B69CDE900134388426841787A
:101B00000078A04702B010BD64330020044B1B686E
:101B10001BB19A680AB1986910470020704700BF4E
:101B20006433002030B5094A002312F8135085426F
:101B300002EB430404D16078431A5842584130BD47
:101B40000133132BF1D10020F9E700BFB4CD02001F
:101B500070B54FF419728AB00C46002106462BF07E
:101B600083F80FCC35460FC50E4B1E60002305933E
:101B70000D4B01930D4B02930D4B039394E807001B
:101B80000C4B04930C4B06930C4B07930C4B85E8C2
:101B9000070001A906F11C00CDE9083623F096FCE8
:101BA0000AB070BD64330020C91A00000D1B00008C
:101BB000DD500200E91A0000E3500200B9500200B3
:101BC000D1500200024B18601C3023F025BB00BF2F
:101BD00064330020024B18601C3023F086BC00BF29
:101BE00064330020064B10B50446186023F079FAE0
:101BF00028B104F11C00BDE8104023F00ABB10BD61
:101C000064330020094B10B50446186023F069FACC
:101C100050B11C342046002123F0EFFA2046032166
:101C2000BDE8104023F0E9BA10BD00BF64330020C6
:101C30002DE9F74F1D461C4B11F0FB0F07461446CC
:101C400018600CD123F04DFA48B1012D07D90234A8
:101C5000023D07F11C086FF00309032D02D803B001
:101C6000BDE8F08F668894F800A0617876BAB6B2C5
:101C700006F1040BAB45F2D8BAF1C80F07D13846CC
:101C8000FFF7C0FFA9EB06065C443544E5E7504684
:101C9000FFF748FF0028F5D00A460096231D51465D
:101CA000404623F0BEFAEDE764330020F0B51D4650
:101CB0001A4B8FB004460E461746186023F011FAEF
:101CC00010B900200FB0F0BD00211820FFF72AFF47
:101CD0000028F6D0FFF71AFF9DF858200392C31989
:101CE000159A02921D449DF8502001920095B4F877
:101CF0006022314604A823F0BCFA0028E1D0B4F8F1
:101D000060320133A4F860320022009004AB04F189
:101D10001C00182123F085FA0120D3E7643300204A
:101D20002DE9FF411D46224B07290746144618603E
:101D300004D008291FD004B0BDE8F08123F0D1F908
:101D40000028F8D0032DF6D9668894F800806178D1
:101D500076BAB6B2331DAB42EDD84046FFF7E2FE8D
:101D60000028E8D00A460096231D414607F11C00D2
:101D700023F057FADFE723F0B4F90028DBD00B2D6E
:101D8000D9D9E07A2188D4F80220D4F80630A67A8E
:101D900000F10C0CAC45CED80C3449BA0290CDE918
:101DA00000641BBA12BA89B23846FFF77FFFC2E758
:101DB000643300201FB50D4AAA230446082101A858
:101DC000CDE9012323F0B0F923688DF80C0053B15D
:101DD000092101A898472368092101A89847236889
:101DE000092101A8984704B010BD00BF55AA0355AA
:101DF00030B50A4C0A4B22680A4D1A6085B00A4B6E
:101E00002B600A4B019303F0B5F92B68029001A9EE
:101E10002068039324F0E4F805B030BDB82000201A
:101E2000C43E0020C03E0020AC2000207505030009
:101E3000014B186824F0E8B8B820002038B5084DE8
:101E400003F098F92B680446D3F8B00203F086F942
:101E5000286824F0ECF82046BDE8384003F07EB94D
:101E6000B820002038B500F0D1FE0E480E4D0121FB
:101E700000F018FB012201241146104600F0E8FD95
:101E8000224621462046C5F8804000F0E1FD20466C
:101E9000C5F884402246214600F0DAFDC5F88840A6
:101EA000002038BD30253E0000400E401A4B07B5DB
:101EB00001225A641A6842F480721A6001A801F083
:101EC0003DFD9DF80530012B03D89DF80430022B11
:101ED0000DD9124B4FF41872C3F88C22104AC3F874
:101EE0009022104AC3F8F0220F4AC3F8F82203F0F8
:101EF00017F903F0C7F803F0DBF8FFF7B3FF24F09E
:101F0000FAFB00F0BDF803F073F900F0E7F903B055
:101F10005DF804EB03F0CABF00000E4000400E4025
:101F20009A6F0500180100040084320808B50EF00D
:101F30006DF8024B00221A7008BD00BFAF58002098
:101F4000014823F045BC00BF9405030008B500F02C
:101F500083F8124B12498B4212D3124B12490020C4
:101F60008B4218D3FEF734FD186850F822405868A9
:101F700040F82240013298688242F5D30C33EAE7F8
:101F80000022F8E71C6844F8220001325C68A24293
:101F9000F8D30833E4E70022F8E700BFB872030083
:101FA000C4720300C4720300C47203000048704787
:101FB00000F04902104AD2F8943003F00703023BC4
:101FC000032B13D8DFE803F00C14020E0B4B1B6835
:101FD000D2F80001C0F304200130B3FBF0F07047E9
:101FE000074BF4E7074B1B685B08F1E7054BEEE78F
:101FF0004FF40043ECE700BF00400E40E02000201B
:10200000E4200020D820002008B5FFF7D3FF054BBF
:10201000D3F80831C3F308230133B0FBF3F0024BCC
:10202000186008BD00400E40DC200020014B1868FD
:10203000704700BFE4200020054B1860054BD3F823
:10204000943003F00703022B01D1FFF7DDBF704787
:10205000E420002000400E40044B054A9A60D3F86B
:10206000882042F47002C3F88820704700ED00E039
:1020700000000000014B1868704700BFE0200020FE
:102080000F4BD3F82838A3F17E62A2F58432B2F563
:10209000605F10B511D219680A4A91420DD10A4CFD
:1020A000227812F0FD0F01D0002010BDDB699847A7
:1020B0000028FAD101232370F6E74FF48170F4E78A
:1020C0000000E10F07B0CD5EB05800204FF0005384
:1020D0000B4A1A600B4A01239360136823F4E063F0
:1020E00043F480631360BFF34F8F0749074BCA68FF
:1020F00002F4E0621343CB60BFF34F8F00BFFDE7F4
:1021000002020FF000500E4000ED00E00400FA055E
:102110000B4BD3F82828A2F17E63A3F58433B3F5E3
:10212000605F09D2126BA2F17E63A3F58433B3F52D
:10213000605F01D2936818474FF48170704700BF09
:102140000000E10F30B40D4CD4F82858A5F17E649E
:10215000A4F58434B4F5605F0BD22D6BA5F17E64D9
:10216000A4F58434B4F5605F03D22C69A44630BC76
:1021700060474FF4817030BC704700BF0000E10F32
:102180000B4BD3F82828A2F17E63A3F58433B3F573
:10219000605F09D2126BA2F17E63A3F58433B3F5BD
:1021A000605F01D2536918474FF48170704700BFD8
:1021B0000000E10F0E4B07B5D3F828280190A2F1DB
:1021C0007E63A3F58433B3F5605F0ED2126BA2F188
:1021D0007E63A3F58433B3F5605F06D29369012172
:1021E00001A8984703B05DF804FB4FF48170F9E74C
:1021F0000000E10F70B5D0B1C9B10E4E431E0139D8
:1022000013F8014F325D02F00302012A11F8012F89
:10221000B55C05F00305204608BF04F12000012D40
:1022200008BF2032801A01D1002CE9D170BD0120F5
:10223000FCE700BFAF71030010B501210446094857
:1022400000F030F90848012100F02CF9A37820783B
:102250006178B3FA83F35B09042201F0DDF9002011
:1022600010BD00BF4041050000350A002DE9F041D6
:10227000DFF86480D8F86070D8F86C301F4000D563
:10228000FEE7134C01260025374218D02368C8F812
:102290006860A3B1A16862680131A16028469847CF
:1022A000637B012B0BD150B90A4B03EB45131A7B0F
:1022B00060F341021A731A7F60F341021A77013505
:1022C000082D4FEA460604F11004DDD1BDE8F08187
:1022D000243700202436002000200E40024B1968CD
:1022E000024B18680CF0FABFE820002008210020FB
:1022F00070B59400224605460E4623F02BFC431C85
:102300000AD058B92246314628462AF083FC0028D4
:10231000034808BF002070BD0248FCE70248FAE706
:1023200010E000F021E000F024E000F010B50446D9
:1023300001F044FA431C10D088B901F01DFB20F0D5
:10234000030023462044984201D1002010BD53F8D9
:10235000042B0132F7D00348F8E70348F6E70348B7
:10236000F4E700BF0EE000F021E000F024E000F010
:1023700008B523F0B4FA014B186008BD943E002064
:10238000014B186823F0AFBA943E00200C4B9842E2
:1023900005D90C4B984210D80122012301E00022FC
:1023A000134609490B640949D1F8003123F08073C1
:1023B00043EA0263C1F8003170470222EDE700BF33
:1023C0000048E8010090D0030000C84300400E40E0
:1023D0000F4B5B680F4B30B500221C46C9B21D790C
:1023E0008D4202D11D6885420DD20132052A03F1CA
:1023F0000803F4D10321064A536823F0407343EAEB
:102400000163536030BD04EBC2046179F3E700BFA0
:1024100000000E40A007030038B5074C41F67133A9
:10242000256C2364FFF7C2FDADB20021FFF7D0FF9A
:102430000DB10023236438BD00000E40044BDB6B5C
:102440005B0604D4034AD2F8C830002BFBD1704796
:1024500000300E400000C64308B5FFF7EFFF024B07
:102460005868C0F3014008BD00300E40044BD3F85B
:102470004421D20703D4D3F840211042FBD1704746
:1024800000400E4038B5064C256C41F6713323648C
:10249000ADB2FFF79DFF0DB10023236438BD00BF2F
:1024A00000000E4038B5C0F30323013B092B11D8BF
:1024B000DFE803F0052710102B221D101511154D14
:1024C000C0F3043405F1424505F5801504EBC50061
:1024D0008000016038BD104DC0F30434F2E70F4DA9
:1024E000C0F304344FF48030FFF7C0FFEAE7C0F3D5
:1024F00004340B4D1020F7E7C0F30434094D0120DC
:10250000F2E7094DC0F30434DCE7084DC0F30434AE
:10251000D8E700BF00400E4050410E40F0400E4052
:10252000E8400E40E0400E40C0400E40B0400E403B
:10253000C0F30313013B092B2AD8DFE803F0050B96
:102540000F1929291F23374B274BD3F80001C0F35C
:1025500004207047244BD3F81401F8E7224BD3F83A
:102560000031C3F300630133012098400138704704
:102570001D4BD3F80C01C0F3082070471A4BD3F859
:102580000801F8E7194B984204D0194B984207D03C
:1025900000207047144BD3F8203103F00F03E3E71A
:1025A000114BD3F82031C3F30113DDE7114B9842EF
:1025B0000CD003F5B01303F580539842E8D10A4BD1
:1025C000D3F82831C3F301230433CDE7064BD3F806
:1025D0002831E8E7084B9842DAD1034BD3F83001B1
:1025E00000F00300704700BF00400E408006160058
:1025F00080162E0090171A00A009140000F00F009A
:102600000138072852D8DFE800F00415225131398B
:1026100051412C4BD3F8943003F00703023B052BB8
:1026200006D8DFE803F04B29410305450B2070472E
:1026300005207047234BD3F8803003F00703013B9C
:10264000042B17D8DFE803F01830163638001D4B7E
:10265000D3F8843003F00703013B042B0AD8DFE8EA
:1026600003F00B2303292B0006207047154BD3F8EA
:102670008830E2E70120704703207047114B1B6F41
:1026800013F0010F0CBF0720092070470D4BD3F842
:102690005C3103F03003202B10D0302B10D0102BE6
:1026A0000CBF0720012070470220704700207047B0
:1026B0000C2070470A2070470D2070470420704797
:1026C0000820704700400E4008B50146FFF796FF0E
:1026D0001A4B994212D01A4B994213D0194B994276
:1026E00004D1194BD3F8800000F00700013804280A
:1026F00022D8DFE800F00B0F17130B00124BD3F8B2
:102700008400F1E7104BD3F88800EDE7BDE80840FE
:1027100023F01DB8BDE80840FFF7ACBCBDE8084099
:1027200023F018B8FFF746FC074BD3F80031C3F38A
:1027300000630133D84008BD0020FCE703002000FF
:102740000500240002001E0000400E4000F4781333
:10275000B3F5B01F10B5044674D025D8B3F5402F9B
:102760005ED010D8B3F5802F49D005D83BB1B3F572
:10277000003F4FD0002010BDB3F5202FFAD1BDE8A7
:102780001040FFF717BCB3F5801F00F08480B3F54D
:10279000A01F4DD0B3F5602FECD14A48FFF72EFFB4
:1027A000072878D00928E9E7B3F5381F53D013D8A4
:1027B000B3F5001F58D00AD8B3F5D01F56D0B3F5E3
:1027C000F01FD7D14048BDE81040FFF77DBFB3F5FB
:1027D000101FCFD13D48F6E7B3F5481F4DD0B3F5F4
:1027E000781F65D0B3F5401FC4D13948FFF76CFF9F
:1027F000384BD3F82831C3F30123043320E0FFF72B
:10280000D9FB344BD3F80C31C3F308230133B0FBAD
:10281000F3F0B0E7FFF7CEFB2E4BD3F80831F3E728
:10282000FFF7C8FB2B4BD3F81431C3F30423EDE7B8
:102830002648FFF749FF274BD3F8303103F0030355
:10284000D84098E72048FFF73FFF224BD3F82031CC
:1028500003F00F03F4E71C48FFF736FF1D4BD3F8D6
:102860002031C3F30113EBE71948ACE71848FFF731
:102870002BFF184BD3F82831F3E71748FFF7BEFEBC
:10288000072808D0082809D004287FF473AFBDE8D2
:102890001040FFF7CBBB114B18686CE7FFF78AFBC2
:1028A0000C4BD3F80031C3F3042303FB000062E7B1
:1028B000FFF780FB0146204623F00CF8B1FBF0F057
:1028C00059E700BF06000E0002001E0005002400AC
:1028D0000300200000400E40B80032000C21002010
:1028E00010B5FFF799FD094B07225A67FFF762FB06
:1028F000FFF74CFDFFF788FB0446FFF7ADFD0146EF
:102900002046BDE81040FFF7BDBD00BF00400E40AF
:10291000014B1880704700BFB824002010B5042870
:1029200013D8DFE800F047032F132100294AC1F331
:102930000801D2F86838002BFBD1274A136A23F428
:10294000FF7323F001030B43136210BD214A01F012
:102950007F01D2F86038002BFBD11F4A136923F0A6
:102960007F030B431361F0E71A4A01F07F01D2F8AD
:102970006438002BFBD1184A936923F07F030B4383
:102980009361E2E7144AD2F89030536A23F030039F
:1029900043F010035362146B104BC1F3C3100330A8
:1029A0000F2803EA040328BF0F200B4343EA0073F8
:1029B0001363CAE74F29074A28BF4F21D2F874385A
:1029C000002BFBD1044A936B23F07F030B439363EB
:1029D000BBE700BF0020C84300400E4000F8FF0FD7
:1029E000104A536A13F0300F18D0202913D0302921
:1029F00014D000290C4B08BF4FF44003D2F89010BC
:102A000033EA0101FAD15B0246BFD2F8A000C0F35D
:102A10008020012070474FF40003EFE74FF440039C
:102A2000ECE700BF00400E40FFF3E17F02280AD12F
:102A300029B1064B4FF48060C3F8A800596612B163
:102A40000220FFF7CDBF0120704700BF00400E40BD
:102A5000F7B507460C461546072800F28680DFE8E2
:102A600000F029303C413684840401A800F066FF60
:102A70009DF80530012B03D89DF80430022B18D99E
:102A8000002C74D14FF400410E240F23474801223B
:102A90000166A240D0F890101142FBD1002D64D005
:102AA0000122424902FA03F3D1F890201A42FBD1E5
:102AB0005BE0FEE7002960D14FF400710824092390
:102AC000E4E700295ED1802106240723DEE7002900
:102AD0005CD1202104240523D8E741B90821022430
:102AE0000323D3E7002955D102210123CEE72F4A42
:102AF000536A13F0300F51D12D4BDB6B536ADB0758
:102B000041BF536A23F0300343F01003536204269D
:102B100002230321254A1666264A13449B0018689F
:102B20000028FCD00DB311448D002B68002BFCD085
:102B3000022F1AD1CCB11D4C616A11F0010131D0C4
:102B4000012220213846FFF771FFD4F89C70012242
:102B500000210220FFF77CFFC7F30A010220FFF7E4
:102B6000DDFE26662B68002BFCD003B0F0BD4FF4D1
:102B700080460E230F210024CCE74FF480760823F3
:102B80000921F8E7402606230721F4E7102604234D
:102B90000521F0E7012600233146ECE70426022355
:102BA0000321E8E73846FFF71BFFCEE700400E4061
:102BB00000300E408004F21010B50246B8B9012270
:102BC0001146FFF745FFFFF727FC0F4B04225A671A
:102BD000FFF7F0F9FFF7DAFBFFF716FA0446FFF705
:102BE0003BFC01462046BDE81040FFF74BBC0128E6
:102BF00007D10146FFF72CFFFFF70EFC024B032223
:102C0000E5E7FFF709FCE3E700400E4038B5FFF7C2
:102C10000DFA0021044600F087FA1248FFF7B6FBD0
:102C2000012211460220FFF713FFFFF7F5FB0CB15D
:102C3000FFF704FC0C4B02225A67FFF7BBF9FFF7C2
:102C4000A5FBFFF7E1F90546FFF706FC014628461C
:102C5000FFF718FC2CB920460121BDE8384000F0F0
:102C600063BA38BD0148E80100400E40012210B5AA
:102C700011460320FFF7ECFEFFF7CEFB084B0522C1
:102C80005A67FFF797F9FFF781FBFFF7BDF9044695
:102C9000FFF7E2FB01462046BDE81040FFF7F2BB1C
:102CA00000400E4010B504461120FFF7A7FC00219C
:102CB00001220220FFF7CCFE184A217C536A23F040
:102CC0000103022908BF43F001035362144B21782A
:102CD000C3F8A014637AA18843EAC123D362136BBB
:102CE000A07A217A03F07F630343E08843EAC0239C
:102CF00043EAC11303310F2928BF0F2143EA0173AF
:102D00001363A37B617B1B0143EA0133E17B0B432C
:102D1000217B43EA0143536310BD00BF00400E40D6
:102D20000000C843034B5868C0F30800003818BFC0
:102D30000120704700ED00E0034BD86B80F04000AD
:102D4000C0F38010704700BF00300E4042EA0322FB
:102D5000B2F5007F10B5194C29D00AD8B2F5807FA2
:102D600022D040F201139A4215D062B9D4F81C3235
:102D70000BE0B2F5407F1DD040F201339A4210D0F3
:102D8000D4F8283201E0D4F82432C3F30722DBB2AE
:102D900003600A6010BDD4F824321A0EC3F307434F
:102DA000F6E7D4F82832F8E7D4F81C32F5E7D4F87F
:102DB0002032EAE7D4F82032EFE700BF0081E00FCD
:102DC00008B5FFF7B9FF20B1024AD2F8C830002B8E
:102DD000FBD108BD0000C64308B5FFF7ADFF80B1C9
:102DE000FFF7EEFF074B19685A68C1F30121C2F3E0
:102DF000014291421A688CBF42F0100222F0100288
:102E00001A6008BD00300E40064B1B68DB0608D573
:102E1000054B1B69C3F30443082B02BF034B044A51
:102E20001A60704700300E4000400E40D82000204D
:102E3000C0EA210170B5FFF77FFF38B12D4B1A783A
:102E40001023C2F1020293402B4A13612B492C4DEF
:102E5000D1F8804145F60E03C1F880312B6823F08C
:102E6000AA03DB05DB0D0B66FFF7AAFF224B1B68ED
:102E7000D80604F0010415D5D1F84031DA01FBD4AD
:102E8000204B1B680B61204B1B78052B0AD11F4B75
:102E90001E68FFF795FF184B59683046C1F3014192
:102EA000FFF7F0FA184B1B78023B0A2B0AD8DFE831
:102EB00003F00615170909090909091A1D00002060
:102EC000FFF77AFE2B68DB075EBF0C4B02221A6607
:102ED0001CB10A4B0022C3F8802170BD0120EFE72E
:102EE000FFF794FEEEE7FFF7C1FEEBE7FFF7F8FC14
:102EF000E8E700BFB158002000300E4000400E400F
:102F00009C3E0020983E0020B2580020D82000208F
:102F100010B50B4C0B4BD4F890201A601120FFF722
:102F20006DFB094B1870FFF74BFF084B084A5B68B5
:102F3000C3F301431370074B22691A6010BD00BF31
:102F400000400E409C3E0020B258002000300E4051
:102F5000B1580020983E0020064942780B6823F4BF
:102F6000407343EA0223022A0B6004BF024B5B6AF0
:102F7000704700BF00300E4000400E4010B50446C0
:102F800008B1FFF7C5FFFFF727FF144A136943F0A5
:102F90000403136122F0C8FD22F0C7FD104B114A53
:102FA000C3F8242403F559231B68DB060ED522F051
:102FB00096FC29F0B1FE22F096FC22F0B7FD03F05A
:102FC000E3F92CB1BDE81040FFF734BF30BFF4E7A0
:102FD000FFF71AFFBDE81040FFF716B800ED00E05C
:102FE00000A000400000FFFF10B5044608B1FFF745
:102FF0008FFFFFF7F1FE1A4BD3F8802145F60E0143
:10300000D207C3F8801148BF00224FF4207119661F
:1030100048BFC3F88021134A136943F004031361C6
:10302000114B124AC3F8242422F07EFD104B1B687A
:10303000DB060CD522F053FC29F06EFE22F053FC87
:1030400003F0A2F92CB1BDE81040FFF7F3BE30BF8A
:10305000F6E7FFF7D9FEBDE81040FEF7D5BF00BF89
:1030600000400E4000ED00E000A000400000FFFF27
:1030700000300E400E4A0379916921F03F010B4365
:10308000017843EA8103417843EA4103817843EAC6
:10309000C103C178012908BF43F00103936113689C
:1030A000417923F4403343EA01431360704700BF82
:1030B00000300E402DE9F04104460D46FFF73CFE7E
:1030C00060B3DFF86080FFF77BFED8F80430C3F30D
:1030D00001439C4222D0124BD3F80031FEF76AFF25
:1030E000022C07464FF0100609D12146FFF7CAF916
:1030F000C8F8106095B1BDE8F041FFF761BEC4F1BA
:1031000002039E40C8F810600DB1FFF759FE2CB9BC
:1031100021463846BDE8F041FFF7B4B9BDE8F0817B
:1031200000400E4000300E4038B505460C46FFF713
:1031300003FEB8B145B90C4BD3F80051FEF73AFF86
:10314000C5F3042505FB0005084B1B7821463BB160
:10315000074B9D4204D80220BDE83840FFF7AABFC4
:103160000020F9E738BD00BF00400E40B3580020F2
:10317000002D3101034B02781A7001210020FFF766
:10318000D3BF00BFB3580020174B4AF6E85210B522
:10319000596B5A639A6FD407FCD41B6C13F003036A
:1031A00006D0124A01249842C2F8B44A05D110BD93
:1031B00018B90E4BC3F8B40AF9E70B4B9A6FD20754
:1031C000FCD41A6C22F0030202431A649A6F12F0C4
:1031D0000102FBD10038054C18BF01200129C4F8B9
:1031E000B40A08BF5A63E2E700300E400000C6434D
:1031F0002DE9F04F00238BB0CDE90433CDE9063340
:10320000CDE90833A0F5E163B3F5966F054601916A
:10321000934603D900200BB0BDE8F08F624BDFF876
:103220008C81D3F81842B0F5E16F15BF4FEA146AEC
:10323000C4F3072AC4F30744E4B20694CDF824A0EB
:10324000D8F84C60C6F301768CBF012200223346C9
:1032500007A904A815BF4FF4E1674FF496674FF430
:1032600096694FF416790392FFF770FDD8F8E030B5
:10327000039AC3F3012308A905A80293FFF766FD8B
:10328000A5EB070CAAEB04020CFB02F2B2FBF9F26D
:1032900014445445079F0498089A0599BAD8A2EB9C
:1032A000010E0CFB0EFEBEFBF9FE11EB0E012CBF56
:1032B0004FF0010E4FF0000E8A42ABD3BEF1000F6B
:1032C000A8D13A1A0CFB02F2B2FBF9F280182CBF1B
:1032D0000122002287429DD3002A9BD1029BBBF191
:1032E000000F0FD0D8F85C20B5F5E16722F4FE425C
:1032F00018BF012722F0020242EA470242EA0422F2
:10330000C8F85C20019A0AB9012084E7264A022EF7
:10331000D2F830223ED0032E3FD0012E14BFD2B2BD
:10332000C2F30722120312F4702F7FF473AF1F4E03
:10333000F46E24F470442243F2661B4A022BD2F846
:1033400030222CD0032B2DD0012B14BFD2B2C2F3CC
:103350000722120312F4702F7FF45CAF134CD4F8E1
:10336000E03023F470431343C4F8E030636E8842C6
:1033700038BF084623F4FF73E72823F0010328BF72
:10338000E720B5F5E16F18BF43F0010343EA4003BE
:103390006366B9E7C2F30742C4E7120EC2E7C2F39D
:1033A0000742D6E7120ED4E70081E00F00300E404E
:1033B0002F4B1A6FD96C11F0010F02F0060242D0A8
:1033C000002A40D013284FD9143813288CBF10235B
:1033D00008232749013BCA6C180322F47F4240EAC4
:1033E00003231343CB64234BCA6C1B88C2F3032211
:1033F0002833013202EB820003EB5303B3FBF0F3FB
:10340000C86C013B072B28BF072320F0EE6040EA81
:10341000036343F48013CB64174BB3F90030002BE4
:1034200010DB2833500800EB420203EB5303B3FBDD
:10343000F2F30A6D072B28BF072322F0700242EA3D
:1034400003130B657047D96C01F00101114304D1DE
:10345000092809D90A380928B8E7DB6C13F00103F9
:10346000B7D01AB92728B1E70423B2E70023B0E7A1
:1034700000300E401A53002016530020064A074B16
:10348000D3F88039136F23F0070303431367044B0A
:103490001888FFF78DBF00BF00300E400000C64304
:1034A000185300202DE9F041C288B0F808808588C3
:1034B000B0F90C6047784A2A04464FD9B2F5FA7F32
:1034C0004ED340F6C3139A428CBF4FF040524FF098
:1034D00000522849CB6C23F0405323F00103002E07
:1034E000A8BF43F001031343CB64D1F8E03043F4A9
:1034F0004073C1F8E030204B1D80CB6E43F08073E9
:10350000CB661E4BD3F8800900B10420FFF7B6FF4D
:103510001B4BA3F800801B4B28461E80FFF748FF7B
:10352000A37B03B3012B22D0012260881146FFF751
:103530005FFE054678B10F4AD36B43F48063D363D3
:103540003846FFF721FEA37AA3F1200253425341EC
:103550000A4AC2F894372846BDE8F0810022B8E74D
:103560004FF08052B5E7034B074A9A65DCE7014B01
:10357000064AFAE700300E40185300200000C64308
:103580001A5300201653002077402057372110B7D8
:10359000072AF8B501F0030614461F464FF00F0145
:1035A0001FD8950000FA05F2A940154822F0C3FA89
:1035B0000321144806FA05F2A94022F0BCFA124988
:1035C0009DF81830114A214489000F60C1F88030FD
:1035D0000123A340C2F824349DF81C30C1F8003305
:1035E000F8BDA2F10805AD0000FA05F2A9400848AF
:1035F00022F0A1FA0321074806FA05F2A940DCE708
:1036000000A4004008A400408020851000A00040D5
:1036100004A400400CA4004000EB4000F8B50D46A7
:103620001F46040116463AB1154801238B40204439
:10363000C7B100F1C0600360072D4FF00F0114D82F
:10364000AB00104806FA03F29940204422F073FAC6
:103650003EB90B4A0123AB40224477B102F1C0626C
:103660001360F8BD00F18060E5E7A5F108039B0059
:10367000054806FA03F29940E7E702F18062EFE7B6
:103680000CA0004004A0004008A00040054B5A6870
:103690005B68054B41F671321A649A6822F00102A8
:1036A0009A60704700300E4000000E40034B9A684D
:1036B00022F001029A6000221A64704700000E4056
:1036C000094A0A4BD969C90705D512B96FF002003A
:1036D0007047013AF6E7002AF8D001221861DA6053
:1036E000D86940F3800070478096980000000E4033
:1036F00070B509B9002070BD0E4A0023082550F8A6
:10370000234094610C4CD5600133D669F60705D58A
:1037100014B96FF00200EEE7013CF6E7002CF8D098
:10372000D469A40702D49942E9D1E3E76FF001001C
:10373000E1E700BF00000E40809698002DE9F843B5
:103740001C4B0D4641F671311E6C19641A498046B6
:1037500048684968996841F00101B6B299609708D4
:103760004FF00009B94501D3002005E008EB8904BA
:103770002046FFF7A5FF48B10E4B9A6822F00102E0
:103780009A600EB100221A64BDE8F883C4F30A01FE
:10379000C1F500618908A7EB0903994228BF1946C2
:1037A0002846FFF7A5FF0028E6D1894405EB8105EF
:1037B000D8E700BF00000E4000300E40234B41F61A
:1037C00071311A6C10B5196421494C6849689968BF
:1037D00041F00101996001211861D960D9694C0754
:1037E00092B209D5996821F0010199600AB10022CD
:1037F0001A644FF0FF3010BD0221D9601549D86915
:10380000C00700D569B9D86910F002000BD09968DB
:1038100021F0010199600AB100221A646FF00100E1
:10382000E9E70139EBE741B9986820F001009860B9
:1038300002B119646FF00200DDE7996821F001011F
:1038400099600AB90020D6E71864FBE700000E4033
:1038500000300E4080969800014B01229A6070471C
:1038600000500E40134B1449F0B500225D68134E12
:103870001046D6F8E8714C680B687F070BD4B3F597
:10388000006F06D012D8B3F5007F02D0B3F5806F79
:1038900001D144F480742B4202D02C4208BF18435B
:1038A0000132092A01F10801E3D1F0BDB3F5803FEF
:1038B000EEE700BF00500E40C80703000040E00FD5
:1038C0008B784A789B0143EA82030A781343CA78CB
:1038D00043EA02130A7943EAC2234A7943EA0233EC
:1038E0008A79043043EA42430001014A1350704789
:1038F00000200440014B1860704700BF0000844264
:10390000437882789B0043EA021302781343C2781B
:1039100043EA4213027943EA0223427943EA02333B
:10392000827943EAC233C27943EA0243027A43EA24
:103930004243014A13607047002004400D4AD2F808
:10394000E430D2F8E0109B0003F03C03C1F3811196
:103950000B438370D2F8E03003F03F034370D2F89A
:10396000E830D2F8EC2003F0F003C2F30312134363
:103970000370704700FF0FE0044BD3F8E4301B0ED8
:103980000A3303F01F030120984070470081E00FC5
:1039900070B5054616461C4619B91448FEF7D6FE02
:1039A0000146402C1BD003D8DCB1202C1BD070BDAD
:1039B000602CFCD1042303FB06F2530803EB4113F4
:1039C000B3FBF2F30A4A203B02EAC3032A6822F05F
:1039D00060022A602A6814432C606B61E7E70623C3
:1039E000E9E71023E7E70823E5E700BF40410500CA
:1039F000F8FF7F0040F6AA63C36041F2050200238E
:103A0000036042600D4A83604361C36482640C4A70
:103A10000366904243678367C3670DD002F58062F7
:103A2000904205D002F58062904205D083657047D0
:103A300003658365C36570470365F7E7F9FF010018
:103A40000000014038B5044626F012F90FCC044DB1
:103A50000FC594E80F0085E80F00002038BD00BFB7
:103A6000A03E002047F6FF739A42F0B572D00629B7
:103A700072D83A4B5B5C022B6ED8394D05EBC30410
:103A8000DF00A17815F83330012938BF0121012B5F
:103A900013D1E0780025401AA84202D80844C0B2E9
:103AA000F0BD431BA0EB5303666836F913609642E2
:103AB000CCBF03F1FF301D46EEE760680028EFD071
:103AC000B0F90040944204DBB0F902409442B8BF20
:103AD00014468388FF2B04BFB0F90620B0F908C054
:103AE0003D440FBF01260026C8224FF0280C131BAF
:103AF00093FBFCF333446E781BB29E4201DD002B36
:103B000001DA731E1BB201339BB24FF47A7C071D9E
:103B10005D1E2DB24FEAC50E00EBC5059E42EA8838
:103B2000AD6814FB025222EAE27202F15C02B2FBBF
:103B3000FCF205DD37F83350954203F10103E7D27B
:103B400000EB0E039888904228BF1046884238BF89
:103B50000846A4E7FF20A3E70020A1E71008030020
:103B6000A03E00200629F0B561D8324B595C0229ED
:103B70005DD8314B13F83100012816D103EBC10396
:103B80009C78D8785B68012C214638BF012190428F
:103B900094BFC1EB0001C1EB0201CAB2001B82421B
:103BA000C8BF002233F91200F0BD002A3DD003EB5C
:103BB000C103596800293AD09878904202D3B1F9EC
:103BC0000200F1E7DC78B1F900009442ECD95C78AE
:103BD0008B88A3F1FF06013C734201F10405E4B2B6
:103BE000734101F10C07DEB2B44216D805EBC303F2
:103BF0004FF47A75B3F902405B686A43D21A04EB5A
:103C0000D47302EB630292FBF4F29042CCDBB1F985
:103C100002009042C8DC10B2C6E737F833C09445C2
:103C200003F10106E2D33346DDE70448BCE704486C
:103C3000BAE700BF10080300A03E00200CFEFFFF03
:103C40000080FFFF08B50448FFF7FCFEBDE8084010
:103C5000012026F032B800BF180803007FB51422F7
:103C6000002101A829F000F8044B029301A94FF0AC
:103C7000FF3026F05EF807B05DF804FB006A18001C
:103C8000024B03480122C3F8002670470010C843C6
:103C900000000F40094B98420ED003F58063984214
:103CA00009D10122064B03EBC2035A68054B1344AA
:103CB0009B0000221A6070470022F3E700000F40CB
:103CC000D00803008005F21010B504462369DB0715
:103CD000FCD404F1800021F05AFE014B236510BD95
:103CE000510545012DE9F043064689B0174698462F
:103CF0000C4600294DD1FFF7C3FF0146044630466C
:103D000021F086FF4FF0010996F86C5006F15C0136
:103D1000C5F10F06C5F10E03F6B22A460DF10100FA
:103D200001358DF8003028F0C5FF324600210DEB3B
:103D3000050028F099FFC6F110000123324600214A
:103D400068448DF80F3028F08FFF21F0C8FD04F192
:103D5000800605466946304621F019FE0E4B236564
:103D60002369DB07FCD404A9304621F02DFE284648
:103D700021F0B9FD424604A9384628F09BFFB9F16D
:103D8000000F02D02046FFF785FF002009B0BDE8F4
:103D9000F0834FF00009B7E7055101002DE9F04F1E
:103DA00089B00546DDF8489016461F460C4639BBDB
:103DB000FFF766FF01460446284621F029FF4FF031
:103DC000010B6B6C33446B6421F089FD8246D6B9DC
:103DD000504621F088FDBBF1000F0ED021F07FFD91
:103DE00005F14C01064604F1840021F0EDFD30465A
:103DF00021F079FD2046FFF74DFF09B0BDE8F08FB7
:103E00004FF0000BDDE72B79102EB04628BF4FF0A6
:103E10001008012B0DD110220021684628F024FF44
:103E200039464246684628F045FF69462046FFF776
:103E30004BFF394604F18C0021F0A9FD124B23659C
:103E4000012363652369DB07FCD404A904F1800026
:103E500021F0BAFD04A94246484628F02BFF2979F3
:103E600061B91022684628F0FFFE4946424668467E
:103E700028F020FF69462046FFF726FFC14447444B
:103E8000A6EB0806A3E700BF4805590370B50488F0
:103E900004F4E043B3F5005F05461ED1C4F30223EA
:103EA000042B1AD181F0AA6383F4807333F47E1358
:103EB000204821F47E1618D081F0AA6383F40073A1
:103EC00033F47E1311D0864230D1B4F5105F0CBFAD
:103ED0006FF086006FF0850070BDB4F5105F25D1DE
:103EE000144B21F47E119942F1E786424FEA1143C7
:103EF000C1F305411AD1B4F5105F17D104390C296B
:103F000011D813F001000ED1073A062A0BD86B889E
:103F1000C02B0BD0B3F5807FDED0802B0CBF0020F0
:103F20006FF08600D8E76FF08600D5E76FF0850068
:103F3000D2E700BF000140052DE9F04FA7B0DDE951
:103F40003475DDF8D880DDF8EC90089206461C4602
:103F50008A4629B96FF08602104627B0BDE8F08F77
:103F60000028F7D0309B002BF4D0329B13B9339B41
:103F7000002BEFD1002F7DD1002DEBD1389B002BF2
:103F8000E8D0B9F1000FE5D03A9B002BE2D0399B85
:103F9000002BDFD0338803F4E042B2F5005F74D128
:103FA000C3F30222042A70D184F0AA6383F48073DD
:103FB00033F47E1306D084F0AA6383F4007333F4E1
:103FC0007E136BD1C4F30543319AC9F80030214602
:103FD00030460993FFF75AFF02460028BCD1728889
:103FE000089BB3EBD20F4FEAD20BB3D3379B9D4262
:103FF0005FD83A9A099B93425BD8474508D27B1910
:10400000984505D239462A46404628F013FE4746D1
:10401000702200210AA828F027FE5A4651460DF1C9
:104020002D00CDF850B028F045FE234B24F47E142B
:104030009C423BD13388B3F5105F37D1D9F80030BB
:104040000693399B0397CDE90483339B0293329BFC
:104050000193319B00932A46309B01210AA821F04D
:10406000F2FE0246E0B9389B1D6070210AA821F0DB
:10407000E2FE71E7002D81D0B8F1000F3FF46AAF86
:10408000379B002B7FF47AAF64E742F2040293423D
:1040900004D184F0052383F4801390E7002393E791
:1040A000389900230B60C9F80030DEE76FF0850215
:1040B000DBE76FF089024FE7000140052DE9F04F83
:1040C000ABB0DDE938A4DDE93B6589460992984645
:1040D0000746002800F0A280002900F09F80349B52
:1040E000002B00F09B80369B1BB9379B002B40F0C8
:1040F0009580BAF1000F02D1002C40F08F801DB9DD
:104100003D9B002B40F08A803E9B002B00F0868078
:104110003A9B002B00F08280359A41463846FFF7E3
:10412000B5FE0246002866D17A88099BB3EBD20F10
:104130004FEAD20B72D33D9B9C4272D8AA4509D25A
:104140000AEB0402954205D251462246284628F041
:1041500071FDAA46702200210EA828F085FD5A465E
:1041600049460DF13D00CDF860B028F0A3FD2E4A80
:1041700028F47E1800219045CDE90A11CDE90C11F3
:1041800049D13A88B2F5105F45D1379B0293369BEF
:1041900001930AAF359B00932246CDE90457349B27
:1041A0000696CDF80CA00EA821F04DFE0246C8B927
:1041B0003A9B384603EB060C90469C451FD11EB136
:1041C0003146384621F037FEB8F1000F20D03E9A34
:1041D000002313601CB12146284621F02CFE6FF00D
:1041E000940204E01EB13146384621F024FE7021CD
:1041F0000EA821F020FE10462BB0BDE8F08F10F87D
:10420000011B13F801EB81EA0E0148EA0108D4E72B
:104210003E9B1C60EBE76FF08502E8E76FF08602DB
:10422000E9E76FF08902E6E7000140052DE9F04F6C
:104230008FB09846DDF86CA0049093460023B8F147
:10424000000F16D0D8F800401029CDE90633CDE98B
:1042500008330CBF08231023029300255D450AD3C1
:10426000B8F1000F01D0C8F8004000200FB0BDE841
:10427000F08F4446E8E75CB1199B1A9A1B5D525DCA
:10428000013453400AF8053004F00F040135E5E726
:10429000FFF7F6FC4FF4404344600360064621F00C
:1042A0001EFB029A04990746304621F0C2FB06F134
:1042B000840318461899019321F069FB3846ABEB4B
:1042C000050721F010FB27F00F0706F1A0032F448C
:1042D0000593AAF11009BD4234D11A9B3B440AADA3
:1042E00003F1100C186859682A4603C20833634565
:1042F0001546F7D10F2F0ED90AEB070306AD103B79
:104300000DF1280C2A4603CA62451860596015460B
:1043100003F10803F6D106F1800357440AEB0B09B9
:1043200003934F4536D121F0DAFA189905460198E2
:1043300021F04AFB284621F0D6FA3046FFF7AAFCC6
:104340005D468BE721F0CBFA224B0390336533694E
:10435000DA07FCD41A9B0598591921F018FB0F2D88
:104360000ED90DF1180C09EB05020DF1280E63466C
:1043700003CB7345106051609C4602F10802F6D1F0
:1043800006A906F1800021F01FFB039821F0ABFA8B
:104390001035A0E774B921F0A2FA0E4B336505463B
:1043A0003369DB07FCD40398199921F00DFB2846EB
:1043B00021F099FA04F138030DEB0302199B12F86E
:1043C000102C1B5D0134534007F8013B04F00F042F
:1043D000A7E700BF480503012DE9F74FDDF848A026
:1043E000DDE90E74DDE9106883461D46894621B972
:1043F0006FF0860003B0BDE8F08F002AF8D00FB947
:10440000002CF5D116B9B8F1000FF1D1BAF1000FB7
:10441000EED02E4B9D4215D00BD82D4B25F480713C
:1044200099420FD003F580639D420BD06FF0850059
:10443000E0E7284B9D4205D025F40071A3F5807379
:104440009942F2E7BBF80030B3F5105FEED1BBF84C
:104450000230B2EBD30FE9D3802B02D0B3F5807FCB
:10446000E4D124B3B7420AD23B199E4207D2444555
:10447000BED839462246304628F0DCFB3746164B7C
:10448000BBF802B09D424FEADB0BCFD14445AFD819
:1044900014F00F05ACD17319009301227B19594612
:1044A000484621F009FD30B91035AC42F3D8CAF8BE
:1044B000004000209EE742460021304628F0D4FB11
:1044C0000023CAF800306FF0920093E70010C00498
:1044D000004040040012C004004440042DE9F04FA5
:1044E00091B0DDE91A4ADDE91C56DDF878900746FF
:1044F0009B46884629B96FF08608404611B0BDE852
:10450000F08F002AF7D014B9BAF1000FF3D10DB92A
:10451000002EF0D1B9F1000FEDD0574B9B4515D0CF
:104520000BD8564B2BF4807199420FD003F5806362
:104530009B450BD06FF08508DFE7514B9B4505D0BD
:104540002BF40071A3F580739942F2E73B88B3F531
:10455000105FEFD17B88B2EBD30FEBD3802B02D06F
:10456000B3F5807FE6D1BAF1000F04D1C9F800A0FD
:104570004FF00008C1E7AC420BD204EB0A039D42A6
:1045800007D2B245B7D821465246284628F052FBFA
:104590002C46394B7F889B454FEAD70758D003F507
:1045A00040739B4521D0374B9B45C3D1B245A2D820
:1045B0001AF00F0B9FD140463B4608AA394621F01E
:1045C000B5FC8046002898D105EB0B030093002230
:1045D00004EB0B03394608A821F06EFC804670BB43
:1045E0000BF1100BDA45EFD8C0E7AAF10D0AB2457E
:1045F0003FD801238DF810300DF11102234604F14C
:104600000C0153F8040B42F8040B8B42F9D11B78D0
:1046100013704FF48073ADF81E300D3404ABCDE948
:1046200000334046CDE90245002352463946FFF7A4
:10463000FDFDC9F800A0804600283FF45EAF324679
:104640000021284628F010FB0023C9F8003054E769
:10465000AAF1100AB2453FF64EAF04AA04F1100CBD
:1046600020686168134603C3083464451A46F7D1CD
:10467000D4E76FF0890840E70010C0040040400410
:104680000012C0040044400410B54FF42F720446D9
:10469000002128F0E9FA8023C4F88C30054BC4F8D7
:1046A0008430012384F8883004F19C00BDE8104078
:1046B00021F053B8E008030010B5D0F8A0400A4636
:1046C00084B921F03EFE044610B90024204610BDF6
:1046D0002D2896BF064B074953F82010064821F0B5
:1046E00077FFF3E7D0F8A4101046A047EDE700BF2E
:1046F00088090300E3080300382F0300F8B590F899
:104700008060044616B100263046F8BD21F04AFC10
:104710000028F8D1012384F8803094F8883033B130
:10472000D4F88410194884F8886021F051FF4FF0C4
:10473000FF37D4F8B402421C1CD0C4F8B47210F095
:10474000FF0520D0204621F02AFC2946204600F013
:10475000AFFB0028EDD0204621F02FFC94F88830E4
:104760006BB1D4F88410094821F032FF002384F89B
:10477000883004E021F011FF431CE0D10126002322
:1047800084F88030C0E70126D3E700BFF22B030096
:10479000F8B50B78302B04460D46164604D14B78FD
:1047A00003F0DF03582B11D0284F6A1E12F8011FA7
:1047B000002935D128460A2220F0DEFB202C0346B2
:1047C0000D4632D1B1FA81F040091BE04A1C1F4965
:1047D00012F8013F93B9284628F07AFA1C4B23407F
:1047E000032BA0F1020012D10134A41084420AD19B
:1047F000A87837288CBF0020012003E0CB5C13F0A1
:104800004400E5D1F8BDCCBF01200020FAE7002C20
:10481000B8BF0334B0EBA40FD4BF01200020F1E7F0
:104820007B5C13F00400C1D1ECE726B1084302D051
:10483000013B61F100050122A240013A1A40002D1E
:1048400008BF9A420CBF01200020DBE7AF710300D4
:1048500003000080F0B503787B2B014617D10D4F84
:1048600006460224002216F8015F7D2D05D10B5D5E
:104870006BB9D24302F0010008E07B5D13F0440005
:1048800002D001320134EEE7202DFBD0F0BD002034
:10489000FCE700BFAF71030070B506460D4628F077
:1048A00017FA0446304621F093FE044EAC4200D382
:1048B00070BD304621F08CFE0134F7E71823030069
:1048C0002DE9F84F044602216048FFF7E5FF1E215D
:1048D0002068FFF7E1FF6368586821F079FE5C48C3
:1048E00021F076FE67683B7BFD2B12D8D7F8088055
:1048F000DFF85891DFF8B4A1DFF870B1404628F036
:10490000E7F90C3706464FF0FF3417F8013BFF2B51
:1049100001D1BDE8F88F212B14D8212B14D8DFE862
:1049200003F0178C8884807C78741313131313138B
:104930001313706C6864605C5854131313131313CF
:104940001313504CFE2B34D006B10134414D02E01C
:1049500006B10134404D02214846FFF79DFF1E215C
:104960004846FFF799FF504621F032FE5946284647
:1049700028F096F93949002818BF2946384821F00F
:1049800027FE3B78202B02D12B2021F015FE354845
:1049900021F01EFE4EB118F804301F2B05D018F878
:1049A00004001F2801D0B4424BDB294821F010FE3F
:1049B000ABE706B101342C4DCDE706B101342B4DE8
:1049C000C9E7002EA1D001349FE706B10134284D7C
:1049D000C1E706B10134274DBDE706B10134264DCC
:1049E000B9E706B10134254DB5E706B10134244DD0
:1049F000B1E706B10134234DADE706B10134224DD4
:104A0000A9E706B10134214DA5E706B10134204DD7
:104A1000A1E706B101341F4D9DE706B101341E4DDB
:104A200099E706B101341D4D95E706B101341C4DDF
:104A300091E706B101341B4D8DE706B101341A4DE3
:104A400089E721F0B9FD0134A9E700BFB70A0300E7
:104A5000BF0E03004D0A0300470A03009E0A03002D
:104A6000F22B0300A51D0300E5CF0200550A030049
:104A70005E0A0300650A0300700A03007A0A030055
:104A8000840A03006F0A0300790A0300830A030003
:104A90008C0A0300900A0300980A0300410A0300ED
:104AA000480A0300970A0300400A0300F02F03009E
:104AB0002DE9F04F9BB005468B460092049328F0F9
:104AC00007F9249F049B059000241C600AAA3C60FF
:104AD00009A9284621F09DFD064658B90A9828F0F4
:104AE000F7F8049B1860D5F89C3003933446B14620
:104AF000039B1BB920461BB0BDE8F08F039B9B684E
:104B00000193002B69D02E4416F8013B202B12D0C4
:104B100000260C23019A734302EB030AD358029335
:104B2000002B55D0DDF82480C84551DB9AF80830B9
:104B30002BB1721C35E03B6801333B60E4E73B6816
:104B4000D5F894200299D21A049B1A601AAB03EB91
:104B5000890353F8403C0693184628F08DF80790D7
:104B60000028E6D1029828F0B3F8DAF80410079A82
:104B7000D7F800A00346087BFE2816D108F1FF38BD
:104B8000C8452ED00B6806980292019328F0A0F831
:104B90000AF10103029A0344E95C21B13B6009F187
:104BA00001091646B5E70133F6E7D5F89420A2EBE4
:104BB0000A029A42BDDC5846069328F089F8069B03
:104BC00003447B2B1DD91F4A0099584620F0ECFD69
:104BD000059A2B462A449A422AD1039B1B680393C9
:104BE00086E7D5F89420A2EB0A029A42E3DDD1F8D9
:104BF000008058F80C2B82B9059B3B60049B1A601F
:104C0000E6E7029A0099584620F0CEFD0E4A009938
:104C10005846013420F0C8FD8BE70099584620F033
:104C2000C3FD094A0099584620F0BEFD0134E0E773
:104C300013F8011B0029CED14FF0200103F8011C0D
:104C4000C9E700BFA00A0300182303002DE9F047BD
:104C500086B0DDE90EA800241C60064689468AF865
:104C600000401168154888F8004017461D468DF829
:104C70001740FDF7BFFA18B92B6801332B600124E8
:104C8000D6F89C60002036B914B1012388F80030B2
:104C900006B0BDE8F087B06868B14B46CDE902A820
:104CA000CDE900750DF11702002121F0E9FA9DF818
:104CB0001730002BE8D13668E5E700BFA50A0300EE
:104CC0002DE9F0430026ADF5457D04467C223146B2
:104CD00005A802AF049627F0C7FF009703AB802218
:104CE00004A92046FFF7E4FE01283ED104A827F0DE
:104CF000EFFF03993B68A0EB01080B44234428EA2B
:104D0000E878054604A801444246184627F0D2FF39
:104D100000F80860D4F89060039B3968D4F89020BC
:104D20001944B14212DCD4F89410E81A0244C4F8D1
:104D30009020014404AAC4F89410D41825182B1B01
:104D4000002B0DDC0DF5457DBDE8F083A05C21F066
:104D500033FCD4F890300133C4F890300136DBE7EF
:104D600014F8010B21F028FCE9E7EBDD24AD8022EB
:104D70003146284627F078FF44AB4FF400723146A5
:104D8000184627F071FF0DF1100903464A464FF00F
:104D90000108314612F8016B002E49D104A843F8EE
:104DA000281027F095FF2946334619F8016B0DF5B9
:104DB000887C5CF8042B824243D10133984501F88A
:104DC000016BF2DAD4F89060039BB34242DC364ABE
:104DD0003648234604A921F0FBFB284627F078FF3C
:104DE000039B3F6806461F44F61AE0191D4426EA55
:104DF000E67204F198031744984204EB07014ED27F
:104E000004F1900399424AD96A1E81190B1A002BAA
:104E100039DD12F8013F00F8013BD4F8903001333E
:104E2000C4F89030D4F894300133C4F89430EDE7EE
:104E3000202E01F1010104BF43F8281008F10108F8
:104E4000A8E70DF1100E7244D25CB242B1D000223C
:104E5000EA54B7E7D4F89030E05C21F0ADFBD4F829
:104E600090300133C4F890300136ADE7D4F890208B
:104E70000132C4F89020D4F894200132C4F8942070
:104E8000013B002BF2DC0023E3552E44731B002B67
:104E90007FF758AF15F8010B21F08EFBF6E7294696
:104EA00027F008FF3346ECE7E0080300AA0A0300F6
:104EB0002DE9F843D0E9245604460F46002294F821
:104EC0009830012B07D10A2F07D1002384F898309E
:104ED0000020BDE8F88300F29F801B2F01D1022340
:104EE000F4E70D2F0DD1012384F898300D2021F027
:104EF00063FB0A2021F060FB0023C4E92433012076
:104F0000E7E74FF00008082F84F8988034D1454532
:104F100030DDB5420FD1384621F04EFB013D202057
:104F200021F04AFB384621F047FB04F80580013E9A
:104F3000C4E92456CCE7FBDA05F1FF39384621F005
:104F40003BFB04EB0903A6EB09026119184627F0A5
:104F500071FE04F806800146484821F039FB013E05
:104F600035464D4501DC4D46E2E7082021F024FBA3
:104F7000013DF6E7ACD0DBE77F2F1CD1002EA7DD8B
:104F8000B542A5DA6319691C2144721B184627F043
:104F900051FE04F806800146394821F019FB08202B
:104FA000013E21F009FBB542F9D1D4F89430013B20
:104FB000C4F894308CE70A2F98D0092F03D12046EB
:104FC000FFF77EFE84E7D4F88C30013BB3427FF7D5
:104FD0007FAFB54204EB050805F101090CDB88F849
:104FE0000070D4F89430C4F890900133C4F8943031
:104FF000384621F0E1FA6BE7721B414604EB0900E9
:1050000027F018FE404621F0E3FA0820013E21F087
:10501000D3FAB542F9DDE2E7022B06D15B2F01D1CD
:10502000032353E784F8982049E7032B7FF450AF1C
:10503000413F84F89820032F3FF64AAFDFE807F09E
:1050400002070A160121204621F067FA40E74FF0D7
:10505000FF31F8E7B542BFF63BAF605D21F0ACFA37
:10506000D4F890300133C4F8903031E7002D7FF749
:105070002FAF013DC4F890500820BAE7B30A0300EF
:105080008A1E03007FB5094B6A4603F110061546D8
:1050900018685968144603C40833B3422246F7D14E
:1050A0002846FEF7FFF9002004B070BDB80A0300DF
:1050B00070B5184B86B001AA03F1100615461868A2
:1050C0005968144603C40833B3422246F7D11B88FB
:1050D0002380114BD3F8B420120316D5A3F5004357
:1050E0004FF6FF721B88934208BF4FF4B4730B480E
:1050F000ADF80A30FCF7A0FF2846FDF7D3FD3220BB
:10510000FDF706FC002006B070BDD3F8B830C3F33D
:105110000803ECE7C80A03000081E00F00F0490231
:1051200010B50C480C4C6FF00403A02113F0800F55
:1051300003F1010207D123442F2A83F800131346F9
:10514000F4D1002010BD03F00F03043B0344197693
:105150001346EBE700ED00E000E100E010B5044687
:1051600020F0BDFB024B1C6020F0BDFB002010BDF9
:10517000C83E002010B520F0B2FB034B1C6820F0A5
:10518000B2FB204610BD00BFC83E002038B50C461B
:105190001546014610B9FFF7EDFF01462B462246A2
:1051A000034808F069FF0028D4BF3720002038BD2D
:1051B0007B67020007B501F00DFB6A4601F0F6FBC4
:1051C00018B10448522100F0DDFADDE9000103B016
:1051D0005DF804FBDA0A030008B501F02FFA18B1F4
:1051E00002487A2100F0CEFA002008BDDA0A030056
:1051F00008B500F025FA0D4A536A43F4E0235362E0
:10520000EFF308830A4A043B4FF0CD31934209D2B1
:10521000084B01221A61FFF7DFFFBDE8084006488E
:10522000FEF710BC43F80419F0E700BF00ED00E002
:105230000000002000300E401808030007B50422CB
:105240000DEB0201002024F0F0FC042804D00548F6
:1052500040F2671100F096FA019800F0D9FB03B014
:105260005DF804FBDA0A030010B50A0A414007485A
:10527000C9B2082301F00104490804B14140013BCF
:1052800013F0FF03F6D181EA020010BD2083B8EDD0
:105290002DE9F843134C144EDFF85480134FDFF818
:1052A0005490002523780BB9BDE8F88356F8043BE9
:1052B00022464146002021F069FA22782346013433
:1052C000002AFAD15B7853B105F00303032B0CBF1E
:1052D00039464946002021F059FA0135E2E73946BE
:1052E000F8E700BF5610030000200020BE0E0300A8
:1052F0003B0B0300214203006B4B1B8840F6052249
:1053000093422DE9F0410ED8B3F5206F0DD840F24D
:105310000252934218D040F20172934220D040F2E0
:10532000015293420AD0BDE8F081A3F602235F4CFC
:10533000032B1ED8DFE803F0376396B25C490020E8
:10534000BDE8F04121F022BA5A49002021F01EFAAE
:10535000564B1A6C5849BDE8F041002021F016BAAE
:10536000524A5649BDE8F041D2E92423002021F0F9
:105370000DBA5349002021F009FA94F868309E07CD
:1053800003D55049002021F001FA94F86B305D06F6
:1053900003D54D49002021F0F9F994F96B30002B29
:1053A000C1DA4A49CBE74A49002021F0EFF994F8E5
:1053B0006430980704D0226C3F49002021F0E6F9C0
:1053C00094F96430002B04DA226F4249002021F066
:1053D000DDF9414FDFF80C8100250126626E06FAE7
:1053E00005F3134207D057F8252013781BB1414627
:1053F000002021F0CBF90135082DEFD193E7374993
:10540000002021F0C3F92C49226C002021F0BEF9C4
:1054100094F86530590703D53149002021F0B6F9D9
:1054200094F96530002B04DA226F2A49002021F01C
:10543000ADF9294E2B4F0825636EEB40DA0707D5EF
:1054400056F8252013781BB13946002021F09EF92B
:105450000135102DF0D194F8640000287FF463AF7B
:1054600021496DE721491C4E1E4F002021F08EF985
:10547000226C1149002021F089F91025636EEB4060
:10548000DB0707D556F8252013781BB139460020D5
:1054900021F07CF901351A2DF0D144E714490020A0
:1054A00021F074F9226C55E71C53002000200020E5
:1054B000450B0300830B0300B40B0300CF0B030069
:1054C000EB0B0300040C03003F0C0300730C030000
:1054D000B00C0300D60C030074170300FD0C03008E
:1054E000150D0300F40C03005C0D03008D0D03008B
:1054F000A70D03002DE9F04F424CD4E90D32D4E959
:10550000121B580748BF0026D4F83CA05DBFD4F852
:1055100050803D4EDFF81C91DFF81C915ABF8B463E
:105520009246B04613F0080F384B394A394918BF34
:105530001A46B6EB080718BF7D0885B01BBF642369
:1055400003FB0B553D46B5FBF7F54B4618BFADB217
:10555000CDE9016ACDF800800020BFB221F016F934
:10556000CDE900972C492B461FFA8BF2002021F041
:105570000DF9B24501D8C24504D228494A46002057
:1055800021F004F9D4E91703184338D02449254FF2
:10559000DFF8A880002021F0F9F800250126E26D4F
:1055A00006FA05F3134207D057F8252013781BB1EC
:1055B0004146002021F0EAF80135202DEFD11A4FA5
:1055C000DFF8788000250126226E06FA05F31342E3
:1055D00007D057F8252013781BB14146002021F051
:1055E000D5F801350E2DEFD11049002021F0CEF86D
:1055F0000E49002005B0BDE8F04F21F0C7B80C49B6
:10560000F4E700BF0020002000200020CE0D0300A2
:10561000D50D0300DD0D03000F0E0300490E03003E
:10562000680E0300BC1603003C170300BF0E030006
:10563000980E0300C90D030098360300F12B0300F8
:1056400010B5FEF70FF90446FEF706F9E30721D47B
:1056500001221046114600FA01F3234002F1010233
:105660001AD0214B33F811302049062B19D040F2C3
:105670000722934212D14FF000524FF20F0054888C
:1056800084420BD11088984208D14CF23C335380AD
:10569000088010BD0021E4E7112ADBD1134A1380F2
:1056A00012E04FF000534FF20F025888904218D189
:1056B0001B88B3F5406F28BF4FF4C0630B804FF0D9
:1056C00000534CF23C325A80084B1A8840F2017366
:1056D0009A4201BF064A074BD2E90001C3E9000123
:1056E000D7E74FF4C063E9E7341003001C530020F0
:1056F00090200020CC3E0020014B1888704700BF4E
:105700001C530020014B1888000A70471C530020CE
:10571000044B05481B881A0AB3F5406F38BF00EBED
:10572000820070471C53002004100300044B1888AB
:10573000044B020AC0B253F8223003EB80007047DA
:105740001C530020D40F030010B5044620F0CEF8FF
:105750004FF000534FF20F021C805A80BFF35F8F4F
:10576000BFF34F8F0549064BCA6802F4E06213434A
:10577000CB60BFF34F8F00BFFDE700BF00ED00E03F
:105780000400FA0538B504460D4624F06CFF0849BC
:105790002B462246002020F0F9FF21F050F820F09F
:1057A000A5F829462046BDE8384021F02EB800BFB4
:1057B000AE0E03006B4A6C4B2DE9F04155685D65F8
:1057C000516A996569496A4CD1F80002D865D1F8E7
:1057D00004121966916A5966D16A9966116BD96685
:1057E000516B1967D26B586B5A67D3E90E1210F0E0
:1057F000040F18BF11465F4A1A6500209142D86411
:105800005DD301F12000A04259D888691864C5F31E
:105810000805CE695E64062D55D1574DA84252D376
:10582000564DA8424FD205884DF6426085424AD176
:105830001868C3F890005868C3F8940040F20170EB
:10584000A242154605D22E68B6F1CD3F02F1040200
:10585000F6D00022C3E91E22C3E92022C3E9222296
:10586000641BDFF814C1424DDFF810E19C648D42E7
:105870002CD8D3E91EC7D3E92065D3E922414FF0E4
:10588000000E013AD2B2FF2A3BD1BEF1000F05D083
:10589000C3E91EC7C3E92065C3E92241B3F8543008
:1058A000C3F30803DA1E0F2A52D8DFE802F0345897
:1058B000414451515151514E515151515138002192
:1058C000C3E910112B494FF42060B9E755F8044D96
:1058D0006445CCD37445CAD2E607C8D5284F002604
:1058E00057F8048FA045C2D00136062EF8D132B148
:1058F000013AD2B202F11E0643F82640B7E705226C
:10590000F8E7E0464FF0010EBC4637462E462546E6
:105910000C464146B5E740F60120BDE8F081194B41
:10592000DB6913F0020F40F2025318BF1846F4E788
:1059300040F60320F1E740F2017240F60423B0F58F
:10594000206F14BF10461846E7E740F60520E4E74D
:10595000013B40F607223D2B98BF1046DDE740F69D
:105960000220DAE700ED00E00020002000E100E086
:105970000020002000000020FC00000000CD0200FC
:10598000742000200020054000F00CB800F00AB898
:1059900000F008B800F006B800F004B800F002B853
:1059A00000F000B872B61EF0080F09D01EF0040F08
:1059B0000DD0DFF850E0AEE8FF1F6FF002000CE002
:1059C000DFF840E0AEE8FF1F6FF00E0005E0DFF803
:1059D00034E0AEE8FF1F6FF006006946EFF309827E
:1059E0008EE8070086460848084C854501D3A54542
:1059F00001D384F30888FFF7DDFE84F30888FFF7FE
:105A0000A3FE000000200020400000200020002015
:105A100083B24BF6EF62002B08BF1346044A000C1A
:105A200013804FF6CE2308BF1846024B18807047EC
:105A3000BC240020BA2400200B4BB3F900201888A6
:105A4000002AB8BF80F0620042001A80074AB2F90B
:105A5000001013880029BCBF83F4805383F00B032C
:105A60005900118058407047BC240020BA240020FF
:105A700008B501F087F960B10A4B0344072B0DD834
:105A8000072B0BD8DFE803F00C060A080A0A0A0401
:105A9000C12008BDC320FCE7C420FAE7C520F8E711
:105AA000C220F6E7FF1FFF0FF0B551B1002807DA5B
:105AB0002D23B0F1004F137000D04042012100E0CF
:105AC000002100250E4F2C4657F8046B002301E0FF
:105AD000801B6346864203F1010CF9D913F0FF03E2
